:020000040800F2
:10000000403000208950000895A80008755000086D
:100010007550000875500008755000080000000079
:10002000000000000000000000000000C9500008AF
:100030007550000800000000B1520008DD6A000899
:100040004953000849530008495300084953000820
:100050004953000849530008495300084953000810
:100060004953000849530008495300084953000800
:1000700049530008495300084953000849530008F0
:1000800049530008495300084953000849530008E0
:1000900049530008495300084953000849530008D0
:1000A00049530008495300084953000849530008C0
:1000B00049530008495300084953000849530008B0
:1000C00049530008495300084953000849530008A0
:1000D0004953000849530008495300084953000890
:1000E0004953000849530008495300084953000880
:1000F0004953000849530008495300084953000870
:10010000495300084953000849530008495300085F
:10011000495300084953000849530008495300084F
:10012000495300084953000849530008495300083F
:10013000495300084953000849530008495300082F
:10014000495300084953000849530008495300081F
:10015000495300084953000849530008495300080F
:0801600049530008495300084F
:1001800030B490F800F020F007016FF0000C10F090
:10019000070491F820F040F048804FF000046FF021
:1001A0000700D1E9002391F840F000F1080082FA3D
:1001B0004CF2A4FA8CF283FA4CF3A2FA8CF34BBB08
:1001C000D1E9022382FA4CF200F10800A4FA8CF281
:1001D00083FA4CF3A2FA8CF3E3B9D1E9042382FA4F
:1001E0004CF200F10800A4FA8CF283FA4CF3A2FA64
:1001F0008CF37BB9D1E9062301F1200182FA4CF29C
:1002000000F10800A4FA8CF283FA4CF3A2FA8CF302
:10021000002BC6D0002A04BF04301A4612BAB2FA24
:1002200082F200EBD20030BC7047D1E9002304F029
:100230000305C4F100004FEAC50514F0040F91F85E
:1002400040F00CFA05F562EA05021CBF63EA0503FB
:1002500062464FF00004AAE7844641EA000313F027
:1002600003036DD1403A41D351F8043B40F8043BBD
:1002700051F8043B40F8043B51F8043B40F8043B80
:1002800051F8043B40F8043B51F8043B40F8043B70
:1002900051F8043B40F8043B51F8043B40F8043B60
:1002A00051F8043B40F8043B51F8043B40F8043B50
:1002B00051F8043B40F8043B51F8043B40F8043B40
:1002C00051F8043B40F8043B51F8043B40F8043B30
:1002D00051F8043B40F8043B51F8043B40F8043B20
:1002E00051F8043B40F8043B403ABDD2303211D3C0
:1002F00051F8043B40F8043B51F8043B40F8043B00
:1003000051F8043B40F8043B51F8043B40F8043BEF
:10031000103AEDD20C3205D351F8043B40F8043BBF
:10032000043AF9D2043208D0D2071CBF11F8013BBD
:1003300000F8013B01D30B8803806046704700BF83
:10034000082A13D38B078DD010F003038AD0C3F192
:100350000403D21ADB071CBF11F8013B00F8013B74
:1003600080D331F8023B20F8023B7BE7043AD9D333
:10037000013A11F8013B00F8013BF9D20B78037008
:100380004B7843708B7883706046704781F00041F2
:1003900002E000BF83F0004330B54FEA41044FEA6A
:1003A000430594EA050F08BF90EA020F1FBF54EA05
:1003B000000C55EA020C7FEA645C7FEA655C00F0A1
:1003C000E2804FEA5454D4EB5555B8BF6D420CDD72
:1003D0002C4480EA020281EA030382EA000083EAF5
:1003E000010180EA020281EA0303362D88BF30BD95
:1003F00011F0004F4FEA01314FF4801C4CEA1131EB
:1004000002D0404261EB410113F0004F4FEA033349
:100410004CEA133302D0524263EB430394EA050FD4
:1004200000F0A780A4F10104D5F1200E0DDB02FA43
:100430000EFC22FA05F2801841F1000103FA0EF2D7
:10044000801843FA05F359410EE0A5F120050EF19D
:10045000200E012A03FA0EFC28BF4CF0020C43FACE
:1004600005F3C01851EBE37101F0004507D54FF0DB
:10047000000EDCF1000C7EEB00006EEB0101B1F52B
:10048000801F1BD3B1F5001F0CD349085FEA300071
:100490004FEA3C0C04F101044FEA445212F5800F7C
:1004A00080F09A80BCF1004F08BF5FEA500C50F119
:1004B000000041EB045141EA050130BD5FEA4C0CFC
:1004C000404141EB0101013C28BFB1F5801FE9D259
:1004D00091F0000F04BF01460020B1FA81F308BF7C
:1004E0002033A3F10B03B3F120020CDA0C3208DD48
:1004F00002F1140CC2F10C0201FA0CF021FA02F123
:100500000CE002F11402D8BFC2F1200C01FA02F192
:1005100020FA0CFCDCBF41EA0C019040E41AA2BFB7
:1005200001EB0451294330BD6FEA04041F3C1CDA7F
:100530000C340EDC04F11404C4F1200220FA04F09F
:1005400001FA02F340EA030021FA04F345EA030149
:1005500030BDC4F10C04C4F1200220FA02F001FA0B
:1005600004F340EA0300294630BD21FA04F029468D
:1005700030BD94F0000F83F4801306BF81F4801126
:100580000134013D4EE77FEA645C18BF7FEA655C99
:1005900029D094EA050F08BF90EA020F05D054EA6B
:1005A000000C04BF1946104630BD91EA030F1EBF70
:1005B0000021002030BD5FEA545C05D14000494174
:1005C00028BF41F0004130BD14F580043CBF01F567
:1005D000801130BD01F0004545F0FE4141F470014D
:1005E0004FF0000030BD7FEA645C1ABF1946104628
:1005F0007FEA655C1CBF0B46024650EA013406BF29
:1006000052EA033591EA030F41F4002130BD00BFE7
:1006100090F0000F04BF0021704730B54FF48064A4
:1006200004F132044FF000054FF0000150E700BF25
:1006300090F0000F04BF0021704730B54FF4806484
:1006400004F1320410F0004548BF40424FF0000171
:100650003EE700BF42004FEAE2014FEA31014FEAB4
:1006600002701FBF12F07F4393F07F4F81F0605103
:10067000704732F07F4208BF704793F07F4F04BF4E
:1006800041F40021704730B54FF4607401F000452B
:1006900021F000411CE700BF50EA010208BF70478B
:1006A00030B54FF000050AE050EA010208BF70477C
:1006B00030B511F0004502D5404261EB41014FF4E5
:1006C000806404F132045FEA915C3FF4D8AE4FF0ED
:1006D00003025FEADC0C18BF03325FEADC0C18BFD0
:1006E000033202EBDC02C2F1200300FA03FC20FA21
:1006F00002F001FA03FE40EA0E0021FA02F114446E
:10070000BDE600BF70B54FF0FF0C4CF4E06C1CEA86
:1007100011541DBF1CEA135594EA0C0F95EA0C0FF7
:1007200000F0DEF82C4481EA030621EA4C5123EA6A
:100730004C5350EA013518BF52EA033541F4801199
:1007400043F4801338D0A0FB02CE4FF00005E1FB4C
:1007500002E506F00042E0FB03E54FF00006E1FB96
:1007600003569CF0000F18BF4EF0010EA4F1FF04D9
:10077000B6F5007F64F5407404D25FEA4E0E6D4119
:1007800046EB060642EAC62141EA55514FEAC5202A
:1007900040EA5E504FEACE2EB4F1FD0C88BFBCF5A6
:1007A000E06F1ED8BEF1004F08BF5FEA500E50F157
:1007B000000041EB045170BD06F0004646EA01011D
:1007C00040EA020081EA0301B4EB5C04C2BFD4EB4F
:1007D0000C0541EA045170BD41F480114FF0000E48
:1007E000013C00F3AB8014F1360FDEBF002001F0B6
:1007F000004170BDC4F10004203C35DA0C341BDC30
:1008000004F11404C4F1200500FA05F320FA04F001
:1008100001FA05F240EA020001F0004221F0004135
:1008200010EBD37021FA04F642EB06015EEA430EA8
:1008300008BF20EAD37070BDC4F10C04C4F12005D8
:1008400000FA04F320FA05F001FA04F240EA02008B
:1008500001F0004110EBD37041F100015EEA430E5C
:1008600008BF20EAD37070BDC4F1200500FA05F27C
:100870004EEA020E20FA04F301FA05F243EA0203FB
:1008800021FA04F001F0004121FA04F220EA02000A
:1008900000EBD3705EEA430E08BF20EAD37070BD50
:1008A00094F0000F0FD101F00046400041EB010130
:1008B00011F4801F08BF013CF7D041EA060195F012
:1008C000000F18BF704703F00046520043EB0303CC
:1008D00013F4801F08BF013DF7D043EA06037047B9
:1008E00094EA0C0F0CEA135518BF95EA0C0F0CD0C4
:1008F00050EA410618BF52EA4306D1D181EA03010A
:1009000001F000414FF0000070BD50EA410606BF03
:100910001046194652EA430619D094EA0C0F02D148
:1009200050EA013613D195EA0C0F05D152EA03368D
:100930001CBF104619460AD181EA030101F00041AB
:1009400041F0FE4141F470014FF0000070BD41F0F4
:10095000FE4141F4780170BD70B54FF0FF0C4CF4CE
:10096000E06C1CEA11541DBF1CEA135594EA0C0FED
:1009700095EA0C0F00F0A7F8A4EB050481EA030E3A
:1009800052EA03354FEA013100F088804FEA033321
:100990004FF0805545EA131343EA12634FEA0222EF
:1009A00045EA111545EA10654FEA00260EF00041B0
:1009B0009D4208BF964244F1FD0404F5407402D202
:1009C0005B084FEA3202B61A65EB03055B084FEA93
:1009D00032024FF480104FF4002CB6EB020E75EB90
:1009E000030E22BFB61A754640EA0C005B084FEAB8
:1009F0003202B6EB020E75EB030E22BFB61A754635
:100A000040EA5C005B084FEA3202B6EB020E75EB7F
:100A1000030E22BFB61A754640EA9C005B084FEAF7
:100A20003202B6EB020E75EB030E22BFB61A754604
:100A300040EADC0055EA060E18D04FEA051545EAF3
:100A400016754FEA06164FEAC30343EA52734FEA9C
:100A5000C2025FEA1C1CC0D111F4801F0BD141EA15
:100A600000014FF000004FF0004CB6E711F4801F7A
:100A700004BF01430020B4F1FD0C88BFBCF5E06F5A
:100A80003FF6AFAEB5EB030C04BFB6EB020C5FEA6A
:100A9000500C50F1000041EB045170BD0EF0004EBF
:100AA0004EEA113114EB5C04C2BFD4EB0C0541EAF1
:100AB000045170BD41F480114FF0000E013C90E6EE
:100AC00045EA060E8DE60CEA135594EA0C0F08BFB2
:100AD00095EA0C0F3FF43BAF94EA0C0F0AD150EAB1
:100AE00001347FF434AF95EA0C0F7FF425AF104644
:100AF00019462CE795EA0C0F06D152EA03353FF46C
:100B0000FDAE1046194622E750EA410618BF52EAE8
:100B100043067FF4C5AE50EA41047FF40DAF52EABC
:100B200043057FF4EBAE12E74FF0FF3C06E000BF59
:100B30004FF0010C02E000BF4FF0010C4DF804CD66
:100B40004FEA410C7FEA6C5C4FEA430C18BF7FEA26
:100B50006C5C1BD001B050EA410C0CBF52EA430C54
:100B600091EA030F02BF90EA020F0020704710F1D4
:100B7000000F91EA030F58BF994208BF90422CBF63
:100B8000D8176FEAE37040F0010070474FEA410C5C
:100B90007FEA6C5C02D150EA013C07D14FEA430C7A
:100BA0007FEA6C5CD6D152EA033CD3D05DF8040BEB
:100BB000704700BF8446104662468C46194663461D
:100BC00000E000BF01B5FFF7B7FF002848BF10F1F4
:100BD000000F01BD4DF808EDFFF7F4FF0CBF012039
:100BE00000205DF808FB00BF4DF808EDFFF7EAFFB5
:100BF00034BF012000205DF808FB00BF4DF808ED70
:100C0000FFF7E0FF94BF012000205DF808FB00BF64
:100C10004DF808EDFFF7CEFF94BF012000205DF8EE
:100C200008FB00BF4DF808EDFFF7C4FF34BF0120FB
:100C300000205DF808FB00BF4A0011D212F5001237
:100C400011D20DD56FF47873B3EB62520ED44FEA24
:100C5000C12343F0004343EA505323FA02F07047A4
:100C60004FF00000704750EA013002D14FF0FF30E2
:100C700070474FF00000704780F0004002E000BF76
:100C800081F0004142001FBF5FEA410392EA030F77
:100C90007FEA226C7FEA236C6AD04FEA1262D2EBC1
:100CA0001363C1BFD218414048404140B8BF5B42C6
:100CB000192B88BF704710F0004F40F4000020F05F
:100CC0007F4018BF404211F0004F41F4000121F075
:100CD0007F4118BF494292EA030F3FD0A2F10102BF
:100CE00041FA03FC10EB0C00C3F1200301FA03F1FD
:100CF00000F0004302D5494260EB4000B0F5000F20
:100D000013D3B0F1807F06D340084FEA310102F1DE
:100D10000102FE2A51D2B1F1004F40EBC25008BF90
:100D200020F0010040EA03007047490040EB00005A
:100D3000013A28BFB0F5000FEDD2B0FA80FCACF15B
:100D4000080CB2EB0C0200FA0CF0AABF00EBC25088
:100D500052421843BCBFD0401843704792F0000F76
:100D600081F4000106BF80F400000132013BB5E7C9
:100D70004FEA41037FEA226C18BF7FEA236C21D03F
:100D800092EA030F04D092F0000F08BF08467047A4
:100D900090EA010F1CBF0020704712F07F4F04D172
:100DA000400028BF40F00040704712F100723CBF85
:100DB00000F50000704700F0004343F0FE4040F4AF
:100DC000000070477FEA226216BF08467FEA23636D
:100DD0000146420206BF5FEA412390EA010F40F458
:100DE000800070474FF0000304E000BF10F00043A4
:100DF00048BF40425FEA000C08BF704743F096438B
:100E000001464FF000001CE050EA010208BF7047A5
:100E10004FF000030AE000BF50EA010208BF70472C
:100E200011F0004302D5404261EB41015FEA010C41
:100E300002BF84460146002043F0B64308BFA3F139
:100E40008053A3F50003BCFA8CF2083AA3EBC2531B
:100E500010DB01FA02FC634400FA02FCC2F120023A
:100E6000BCF1004F20FA02F243EB020008BF20F071
:100E70000100704702F1200201FA02FCC2F12002D7
:100E800050EA4C0021FA02F243EB020008BF20EACC
:100E9000DC7070474FF0FF0C1CEAD0521EBF1CEAFA
:100EA000D15392EA0C0F93EA0C0F6FD01A4480EAE8
:100EB000010C400218BF5FEA41211ED04FF00063D1
:100EC00043EA501043EA5111A0FB01310CF00040FD
:100ED000B1F5000F3EBF490041EAD3715B0040EA23
:100EE000010062F17F02FD2A1DD8B3F1004F40EBF3
:100EF000C25008BF20F00100704790F0000F0CF0C6
:100F0000004C08BF49024CEA502040EA51207F3A89
:100F1000C2BFD2F1FF0340EAC250704740F4000064
:100F20004FF00003013A5DDC12F1190FDCBF00F055
:100F300000407047C2F10002410021FA02F1C2F103
:100F4000200200FA02FC5FEA310040F1000053EA9F
:100F50004C0308BF20EADC70704792F0000F00F0ED
:100F6000004C02BF400010F4000F013AF9D040EAF3
:100F70000C0093F0000F01F0004C02BF490011F487
:100F8000000F013BF9D041EA0C018FE70CEAD15385
:100F900092EA0C0F18BF93EA0C0F0AD030F0004C05
:100FA00018BF31F0004CD8D180EA010000F00040B9
:100FB000704790F0000F17BF90F0004F084691F077
:100FC000000F91F0004F14D092EA0C0F01D14202B1
:100FD0000FD193EA0C0F03D14B0218BF084608D17A
:100FE00080EA010000F0004040F0FE4040F40000C4
:100FF000704740F0FE4040F4400070474FF0FF0C57
:101000001CEAD0521EBF1CEAD15392EA0C0F93EA9D
:101010000C0F69D0A2EB030280EA010C49024FEAEF
:10102000402037D04FF0805343EA111143EA1013A8
:101030000CF000408B4238BF5B0042F17D024FF460
:10104000000C8B4224BF5B1A40EA0C00B3EB510F3B
:1010500024BFA3EB510340EA5C00B3EB910F24BF24
:10106000A3EB910340EA9C00B3EBD10F24BFA3EBA9
:10107000D10340EADC001B0118BF5FEA1C1CE0D171
:10108000FD2A3FF650AF8B4240EBC25008BF20F024
:10109000010070470CF0004C4CEA50207F32C2BF78
:1010A000D2F1FF0340EAC250704740F400004FF015
:1010B0000003013A37E792F0000F00F0004C02BF46
:1010C000400010F4000F013AF9D040EA0C0093F010
:1010D000000F01F0004C02BF490011F4000F013B6A
:1010E000F9D041EA0C0195E70CEAD15392EA0C0FD2
:1010F00008D142027FF47DAF93EA0C0F7FF470AF0A
:10110000084676E793EA0C0F04D14B023FF44CAF4C
:1011100008466EE730F0004C18BF31F0004CCAD1E1
:1011200030F000427FF45CAF31F000437FF43CAF1D
:101130005FE700BF42000ED2B2F1FE4F0BD34FF07B
:101140009E03B3EB126209D44FEA002343F000433D
:1011500023FA02F070474FF00000704712F1610F60
:1011600001D1420202D14FF0FF3070474FF0000032
:10117000704700BF53B94AB9002908BF00281CBFF7
:101180004FF0FF314FF0FF3000F00CB8ADF1080C1C
:101190006DE904CE00F01BF8DDF804E0DDE9022380
:1011A00004B07047704700BF430803F05533C01ABE
:1011B00000F03333800800F03330184400EB101097
:1011C0004FF0013300F00F305843000E70472DE907
:1011D000F0478C468E46089E154604461946002B5D
:1011E00040F0D080724547D9B2FA82F74FB1C7F1CB
:1011F00020030EFA07FC20FA03F3BD4043EA0C0C6F
:10120000BC404FEA154EA8B2BCFBFEF8230C0EFB07
:1012100018CC08FB00F943EA0C43994528D9EB1890
:1012200008F1FF3204D2994502D9A8F102022B44F9
:10123000A3EB0903A4B2B3FBFEFC0EFB1C330CFBB7
:1012400000F044EA0344A04214D92C190CF1FF33F6
:1012500004D2A04202D9ACF102032C44241A43EA7E
:1012600002401EB1FC40002334607360BDE8F0878B
:101270004246DDE76346F1E7002A79D0B2FA82F30D
:10128000002B3FD01946C1F1200302FA01F52EFAD6
:1012900003F20EFA01FE20FA03F343EA0E034FEACB
:1012A000154E00FA01F4B2FBFEFCAFB20EFB1C209F
:1012B0001A0C0CFB07F842EA004290455AD9AA18CA
:1012C0000CF1FF3004D2904502D9ACF102002A445F
:1012D000A2EB08029BB2B2FBFEFC0EFB1C220CFB35
:1012E00007F743EA02439F4246D9EB180CF1FF325D
:1012F00004D29F4202D9ACF102022B44DB1B42EA2A
:10130000004202E0AEEB020301224FEA154EAFB2FB
:10131000B3FBFEFC200C0EFB1C330CFB07F840EA71
:10132000034398452AD9EB180CF1FF3004D29845B5
:1013300002D9ACF102002B44A3EB0803A4B2B3FB27
:10134000FEFC0EFB1C330CFB07F744EA0344A742E8
:1013500016D92C190CF1FF3304D2A74202D9ACF1F3
:1013600002032C44E41B43EA00400F46114678E791
:101370001F2188E76046ABE76246BFE76046DBE7D0
:101380006346EFE7734506D916B9002108466DE7B5
:10139000C6E9000EF9E7B3FA83F787B9734501D3BD
:1013A000824207D8841A6EEB030301209C461EB9C3
:1013B00000215BE73846FAE7C6E9004CF8E7C7F1D9
:1013C000200CBB4022FA0CF51D4320FA0CF12EFA3A
:1013D0000CF30EFA07FE41EA0E014FEA154900FA36
:1013E00007F4B3FBF9F81FFA85FE09FB18300B0C64
:1013F00008FB0EFA43EA00439A4502FA07F240D985
:10140000EB1808F1FF3004D29A4502D9A8F1020086
:101410002B44A3EB0A0389B2B3FBF9F809FB183399
:1014200008FB0EFE41EA03418E452CD9691808F1EC
:10143000FF3304D28E4502D9A8F10203294443EABE
:101440000040A0FB0298A1EB0E014145CE46434669
:1014500002D306D14C4504D2B9EB020E68EB05036A
:101460000138002EA4D0B4EB0E0261EB030101FAA7
:101470000CFC22FA07F34CEA0303F940C6E90031F9
:1014800096E74046C5E74346D9E700000000000064
:1014900008B5642300FB03F3C0F57F600F3093FBB6
:1014A000F0F345F67A0090FBF3F0FFF7C1F804A3E0
:1014B000D3E9002300F008F8FFF7BEFB80B208BDB7
:1014C000000000E01C0001402DE9F04F1D46994648
:1014D00023F000430F4652EA030199B01446064632
:1014E00010D1031887F400227E485241994290415E
:1014F00059D222462B4630463946FEF74DFF19B0E9
:10150000BDE8F08F7849904627F000428A42BB46FA
:10151000EFD882464CD08B4233D800F0B080002FF9
:1015200068DB002C40F0BF8070498B424FD0B5F192
:10153000804F00F05A856E49894500F00B860021E6
:101540000491304627F00041BAF1000F40F0348595
:10155000DFF894C1624500F0E285DFF890C1624592
:1015600075D0002A40F02885B9F1000F68DABBF188
:10157000000F40F02184584619B0BDE8F04F08F044
:1015800025B90BF1404B0BF5801B5BEA0A0BB0D180
:1015900018EB0808534B89F4002949EB0909C345A6
:1015A00073EB0903A5D35149002019B0BDE8F08FB2
:1015B00000289ED193429CD800F0F984002F19DBBB
:1015C000002C40F00D8449498B4240F0A185B9F1CF
:1015D000000F39DA0022002330463946FFF7FAFAC5
:1015E000002840F0AB8532463B4640490020FFF7DB
:1015F000B3F984E73F498B4200F2C4833E498B42F2
:1016000000F20084B8F1000F40F04484B9F1804F3B
:1016100000F0EB843649CDF81080894591D13046F1
:1016200027F00041BAF1000F78D12F4B9A4200F019
:10163000F18403F140439A4216D0002A40F01D86FF
:10164000049B012B7FF45BAF3046394657E7B9F175
:10165000000F05DA02460B4600202449FFF77CF90B
:10166000BBF1000FBFF64BAF049B002B40F0D284C0
:101670003046394619B0BDE8F04F08F0B3B8002C39
:101680007FF47FAF02F1404303F5801303438AD018
:10169000194B9A4240F29C84B9F1000FC0F24A857E
:1016A000204629462BE727F00041002800F09A83C6
:1016B000002604964FF0FF3AB446B3F1844F35D973
:1016C0000E4EB34240F20D840B4B9A4200F2CF848F
:1016D000B9F1000FC0F2CF84002019B0BDE8F04F7F
:1016E00008F060B80000F0FF0000F07F0000F03F5D
:1016F0000000E03FFFFF3F43FFFFEF3F0000F043EC
:10170000CDF81080BE4B9A4200F25685304627F045
:101710000041BAF1000F01D1002A91D0049B4FEA99
:10172000DB7A0AF1FF3A53EA0A03A1D0B54B0BEA80
:101730000303002B00F0C58300271615C2F3130323
:10174000A6F2FF32D719B04A139743F07F5693425F
:1017500046F4401607DDAD4A934240F3B9840137A1
:101760001397A6F5801600220023CDE91023CDE9BA
:101770001623A74B0022CDE9082300273146CDE9E7
:101780000601FEF707FEDDE90823CDE90C01DDE9DE
:101790000601FEF701FE02460B4600209C49FFF7BA
:1017A000DBF80A460146CDE90E1213460246DDE992
:1017B0000C01FEF7A7FF0A460146CDE9021273109D
:1017C000DDE902BC43F0005303F500234FF0000BAA
:1017D000D91962460F4659466346CDE900120020EA
:1017E0005A463946CDE914BC0646FEF78BFF024641
:1017F0000B46DDE90C01FEF7CDFDDDE90823CDE95F
:101800000C0130463946FEF7C5FD02460B46DDE9C0
:101810000601FEF7BFFDDDE90023FEF773FF024678
:101820000B46DDE90C01FEF7B5FDDDE90E23FEF701
:1018300069FFDDE90267CDE9060132463B463046E5
:101840003946FEF75FFF5EA3D3E9002306460F4645
:10185000FEF758FF5CA3D3E90023FEF79DFD324657
:101860003B46FEF74FFF5AA3D3E90023FEF794FD52
:1018700032463B46FEF746FF57A3D3E90023FEF767
:101880008BFD32463B46FEF73DFF55A3D3E90023CF
:10189000FEF782FD32463B46FEF734FF52A3D3E902
:1018A0000023FEF779FD3246CDE908013B4630467C
:1018B0003946FEF727FF02460B46DDE90801FEF731
:1018C00021FFDDE9002306460F46DDE90201FEF7B0
:1018D00063FDDDE90623FEF715FF32463B46FEF7C2
:1018E0005BFD06460F46DDE9000102460B46FEF7AA
:1018F00009FF02460B46CDE90C23464B0022FEF7BA
:101900004BFD32463B46FEF747FDDDE914BCDDE901
:101910000023CDE90EBC58468C46CDE900BCFEF74D
:10192000F1FE3C4BCDE908010022DDE90001FEF7A4
:1019300031FDDDE90C23FEF72DFD02460B46304656
:101940003946FEF727FDDDE90223FEF7DBFEDDE980
:10195000062306460F46DDE90001FEF7D3FE0246E8
:101960000B4630463946FEF717FD06460F4602463F
:101970000B46DDE90801FEF70FFDDDE90EBC1CA3F7
:10198000D3E900235846CDE902BCCDE90001FEF7BA
:10199000B9FEDDE90823CDE90601DDE90001FEF726
:1019A000F9FC02460B4630463946FEF7F3FC12A31B
:1019B000D3E90023FEF7A6FE2EE000BFAFF30080C0
:1019C000EF4E454A287ECA3F65DBC9934A86CD3F24
:1019D00001411DA96074D13F4D268F515555D53F0A
:1019E000FFAB6FDBB66DDB3F033333333333E33FA2
:1019F000000000E009C7EE3FFD033ADC09C7EE3FF7
:101A00000000501E0000F07F8E98030079B60B0096
:101A10000000F03F00000840C3A3D3E900230646BE
:101A20000F46DDE90001FEF76DFE02460B4630462B
:101A30003946FEF7B1FCDDE91623FEF7ADFCCDE932
:101A400000011398FEF7F4FDDDE9002306460F467A
:101A5000DDE90601FEF7A0FCDDE91023FEF79CFCA2
:101A600032463B46FEF798FCDDE902BC324658465A
:101A70003B46CDE90201FEF78DFCDDE91023FEF7C0
:101A800089FCDDE90623FEF785FC02460B46DDE90D
:101A90000001FEF77FFCCDE90601049B013B53EA00
:101AA0000A0300F0F081B44B0022CDE908234FF087
:101AB000000ACDE90A89DDE90A23CDE900230023E4
:101AC0000093DDE90067204632463B462946FEF793
:101AD00061FCDDE90223FEF715FE224680468946B9
:101AE0002B46DDE90601FEF70DFE02460B46404699
:101AF0004946FEF751FC324604460D463B46DDE9B9
:101B00000201CDE90445FEF7FDFD0B460246804685
:101B1000894620462946FEF73FFC984B99420446E9
:101B20000D468B4640F3988101F13F4303F5E003F6
:101B3000034340F0E3827EA3D3E90023DDE90401FF
:101B4000FEF72AFC424606460F464B4620462946EB
:101B5000FEF720FC02460B4630463946FFF762F896
:101B6000002840F0CB824FF400715944C1F30A536E
:101B70008348A3F2FF33C1F31302184142F48012E9
:101B8000C3F1140342FA03FABBF1000F00EA0103A8
:101B90004FF0000240464946B8BFCAF1000AFEF7BE
:101BA000F9FB02460B4680468946DDE90401FEF753
:101BB000F3FB4FEA0A5B0D4600245FA3D3E9002341
:101BC00020462946FEF79EFD424606460F464B46F6
:101BD00020462946FEF7DEFB02460B46DDE90401FE
:101BE000FEF7D8FB56A3D3E90023FEF78BFD56A3DF
:101BF000D3E900238046894620462946FEF782FD28
:101C000002460B4640464946FEF7C6FB80468946DB
:101C100002460B4630463946FEF7BEFB32463B468F
:101C200004460D46FEF7B6FB02460B4640464946C3
:101C3000FEF7B0FB2246804689462B4620462946C1
:101C4000FEF760FD42A3D3E9002306460F46FEF7E8
:101C500059FD41A3D3E90023FEF79CFB32463B46E6
:101C6000FEF750FD3EA3D3E90023FEF795FB324675
:101C70003B46FEF747FD3CA3D3E90023FEF78AFB72
:101C800032463B46FEF73EFD39A3D3E90023FEF77B
:101C900083FB32463B46FEF735FD02460B462046A7
:101CA0002946FEF777FB06460F4602460B462046BE
:101CB0002946FEF727FD0022CDE900014FF08043C1
:101CC00030463946FEF766FB02460B46DDE9000169
:101CD000FEF742FE424606460F464B462046294640
:101CE000FEF710FD42464B46FEF756FB02460B46FA
:101CF00030463946FEF74EFB22462B46FEF74AFB9E
:101D000002460B4600201C49FEF744FB0C465C448F
:101D1000B4F5801FC0F2EE812146DDE90823FEF70D
:101D2000F1FCFFF7ECBB00BFF5015B14E02F3EBEFA
:101D3000FE822B654715973C00000000432EE63FCE
:101D4000EF39FAFE422EE63F396CA80C615C20BEEA
:101D5000D0A4BE726937663EF16BD2C541BDBB3EB1
:101D60002CDE25AF6A56113F93BDBE166CC1663F8F
:101D70003E5555555555C53F0000F03FFFFF8F407C
:101D80000000F0FF304627F00041B8F1000F00F0EE
:101D9000E881BAF1000F40F04681C34EB24213D041
:101DA000C24EB24210D0002A40F00E82B9F1000FAC
:101DB000BFF6A5AB02230493049BA3F10100B0FA84
:101DC00080F04009FFF7D8BBB9F1000FBFF697AB21
:101DD00002460B460020B549FEF7BEFDFFF78FBB5C
:101DE00027F00041B04EB242EED0B04EB242EBD03E
:101DF000002A7FF45DACB9F1000FBFF680AB04920E
:101E0000FFF7B5BB1915A1F2FF31142940F31C816E
:101E1000C1F1340128FA01F000FA01F1884500F01F
:101E2000B381B8F1000F35D1B9F1804F00F00C82C9
:101E3000BAF1000F7FF41CACDFF86CC2624530468B
:101E400027F00041C0D0DFF864C262453FF410AC17
:101E5000CDF81080FFF785BB954E21F00043B342CB
:101E600040F2E980934B0B4403430AD142464B4670
:101E7000FEF790FADDE90423FEF7CAFE00283FF4DE
:101E800072AE504629E48C4B0022CDE908234FF076
:101E9000010A0EE6BAF1000F7FF4EAAB824B9A42D8
:101EA000304627F000418FD0804B9A423FF4E0ABA0
:101EB000002A7FF4DDABB9F1000FBFF620AB04922E
:101EC0007AE700227D4BFEF71DFC6FF034070A46CF
:101ED00033E4B3F1844F4FF0000A7FF627AC4FF0A4
:101EE000010C774B9A42C0F00B81704B9A4200F282
:101EF00029816E4B0022FEF74DFA63A3D3E900233C
:101F000006460F46FEF7FEFB61A3D3E90023CDE9A9
:101F1000000130463946FEF7F5FB6A4BCDE9020178
:101F2000002230463946FEF7EDFB02460B465AA129
:101F3000D1E90001FEF72EFA32463B46FEF7E2FBFE
:101F400002460B4600206049FEF724FA3246CDE9EE
:101F500006013B4630463946FEF7D4FB02460B46A7
:101F6000DDE90601FEF7CEFB4DA3D3E90023FEF722
:101F7000C9FB02460B46DDE90201FEF70BFA0246F9
:101F80000B4606460F46DDE90001FEF705FADDE9DE
:101F900000230020CDE90201FEF7FCF902460B46C2
:101FA00030463946FEF7F6F9CDE9060175E5002C15
:101FB0007FF49FAAFFF76CBBDDF810E04FEADB7CF3
:101FC0000CF1FF3A5EEA0A0E7FF477ABFFF750BBE5
:101FD000B9F1000F4FF000004FF00001BFF68FAADB
:101FE000204605F10041FFF78ABACDF81080374B43
:101FF0009A427FF687AB304627F00041BAF1000FD6
:102000007FF48CAB284B9A427FF488ABBBF1000F76
:10201000BFF675AA049B012B7FF471AA01F100435E
:102020001946FFF76CBA022604964FF0000A4FF0EB
:10203000010CFFF745BB244A934200F21781DDE90A
:10204000002393469246B7E5B8F1000F7FF422AF24
:10205000C1F1140143FA01F000FA01F19942134968
:1020600000F0B8808B423FF4B2AAFFF7CFBAB9F1C3
:10207000000F7FF731AB002019B0BDE8F04F07F03B
:1020800099BB00BFAFF30080000000604715F73F29
:1020900044DF5DF80BAE543E555555555555D53F6B
:1020A000FE822B654715F73F0000F07F0000F03FF0
:1020B000FFCB904000346F3F0000F0BF0000404372
:1020C000FFFFEF3F0000D03F0000E03FFFFFEF5F6A
:1020D00085A3D3E90023CDE9102385A3D3E9002309
:1020E000CDE91623844B0022CDE908234FF4802745
:1020F000FFF744BB524607F0FBFA0EE65046BBE73B
:10210000049BB9F1000F03EA0C00BFF6E6AAB3E79F
:10211000B5F1804F7FF40FAA0023049367E7B9F16C
:10212000000FBFF673AF02460B4600207349FEF75F
:1021300013FC6BE700200021FFF7E1B94FEADB70E9
:10214000FFF71ABA049BB9F1000F03EA0C0093DC05
:10215000FFF7C3BA3046394619B0BDE8F04F07F073
:1021600051BBBAF1000F47D1DFF894C162453FF48B
:102170002BAEDFF888C162453FF426AE4FF0020C6B
:10218000CDF810C0FFF7EDB9B8F1000F3BD1B9F1B0
:10219000804F78D0304627F00041BAF1000F40F070
:1021A0008380DFF85CC1624500F085804FF0020C4F
:1021B000CDF810C0FFF7D1B932463B46304639461C
:1021C000FEF7A0FAFFF79BB9022604964FF0010C28
:1021D000FFF773BA8B423FF4FAA900F00100C0F197
:1021E0000201B9F1804F04913FF401AF454989459F
:1021F0007FF4A7A9FFF713BA0226C24604964FF050
:10220000010CFFF75DBA00F00100C0F1020104917A
:10221000304627F00041BAF1000F7FF45AAEDFF8E4
:10222000E0C0624552D0DFF8D4C062457FF499A97E
:10223000B9F1000FBFF618AA0B4632462F4900200D
:10224000FEF78AFBFFF710BA2F4B9A427FF658AA87
:10225000304627F00041BAF1000F03D1284B9A42D3
:102260003FF44DA9CDF81080FFF758BA1B15A3F223
:10227000FE334FF48011194177E4049B002B7FF467
:1022800055AAFFF7F5B9204B9A421BD9304627F0E3
:102290000041BAF1000F03D1194B9A423FF42FA924
:1022A00002230493FFF73ABA0226C24604964FF07F
:1022B000010CFFF702BAB9F1000FBFF620A9022303
:1022C000049330E702230493FFF71CBAB9F1000F1F
:1022D000BFF6A0AE0B46324608490020FEF73CFB95
:1022E00098E600BFAFF300800000004003B8E23F73
:1022F00006D0CF43EBFD4C3E0000F83F0000F03F1E
:102300000000F07F0000E03FFFFFEF5F70B582B09C
:10231000414809F09CFA00285ED03F4883681B685A
:102320003E49984700285DD13B4809F090FA0028C3
:102330005ED0394883681B683949984700285DD1C9
:10234000384805F0C5F9384D4FF0FF324FF0FF33F4
:10235000284605F0E7F8354B354C364A92E803003D
:102360008DE803000CCB94E8030000F011FD044657
:10237000284605F057F9002C46D14FF0FF344FF0B6
:10238000FF35294E22462B46304605F0CBF8072074
:1023900000F0B2FC00F0E6FC7321002000F0CCFC61
:1023A0007721012000F0C8FC7921022000F0C4FC54
:1023B0006D21032000F0C0FCED21042000F0BCFCE6
:1023C000304605F02FF91C4805F082F920462946D1
:1023D00005F0B4FD02B070BD184A0221184808F09B
:1023E0003AF99AE7174A0221154808F034F99BE7B1
:1023F000124A0221124808F02EF99AE7114A0221E6
:102400000F4808F028F99BE723460F4A02210C48A1
:1024100008F02BF9B1E700BF24C2000896D50008E8
:1024200086D50008B00200207C010020A8D5000855
:10243000B0D50008A0D500085002002000C7000851
:102440007CC6000814C7000830C7000830B583B048
:1024500000254FF0FF324FF0FF33384805F074F994
:1024600013E0374805F034F9364C204609F035FAC8
:102470000022002301A9204609F00EFA322007F0BD
:10248000A0FA019D162007F09CFA002200232E4896
:1024900005F05AF90028DCD02C4C4FF0FF324FF0F9
:1024A000FF33204605F03EF800F058FD019020462D
:1024B00005F0B8F8019B002BE3DDAB42E1D0022B25
:1024C0000BD0032B21D0012BDBD1002200231C4891
:1024D00005F03AF90028C7D0C3E7002200231848C6
:1024E00005F032F968B9174C204609F0F6F90022D8
:1024F000002301A9204609F0CFF9322007F061FA44
:10250000BFE70F4805F0E4F8EDE7002200230C4890
:1025100005F01AF968B90B4C204609F0DEF90022E3
:10252000002301A9204609F0B7F9322007F049FA43
:10253000A7E7034805F0CCF8EDE700BF5002002004
:1025400080020020C0010020C80200207C01002081
:102550002DE9F04F8DB000AF514809F078F9C8B1BE
:1025600040F2EA73FB610823BB611F237B611223E6
:102570003B610023FB60BB60494883681B6807F12F
:102580000801984700283BD0464A0221464808F0F7
:1025900062F835E0454A0221434808F05CF8DFE77D
:1025A000434A0221404808F056F831E06FF00040FD
:1025B0004BE0232870DD24213AB109203871002036
:1025C0007871B871F8717868186124F0010424F00A
:1025D000020424F0040424F03804042363F3881470
:1025E000C1F30A0161F35324C4F313040023214609
:1025F0002D4801F0EBFDAD464FF47A7007F0E1F99C
:10260000274883685B6807F1080198470028C7D10D
:10261000284D284609F061F90022002307F108013E
:10262000284609F039F9D7F814A0D7F81890D7F848
:102630001C80D7F810E0D7F80CC0BE686D468EB08D
:102640006B4613F11002B1D02420002AB1D001460C
:10265000042803DDDFF860B0C3F814B0082903DDF7
:10266000DFF858B0C3F818B00C2901DDC3F81CA07E
:10267000102901DDC3F82090142901DDC3F824805E
:10268000182901DDC3F828E01C2901DDC3F82CC09E
:1026900020298EDD1E638CE76FF01B018CE700BFE5
:1026A000D0C100086CC700087CC6000858C70008E5
:1026B00084C700089001002098C7000870D5000862
:1026C0002DE9F0418EB000AF0025FD613D627D62D5
:1026D000BD62FD6207F136037B620222BA62BD6011
:1026E000FD603D617D61BD6107F134033B617A614D
:1026F0002E464FF0FF324FF0FF335A4805F024F8D2
:102700003BE0594A0221594807F0AFFF4DE0564AD5
:102710000221564807F0A9FF56E06FF000418EE015
:102720000B2940F39C800C213AB103203871002022
:102730007871B871F8717868186124F0010424F098
:10274000020424F0040424F03804042363F38814FE
:10275000C1F30A0363F35324C4F313040023214693
:10276000424801F033FDC546414804F0B1FF4148FD
:1027700004F0AEFF322007F024F9002200233D4888
:1027800004F0E2FF0028B4D001233B620C2387F859
:102790002C30002387F82D30374883685B6807F1B9
:1027A0001C01984703460028ABD10223FB600C2391
:1027B0003B7600237B76304883685B6807F108012D
:1027C000984703460028A2D1B88EFEF70FFB2B498D
:1027D000FEF760FB80463046FEF708FB2849FEF70F
:1027E00059FB01464046FEF74DFAFEF7A3FC86B2C0
:1027F0007E86F88EFEF7FAFA2049FEF74BFB8046FC
:102800002846FEF7F3FA1E49FEF744FB0146404610
:10281000FEF738FAFEF78EFC85B23D8600220023D3
:1028200007F13001174809F037F80028A2D0E84630
:1028300088B06B4613F110023FF46FAF0C21002AF1
:102840003FF46EAF0846042903DDDFF83CC0C3F84F
:1028500014C008287FF764AF0C48986160E76FF0F8
:102860001B0161E7B0020020B0C700087CC6000869
:10287000680200201003002024C20008CDCCCC3D0B
:102880006666663F20020020C8C7000864D50008BD
:102890002DE9F04198B000AF4FF0FF324FF0FF3319
:1028A0006C4804F051FFC4E00022002307F134011A
:1028B000694804F0C7FDBA8E07F1600303EB4603D5
:1028C00023F8142CFA8E23F8282C0136092EEBDD80
:1028D0006E4688B06B4613F1100236D00C2152B10F
:1028E0000846042903DDDFF874C1C3F814C00828C2
:1028F00001DD5B4898610B292ADD0C213AB10320E8
:10290000387100207871B871F8717868186124F016
:10291000010424F0020424F0040424F03804042305
:1029200063F38814C1F30A0161F35324C4F313045D
:10293000002321464B4801F049FCB5464A4804F0C3
:10294000C7FE00221346114612E06FF00041C6E7B1
:102950006FF01B01D2E707F1600000EB420030F896
:10296000146C314489B230F8280C03449BB2013214
:10297000092AF0DD3D4AA2FB0101C1F3CF01A2FB10
:102980000323C3F3CF0339817B81E8468AB06E46C7
:1029900016F1100257D01420AAB18446042803DD92
:1029A000DFF8CCE0C6F814E0BCF1080F03DDDFF877
:1029B000B0E0C6F818E0BCF10C0F00DDF161BCF12D
:1029C000100F00DD3362132840DD14233AB10521D6
:1029D000397100217971B971F9717868306125F028
:1029E000010525F0020525F0040525F03805042130
:1029F00061F38815C3F30A0363F35325C5F3130585
:102A000000232946174801F0E1FBC54607F10C01F8
:102A1000184808F049FF184E304608F05EFF0022C3
:102A2000002307F10801304608F036FF134804F090
:102A30004FFE00220023114804F086FE00283FF4D8
:102A40002BAF002642E76FF00040A5E76FF01B03B5
:102A5000BCE700BF6802002020020020E8C7000891
:102A600058D500087CC60008B0020020CDCCCCCCE4
:102A700004C8000890010020F0010020E0020020BE
:102A800008B5FEF7B3F90549FEF7B8FA4FF07E51E5
:102A9000FEF7F6F8FEF74EFB80B208BD14AE134207
:102AA00030B58DB000244FF0FF324FF0FF33264891
:102AB00004F04AFE1EE0BDF90400FFF7E1FF044602
:102AC000224D4FF0FF324FF0FF33284604F02AFD2D
:102AD00000F048F9204600F005FA284604F0A2FD6F
:102AE00023461B4A03211B4807F0BFFD4FF47A70B1
:102AF00006F067FF00220023174804F025FE002897
:102B0000D1D06946154808F0CFFE01A9144808F055
:102B1000CBFE009B022B04D0032B08D0012BCFD17E
:102B2000C9E7BDF90600FEF7B3FC0446C8E7039CFD
:102B3000642303FB04F4049B42F2107202FB03447F
:102B4000029B1C44BCE700BF800200207C010020E7
:102B50001CC800087CC60008F8020020C001002044
:102B6000F001002070B506464FF40031104806F021
:102B700060FF002519E00F4C0022217BA06806F0C1
:102B800091FF46FA05F202F00102217D206906F06C
:102B900089FF012008F032FE0122217BA06806F0A7
:102BA00081FF012008F02AFE0135072DE3DD70BD0D
:102BB000880700207807002070B505460E46144CA3
:102BC00000222179206806F06DFF4420FFF7CAFF3C
:102BD00001222179206806F065FF012008F00EFE31
:102BE00000222179206806F05DFF05F00F0040F01B
:102BF000C000FFF7B7FF3046FFF7B4FF012221798D
:102C0000206806F04FFF322008F0F8FD70BD00BFCD
:102C10007807002070B54FF48031144806F009FFA2
:102C200000252E4609E0124B0122197B986806F018
:102C300039FF012008F0E2FD0135072D13DC0C4CB3
:102C40000022217BA06806F02DFF012008F0D6FDB0
:102C5000217D206906F004FF0028E4D00123AB4069
:102C60001E43F6B2DFE7304670BD00BF8807002084
:102C70007807002010B582B01E4B00221979186821
:102C800006F010FF4220FFF76DFF002407E0FFF77A
:102C9000C1FF04F108036B4403F8040C0134032C56
:102CA000F5DD144C01222179206806F0FBFE4FF47B
:102CB000003104F1100006F0BCFE0023184600E0CD
:102CC0000133032B14DC03F108026A4412F8042CCC
:102CD00012F0010F03D0012199400843C0B212F055
:102CE000100FEDD0191D01228A401043C0B2E7E752
:102CF00002B010BD7807002038B50E4B1B7E9BB18B
:102D00000446072813D80B4D00222979286806F0BD
:102D1000C9FE44F08800FFF725FF012229792868C1
:102D200006F0C0FE002038BD6FF00400FBE76FF036
:102D30001500F8E77807002008B5094B1B7E43B162
:102D4000072809D8400000F0FE00FFF735FF0020FB
:102D500008BD6FF00400FBE76FF01500F8E700BF57
:102D600078070020094B1B7E13B110B5002408E042
:102D70006FF00400704700212046FFF71DFF01346B
:102D8000E4B20F2CF7D9002010BD00BF7807002057
:102D900030B585B00DF1080C8CE80300CDE90023B7
:102DA0003D4A9CE8030082E8030002F10805DDE9E2
:102DB000000185E8090002F1100308A903C983E8AE
:102DC0000300002414765476947609F00AF8431828
:102DD00059D22344314AA2FB034525F0030404EBF6
:102DE00095041B1BC01A61F100014FF0CC3300FBAE
:102DF00003F302FB0133A0FB02021344400840EA44
:102E0000C3705B08244A10625362106808F01FFD0B
:102E100000283AD0204B986808F019FDA8B31E4B43
:102E2000186908F014FD80B31D4806F056FF1A4DCE
:102E30004FF4D011284606F0FCFD0446194806F070
:102E40004CFF4FF4D01105F1080006F0F2FD0443E9
:102E5000154806F042FF4FF4D01105F1100006F0BE
:102E6000E8FD0443114806F038FF8CB901222A76A8
:102E7000FFF778FF0E4806F030FF0420FFF73CFF15
:102E8000204605B030BD0124A3E76FF01204F7E738
:102E90006FF00404F4E700BF78070020CDCCCCCC61
:102EA0007CC8000880C8000884C8000888C80008DA
:102EB0008CC800080A4B1B7E13B110B500240AE031
:102EC0006FF0040070476000002100F0FE00FFF783
:102ED00073FE0134E4B2072CF5D9002010BD00BF09
:102EE00078070020194B1B7E53B370B50446184B6E
:102EF000984223D8FFF7DEFF0725164BA3FB0423D8
:102F0000DB081E4603EB8303A4EB4303124AD15CA8
:102F10002846FFF711FF23463446013D092B12D9FD
:102F2000002DEADA002070BD40212046FFF704FFA3
:102F30000134072CF8DD6FF01500F4E70024F8E702
:102F40006FF0040070470020EDE700BF7807002015
:102F5000FFE0F505CDCCCCCCB8D500082A4B1B7EC4
:102F6000002B4CD010B5FFF785FE044608F039FF62
:102F7000034600205A182FD202442448A0FB02CE58
:102F80002EF0030C0CEB9E0CA2EB0C029B1A61F1D1
:102F900000014FF0CC3203FB02F200FB0122A3FB45
:102FA000003002445B0843EAC273520819461648CF
:102FB000407EA04212D014494C760B624A62124BFA
:102FC0009A7EFAB10020072817DC22FA00F313F0EA
:102FD000010F10D10130F6E70120CDE70A48036A5E
:102FE000406AC91A62EB00021E2972F10002E6DB98
:102FF000054B9C76E3E7013000E0002010BD6FF048
:10300000040070470020F9E778070020CDCCCCCC35
:103010002DE9F04F91B005920393134602F004029C
:103020000092C3F3C20210F00303019340F01B822D
:10303000074689460132041D002848D0072940F27E
:103040001582039B5D1EDDF804B0CDF810B0CDF8FD
:1030500018B000264FF0FF3A4FF00408CDF808B042
:10306000C3460FB1039B2360531E0793002A40F30E
:103070005D81059B13F0020226D00120E11B8B0825
:103080001AB1B1F5007F80F0F78102990F2900F2A3
:10309000F681002F00F05B81DBB201F140026A444F
:1030A00002F8103C02F820AC002800F04C8163F0DC
:1030B0007F0301F140026A4402F8103C049B013393
:1030C0000493029B01330293043400223EE001F09A
:1030D00007031C44C3F10809B3E7002635E00026C6
:1030E00033E0002631E04FF00808C3462DE02529E3
:1030F0002BD10AF1010A01264FF00408C34624E04F
:103100004729ECD82A2912D32A39C9B2012000FA5A
:1031100001F14FF6DA70014217D111F0625F40F011
:10312000C38011F0010F40F08D8000260DE02529AD
:1031300003D10AF1FF3A002607E0D2D8202904D0B3
:10314000232902D0002600E000261D466B1C69786A
:10315000002900F01581002EC9D07A29BDD84C294C
:10316000CED34C392E29EFD801A050F821F000BF62
:103170004B31000849310008493100084931000845
:103180004931000849310008493100084931000837
:103190004931000849310008493100084931000827
:1031A0003D32000849310008493100084931000822
:1031B0004931000849310008493100084931000807
:1031C00049310008A9320008493100083D320008A1
:1031D0003D320008A9320008A9320008A9320008CF
:1031E0004B3100083D320008E73000084931000843
:1031F0004B31000849310008073300083D32000810
:10320000073300084931000849310008113300082C
:10321000353200083D3200084931000849310008C4
:103220003D320008493100082D3200084FF00408F3
:10323000C3468AE74FF00408C34686E729786C291D
:1032400024D000264444013CB4FBF8F408FB04F409
:1032500027B1E11B5944494500F20B81002A5DD199
:10326000BBF1040F00F08480BBF1080F40F00A812D
:103270001A99073121F0070101F108001A90D1E9EC
:1032800000010FB1C4E9000108345EE713F8021C25
:103290006C2904D000264FF00408C346D2E700266C
:1032A0004FF00808C346CDE729784C291BD01A995E
:1032B000073121F0070101F108001A90D1E900015E
:1032C000073424F0070447B1E61B08364E4514D8EE
:1032D0002D784C2D14D0C4E90001083400264FF09D
:1032E0000808C34631E71A99073121F0070101F1B7
:1032F00008001A90D1E90001E2E76FF01B00AFE08F
:10330000C4E90001E9E700264FF00408C34699E745
:10331000324600264FF00408C34693E71A9A111D5F
:103320001A9112680392079A1D469AE65B4B039A1C
:103330009A4203D35A4B9A42FFF49BAE059B03F08B
:10334000020200209AE6069B01330693B9E610B10B
:1033500009F10109B5E6009B13B109F10209B0E6D4
:103360000398FCF70DFF09EB000303F10209A8E63F
:103370001A99081D1A90096807B121600434E4E61F
:10338000DDF808B0E31BB3F5806F7ED287B1002271
:103390003A609B083B70009B73B1069BFB70049BDB
:1033A000BB700BBB019DDDF810A0DDF80C803AE08E
:1033B0004B44A3F1080053E0069B7B70EFE7013319
:1033C0009B45EFD903F140026A4412F8101C12F930
:1033D000102C002AF3DA01F07F01E21B01324A458A
:1033E00056D804F8011BEAE7019BE9E7009B3BB3D1
:1033F00005F140036B4413F8203C04F8013B019EA7
:10340000E31B334401334B4545D805F140036B447E
:1034100013F8103C04F8013B324641462046FCF7C5
:103420001BFF34440135AB4519D9BAF1000FDDD08B
:1034300005F140036B4413F9103C002BD6DAF1E799
:1034400005F140036B4413F8103C57F82380002229
:1034500047F823204046FCF793FE461CD0E7E01BCC
:1034600011B0BDE8F08F6FF00D00F9E76FF01B00B1
:10347000F6E76FF01B00F3E76FF01500F0E76FF071
:103480001500EDE76FF01500EAE76FF01500E7E7CC
:103490006FF01B00E4E76FF01B00E1E7E4BF0008FA
:1034A0002CDB00082DE9F04F97B000AF8346BA61DE
:1034B0007B61D7F88030C3F3C0033B62F96011B978
:1034C00006F083FBF8609BF80260B14636B1D7F88E
:1034D000803013F0010F29D1002300E000239BF876
:1034E00003207A6222B1D7F8802012F0020F00D1B7
:1034F000F3B19BF80050AA00BA60DBF804203A61EF
:103500000BEB8505BA69FAB1002B40F00581B9F1E2
:10351000000F00F00F81D7F8803013F0040F00F097
:103520000C81FE61002607F13400F9E00123D6E7A3
:10353000BB691BB17A69F96858469847FC68204610
:103540005C37BD46BDE8F08FFC68E3B94D4400230D
:103550007B6123E00444013501364E451AD22A78B6
:1035600000235BF822201946B86906F043FBBAF144
:10357000000FEFD0D7F888309845EBD22AF8180022
:1035800008F10108E6E70026C7F81C80B046D7F826
:1035900084A0E2E7C7F81480D7F81C80D7F8803001
:1035A00003F00503FB604FF0000AA146C7F81CB00A
:1035B0009CE000253B6A7BB9002D79D0D7F880309C
:1035C00013F0010F79D1FB68002B6FD10223A9EB17
:1035D000030988E00125EDE75946386906F050FBFC
:1035E0000028E9D06C46002387F82C30022387F8A6
:1035F0002D308AB0694611F1100237D012251AB168
:10360000042D01DDB14B4B61002387F828300223E4
:1036100087F829306ABB112D45DD122362B10420E1
:1036200087F82C00002087F82D0087F82E00012055
:1036300087F82F00F86A086128F0010828F00208CE
:1036400028F0040828F03808022161F38818C3F331
:103650000A0363F35328C8F31308002341469C4828
:1036600000F0B4FDA546A9F102093CE06FF0004569
:10367000C5E72B46082D01DD386988610C2B01DD7B
:10368000C1F81CB001F12003002009E000F1300C6A
:1036900007F1280EF4441CF830CC03F801CB0130BC
:1036A0000128F3D9B7E76FF01B03B7E701238EE7D3
:1036B000D7F8803013F0020F15D0002322461946A8
:1036C000B86906F097FAD7F8843053B17B69D7F818
:1036D0008820934205D2D7F8842022F813000133C2
:1036E0007B61013881440AF1010A35467B6A9A45BB
:1036F00010D22E4616F802BB6B78FA6952F82340B6
:10370000744B9C42FFF455AF734B9C42FFF462AF85
:1037100000254FE74C4612E707F144000023FB6108
:103720004A462946FCF798FD4D444FF00008C7F87B
:1037300004901BE00026FE61F6E70026FE61F3E739
:1037400000253B6A33BB002D3BD0D7F8803013F007
:10375000010F26D0731C06F1300207F1280156181C
:1037600006F8149CDEB208F1010825467B6A9845EC
:103770004AD22C4614F802AB95F801905BF8293038
:10378000544A9342DCD3544A934201D30025D8E7EC
:103790000125D6E75146386906F072FA0028D2D0E2
:1037A000E1E7D7F8803013F0040FDCD0FA69531C3E
:1037B000303207F128010A4402F8249CDBB2FB6195
:1037C000D1E7D7F8803013F0020F09D0731C06F14F
:1037D000300207F12801561806F8149CDEB2C2E741
:1037E000F869431C00F1300107F128028A1802F839
:1037F00024AC02460232D2B2FA6107F1580252FA00
:1038000083F303F8249CAEE7D7F804909BF80030CC
:1038100087F854309BF80130334487F85530D7F897
:10382000803013F0020F0ED1FB69C3F3470387F812
:103830005730D7F8803013F0010F06D113F0040F82
:103840003ED1002302E00023F1E7002387F8563041
:10385000DBF800003863786DCBF80000D7F81480EF
:103860004246B9685846D7F818A0D047041EFFF65C
:1038700066AE386BCBF80000C7F814804246F96991
:1038800007F13400D04700285FDB04EB0008B9687B
:1038900049447B6A01EB4301D7F814904A46FB6820
:1038A000591A2846D047041EFFF649AE08EB040516
:1038B0004FF00008C7F824B0B3465446CA4622E089
:1038C000FB69C3E74FF000090AE000BF98C8000891
:1038D00034C60008E4BF00082CDB00084FF00009E4
:1038E0005246012107F12C00A04700282FDB054498
:1038F0004B4632465146204606F07CF9002828DB2C
:10390000054408F10108D84518D208F1300307F141
:103910002802134413F8143C87F82C307A6A52F8C2
:103920002360D7F88430002BCCD0D7F88830984566
:10393000D4D2D7F8843033F81890D1E77A690021CF
:103940000846BB6998472C46F9E50446F7E5044666
:10395000F5E50446F3E500BF014B1860704700BF72
:10396000C000002080B505460E461746984604F074
:1039700045FB034601F0F8FC0446DFF8189049F8CF
:103980000030424639463046A84754F8090001F055
:1039900075FC00BF08000000034A536823F00203CF
:1039A00053600020704700BF002004E008B50B46BC
:1039B00041680C31012B14D00AD833B90F4B9B68E6
:1039C0005B68C3B10D48984707E06FF0850004E0DD
:1039D000023BDBB2012B01D8002008BD6FF085004F
:1039E000FBE7064B9B681B6813B104489847F4E754
:1039F0006FF05700F1E76FF05700EEE79CC000084A
:103A000008B5024906F07EFC08BD00BFAD390008CC
:103A100010B5192808D8064B53F82040204607F067
:103A200016FF18B1204610BD0024FBE70024F9E77B
:103A300064D60008EFF31182102383F31288BFF3DA
:103A40006F8F0B4B1B684BB90A490B6843F48073AB
:103A50000B60084B1B6813F4807FFAD004490B6895
:103A600001330B6082F31188BFF36F8F704700BF83
:103A70004C1000200070004010B5EFF311841023AB
:103A800083F31288BFF36F8F144B1B68A3B9144BD9
:103A90000122BFF35B8F53E8001F002903D143E8E5
:103AA00000200028F7D1BFF35B8F0BD10D4A022114
:103AB0000D4806F0D0FD05E0012B08D0074A136839
:103AC000013B136084F31188BFF36F8F10BD074A69
:103AD000136823F480731360F0E700BF4C100020DC
:103AE00048100020DCC900088CC6000800700040A7
:103AF000084B1A6842F480721A601A6842F4007225
:103B00001A601A6842F480621A60034B034A1A6012
:103B1000704700BF003C0240080100200024F40070
:103B200038B505460B4C00E010340B4B9C420FD2CD
:103B300063685B79002BF7D02946204606F0DFFC4E
:103B40000028F1D023681B68294620469847EBE7F8
:103B500038BD00BFA4C60008B4C6000870B506464C
:103B60000D46084C00E01034074B9C4208D22368F5
:103B70009B69002BF7D02A46314620469847F2E74A
:103B800070BD00BFA4C60008B4C6000808B508F0A0
:103B900028F90022431819D213440D4AA2FB03CE80
:103BA0002EF0030C0CEB9E0CA3EB0C03C01A61F17E
:103BB00000014FF0CC3300FB03F302FB0133A0FB09
:103BC00002021344400840EAC37008BD0122E3E743
:103BD000CDCCCCCC2DE9F041074605460AE007EAFA
:103BE0000807144B03EB06135B6804221968204690
:103BF00006F0C5FCD5B195FAA5F6B6FA86F60D4CD9
:103C000004EB06140123B3406FEA030825EA030519
:103C1000237B002BEED03301064AD3581B69002BBF
:103C2000DDD0204698470028E4D1D8E73846BDE8E3
:103C3000F08100BFA4C600082DE9F04180460F4680
:103C40001F4BBFF35B8F53E8005F6A1C43E8002102
:103C50000029F8D1BFF35B8F6DBB1A4C002607E03B
:103C6000636804221968204606F089FC0136103486
:103C7000154B9C4211D2237B002BF7D0204606F037
:103C800032FC23681B69002BEAD0204698470028A5
:103C9000E6D00123B3401D43E8E7B8F1000F0BD095
:103CA00055B12846FFF796FF0546002FF8D00A20A9
:103CB00006F027FCF4E700252846BDE8F08100BFA8
:103CC00064100020A4C60008B4C6000808B5064B5E
:103CD000186018B1054B1B68092B00DC08BD0448AF
:103CE00003F0F6FCFAE700BF581000206010002037
:103CF0009802002008B5024803F0EAFC08BD00BFA6
:103D00009802002030B589B000220F490F4808F012
:103D10006CF80F4D00220023CDE906230024049403
:103D20000E2303930294019400940A4B4FF44072C3
:103D30000949284607F085FE0849284603F03AFD60
:103D4000204609B030BD00BFF53C0008600C0020E3
:103D5000A0070020F5400008401F00201CCA0008F2
:103D6000014B53F820007047E0D6000848B108B571
:103D7000054A1060054B1960084600F021FD00203F
:103D800008BD6FF015007047C400002054100020DB
:103D900008B5054B1B781BB1034B01221A7008BDF7
:103DA000024803F095FCF7E78411002098020020F8
:103DB00008B5104BBFF35B8F53E8001F013143E898
:103DC0000012002AF8D1BFF35B8F30B90A4804F023
:103DD00099FC0A4803F07CFC08BD094BBFF35B8FDC
:103DE00053E8001F013943E80012002AF8D1BFF35D
:103DF0005B8FEBE75C100020600C00209802002035
:103E000060100020064B0022BFF35B8F53E8000FC9
:103E100043E800210029F9D1BFF35B8F704700BF51
:103E20005C10002038B5FFF7EDFF0546094C00E0B7
:103E30001034094B9C420BD263685B79002BF7D09E
:103E400023685B68002BF3D0294620469847EFE7AC
:103E500038BD00BFA4C60008B4C60008034B1868EC
:103E60000028D4BF00200120704700BF5C10002054
:103E700010B5044C0449204606F092F8034B1C6030
:103E800010BD00BF38010020CCD600085010002023
:103E900008B500230C4A13700C4A13600C4A1360D7
:103EA0004FF47A710B48FFF761FFFFF7E1FF0A4A11
:103EB00006E0094BD31A1B11013351680B71103204
:103EC000064B9A42F5D308BD851100205C100020F6
:103ED000601000208D3B0008A4C60008B4C600088E
:103EE00008B50146014806F01CFB08BD380100205A
:103EF00008B5024806F037F908BD00BF38010020B8
:103F000008B50146024B186806F011FB08BD00BF5A
:103F10005010002008B5024806F00DFB08BD00BF98
:103F20003801002010B582B000220023CDE9002323
:103F3000304B187808B902B010BD684606F013FB84
:103F4000044680B1FFF7ECFD2046FFF7D9FF2A4B6E
:103F5000BFF35B8F53E8001F013943E80012002ACA
:103F6000F8D1BFF35B8FFFF779FF70B9234A13686D
:103F7000516813F57A7341F1000113605160A4B3E5
:103F8000FFF7C8FF98B30120D5E707F02AFF00220A
:103F9000431828D213441A4AA2FB03CE2EF0030C76
:103FA0000CEB9E0CA3EB0C03C01A61F100014FF067
:103FB000CC3300FB03F302FB0133A0FB02021344EA
:103FC000400840EAC3705B080C490A684968801AD7
:103FD00063EB010340F2E932904273F10003C5D371
:103FE000FFF720FFC2E70122D4E70020A3E700206B
:103FF000A1E700BF8411002060100020580C0020B1
:10400000CDCCCCCC0F4B1B7803B1704710B5002141
:104010000120FFF711FE0C4C00E010340B4B9C42CA
:1040200008D263685B79002BF7D023689B68204631
:104030009847F2E7FFF776FF0028FBD1014B0122FA
:104040001A7010BD85110020A4C60008B4C600086F
:1040500010B582B01A4BBFF35B8F53E8002F511C91
:1040600043E800100028F8D1BFF35B8F154B1B7895
:1040700063B9154B1B68B3B1BAB1092A13D1134800
:1040800004F040FB124803F023FB0CE0EFF3118433
:10409000102383F31288BFF36F8FFFF743FF84F37E
:1040A0001188BFF36F8F02B010BD00220023CDE94D
:1040B000002342F210720023044804F0E9FAF2E708
:1040C000601000208511002058100020600C002096
:1040D0009802002010B50446044B1B689847A06066
:1040E0002146034806F043FA10BD00BFC40000207B
:1040F000380100202DE9F04100210846FFF79CFD22
:10410000804650B14FF4FA76002701F02DF9154B97
:104110001858FFF7DBFD002515E04FF0FF364FF094
:10412000FF37F2E74046FFF755FD804670B94FF084
:10413000FF364FF0FF3709E02C4632463B460A482F
:1041400003F002FB2546B8F1000FEBD1FFF7EAFEC2
:1041500004460028F6D1002DEED000210846FFF7D6
:10416000FDFCEAE708000000980200200248034B2B
:10417000C01AC008704700BFA4C600082CC60008BB
:1041800010B50C46FFF7F2FFA04203D9024B53F8DB
:10419000340010BD0020FCE72CC6000800B589B033
:1041A000059206930023079362B1074A0C9B029382
:1041B0000B9B01930A9B009305ABFFF773F909B0C2
:1041C0005DF804FB0022F1E795A500082DE9F04F0A
:1041D0008BB004AF05461E468846C1F34A24002C26
:1041E00000F0898091460022FA603A617A610423E6
:1041F0000293FB1801930A23009307F10C03214655
:104200004846FFF74FF9B0F5006F58D3D9F80410BE
:104210006D4600233B7302237B738AB004AC14F118
:10422000100217D012201AB1042801DD3B4B636144
:1042300000233B7002237B70CAB10346082800DDCF
:10424000A1610C2B02DD40F2FF73E36104F1200356
:1042500000210AE06FF00040E5E701F118063E4456
:1042600016F8186C03F8016B01310129F5D91128F2
:1042700022DD122342B10421397300217973B9730D
:104280000121F973F8682061002121F0010121F07A
:10429000020121F0040121F03801022060F38811AD
:1042A000C3F30A0363F353210023C1F313011C4832
:1042B00006F0F3F9AD462DE06FF01B03DAE760F38B
:1042C0005328C0F30A0A0AEB1850173020F00700F1
:1042D0008008FFF705FE8346B0B104230293FB1864
:1042E00001930A230093534600F1100221464846E9
:1042F000FFF754FF08E004EB1154173424F00704CF
:10430000A008FFF7EDFD834633464246294658464E
:1043100006F059F91C37BD46BDE8F08F34CA0008D5
:1043200044C600082DE9F04F85B081460E46904600
:104330001F46DDF838B0DDF840A0BAF1000F41D0DB
:10434000119B0393009353460F9A10210020FEF710
:104350005FFE0546B0F5006F2CD20BEB0500173061
:1043600020F007008008002424F0010424F0020457
:1043700024F0040469F3C50468F3881465F3532436
:104380006BF31F54FFF7ACFD804650B11030BAF10B
:10439000000F06D0119B009353460F9A2946FEF753
:1043A00037FE3B4622463146404606F00CF905B042
:1043B000BDE8F08F40F2FF73034A0221034806F084
:1043C00054F9F4E70025C8E774CA000844C6000899
:1043D000406820B1034BC01A40F3CF0070474FF044
:1043E000FF3070472CC600080EB400B582B00146FD
:1043F00003AB53F8042B0193034801F0BDF802B05E
:104400005DF804EB03B07047D1A6000810B584B086
:1044100011F0440F05D01A4B1B6833B9002004B0CB
:1044200010BD1849FFF7E0FFF9E717490968B2FB2B
:10443000F1F2B2FBF3FC03FB1C224FF47A7E0EFB7D
:1044400002F2B2FBF3F403FB14210EFB01F1B1FB0A
:10445000F3F10E4AA2FB0C32D20A4FF4616303FB64
:1044600012CC0B4BA3FB0CE35B0902910194C3EB51
:104470000311ACEB810100910649FFF7B5FFCEE7D0
:104480006C100020ACCA000868100020C5B3A291CF
:1044900089888888B8CA000861B108B52AB1064A77
:1044A00052F8232012B9054A00E0044A0449FFF7F4
:1044B0009BFF08BD704700BF18D70008D4CA00088A
:1044C000DCCA00082DE9F04105461746079EDDF8D5
:1044D000208081B900242EB1324611492846FFF7C9
:1044E00083FF0444B8F1000F14D06FB10B9B042B71
:1044F00013D00C4909E00C4B0B9A53F822200B49BE
:10450000FFF772FF0446E6E7064942462846FFF7F2
:104510006BFF04442046BDE8F0810549F5E700BF84
:10452000F4CA0008E4CA00082CD70008ECCA000846
:10453000E0CA00082DE9F04F89B005460C46069206
:1045400007939DF8587001F0020B01F0010AC1F3C6
:10455000C00801F4807906F010F838B30246184913
:104560002846FFF741FF0646BBF1000F20D13A462F
:104570005146284606F0D7F8B9F1000F01D00023C4
:10458000139305979DF854300493149B0393139B46
:104590000293129B019300230093069A41462846FA
:1045A000FFF790FF304409B0BDE8F08F0026DBE74D
:1045B000079A21462846FFF729FF0644D7E700BFA0
:1045C000F8CA000811F0100F0BD108B511F0200F38
:1045D00003D00449FFF708FF08BD0349FFF704FFB4
:1045E000FAE77047FCCA000800CB00082DE9F0414B
:1045F00005460F46164698460699FFF7E3FF002446
:1046000004E025492846FFF7EFFE01344445F8DB76
:10461000002409E020492846FFF7E6FE0BE01F4989
:104620002846FFF7E1FE01340F2C0CDC002C02DDE4
:1046300014F0070FEED0B442F1D23A5D1849284683
:10464000FFF7D2FEEFE717492846FFF7CDFE00241B
:1046500009E011492846FFF7C7FE0BE0124928463A
:10466000FFF7C2FE01340F2C13DC002C02DD14F026
:10467000070FEED0B44207D23A5D0C4B9B5C13F0AF
:10468000970FEBD12E22E9E703492846FFF7ACFE4E
:10469000E8E7BDE8F08100BF04CB000810CB0008BC
:1046A00008CB000814CB000818CB00082CDA00084F
:1046B0002DE9F04186B004469DF838500F9F119EB9
:1046C00095B9012B21D01A484FF0000827B13B467D
:1046D0002246184905F0A4FADEB91DBB204605F0B4
:1046E000E0FF06B0BDE8F08104959DF8340003902A
:1046F0000C980290019300920B46002212992046DA
:10470000FFF718FF80460C48E0E70B484FF0000821
:10471000DCE7129B0093434632461099204606F090
:104720001AF8DAE72A461299204606F008F8D5E783
:1047300009A7000879550008D1A600082DE9F04323
:1047400083B00646056842F20F738B4228BF0B46C2
:10475000184A0521684604F03FFA04467368D3F806
:1047600004900B27DFF8508005E04A463946404662
:10477000A8473F1A8044002FF7D17368D3F804800C
:104780006F4605E0424621463846A847241A0744AA
:10479000002CF7D173685F681B24084E05E03A4689
:1047A00021463046A847241A0644002CF7D103B00E
:1047B000BDE8F0831CCB00080CD70008F0D6000839
:1047C000074B01221A6004E04008054A13685B00A9
:1047D0001360044B9842F7D8034B1860704700BF32
:1047E0006810002040420F006C10002070B5064693
:1047F0000D46002405E0315D044883685B689847F6
:104800000134AC42F7D3284670BD00BFECC10008AC
:10481000014B03600020704774D7000808B50348B7
:10482000034A121A002106F027F808BD28030020C9
:104830008811002008B50648064A121A064906F0F3
:104840001FF80648064A121A064906F019F808BD6C
:1048500000000020280300202CDB000800000020BE
:10486000000000202CDB00082DE9F04182B000AFF1
:104870000446D0F800E0D0F804C085686E468AB0DF
:104880006B4613F1100200F0888014218AB10846AB
:10489000042903DDDFF81C81C3F81480082801DD3A
:1048A000C3F818E00C2801DDC3F81CC0102800DD97
:1048B0001D62132974DD14253AB1052139710021D7
:1048C0007971B971F97178681861002121F00101DD
:1048D00021F0020121F0040121F03801012363F3EA
:1048E0008811C5F30A0565F35321C1F313010023B1
:1048F0003148FFF76BFCB546D4F80CC026696569F2
:10490000E8468AB06B4613F110024CD0142182B1F4
:104910000846042903DDDFF8A4E0C3F814E0082802
:1049200001DDC3F818C00C2800DDDE61102800DDB1
:104930001D6213293ADD14253AB105213971002190
:104940007971B971F97178681861002121F001015C
:1049500021F0020121F0040121F03801012666F363
:104960008811C5F30A0565F35321C1F31301124DF4
:1049700000232846FFF72AFCC546E369104A314662
:10498000284605F072FEA3690E4A3146284605F016
:104990006CFE0837BD46BDE8F0816FF0004175E759
:1049A0006FF01B0588E76FF00041B0E76FF01B0563
:1049B000C2E700BF60CB000864C6000890CB0008C7
:1049C000C0CB0008D0CB000838B504460D4611B165
:1049D0000846FFF749FF012C04D02946204602F083
:1049E00071FA38BDEFF30583103B034A01210348F8
:1049F00005F03BFEF1E700BF00CC000864C60008EC
:104A000030BFFFF7FDBF00BF38B50446054D2A464D
:104A10000549FBF721FC054A0021601904F046F81E
:104A200038BD00BF00000000F8C600080400000008
:104A300070B50646064D074B1D444C1B2046FFF73C
:104A4000E3FF083CC6F8A84005F1080070BD00BFB0
:104A500000000000040000008169104B5A6942F414
:104A600080725A61BFF34F8FBFF36F8F31F8021C12
:104A70005A6922F480725A61BFF34F8FBFF36F8F70
:104A800001F47F43B3F55F4F01D000207047C9B2F6
:104A9000022901D0002070470120704700ED00E09E
:104AA0004FF0000C83F800C002F07F4CBCF17F4F48
:104AB00014D102F00C0CBCF1080F04D012F0080F56
:104AC00009D00846704708B5054A0121054805F098
:104AD000C2FD002008BD01221A70704700207047F7
:104AE00014CC000864C6000808B52B4A01212B48E5
:104AF00005F0B1FD2A4B9B6A13F0007F21D11D20E8
:104B0000274B9B6A13F0807F22D1254B9B6A13F4BD
:104B1000002F24D1224B9B6A13F4802F26D1204BE7
:104B20009B6A13F4003F28D11D4B9B6A13F4803F0E
:104B30002AD11B4A936A6FEA03436FEA13439362D5
:104B400008BD184A0121154805F085FD1E20D7E74C
:104B5000154A0121114805F07EFD1F20D5E7134AB3
:104B600001210E4805F077FD2120D3E7104A0121ED
:104B70000A4805F070FD2220D1E70E4A01210748BE
:104B800005F069FD2320CFE70B4A0121034805F01A
:104B900062FD2420CDE700BF40CC000864C60008B9
:104BA00000ED00E058CC00086CCC000888CC000870
:104BB000A8CC0008D0CC0008ECCC000808B5002335
:104BC0000B70034A0121034805F045FD08BD00BFF5
:104BD00018CD000864C6000890B583B000AF0F2957
:104BE00023DC2F4C103900233B7102237B718AB0E8
:104BF000EC461CF110021AD0122022B1042802DD6A
:104C0000284BCCF8143000233B7002237B70E2B1B8
:104C10000346082801DDCCF818400C2B01DDCCF848
:104C20001C100CF1200300210DE01F4CDAE76FF09F
:104C30000040E2E701F1080404EB070E1EF808EC5F
:104C400003F801EB01310129F4D9112824DD1223E5
:104C50004AB10421397100217971B9710121F971C9
:104C60007868CCF81000002121F0010121F0020148
:104C700021F0040121F03801012060F38811C3F311
:104C80000A0363F35321C1F3130100230748FFF71D
:104C90009DFA0C37BD4690BD6FF01B03D8E700BFEF
:104CA0003CCD000870CD000854CD000864C6000853
:104CB000F8B505460F461446374A0121374805F036
:104CC000CAFC374B9B6A13F4805F25D11626344B00
:104CD0009B6A13F4006F26D1314B9B6A13F4007F5B
:104CE00028D12F4B9B6A13F4806F3FD12C4B9B6ACA
:104CF00013F4807F41D12A4B9B6A13F4005F43D1A8
:104D0000274A936A43F47F4393620121284605F0C2
:104D1000C7FD20703046F8BD224A01211F4805F02A
:104D20009AFC1726D3E7204A01211C4805F093FC82
:104D30001826D1E71D4A0121184805F08CFC184AB5
:104D4000936B926A12F4004F01D11926C9E7184AF1
:104D50000121124805F089FC37B1114A936A23F406
:104D6000004393621926BCE71926BAE7114A0121CC
:104D70000A4805F070FC1A26B8E70F4A01210748D7
:104D800005F069FC1B26BBE70C4A0121034805F02E
:104D900062FC1C26B4E700BF84CD000864C600088E
:104DA00000ED00E09CCD0008B0CD0008C4CD0008A7
:104DB000E0CD0008F8CD000814CE00082CCE000885
:104DC0002DE9F04104460F461546464A0121464862
:104DD00005F041FC454B9B6A13F0100F3CD11026A7
:104DE000424B9B6A13F0080F3DD1404B9B6A13F076
:104DF000020F3FD16FF015083C4B9B6A13F0010F77
:104E000058D13A4B9B6A13F0200F5AD1374B9B6A0B
:104E100013F0100F04D1354B9B6A13F0020F04D02E
:104E2000324B5B6813F4006F52D1304B9B6A13F026
:104E3000200F04D02D4A536A23F4005353622B4AA7
:104E4000936A43F0FF0393620121204605F028FD99
:104E500028703046BDE8F081254A0121224805F03E
:104E6000FAFB1126BCE7234A01211F4805F0F3FB9A
:104E70001226BAE7204A01211B4805F0ECFB1B4B28
:104E8000D3F834809B6A13F0800F03D16FF01508BC
:104E90001326B1E74346194A0121134805F0E5FB03
:104EA00037B1124A936A23F0800393621326A3E773
:104EB0001326A1E7124A01210B4805F0CCFB14266A
:104EC0009FE7104A0121084805F0C5FB15269DE71C
:104ED0002146404605F01CFD0028A6D080F3098835
:104EE0000226A2E75CCE000864C6000800ED00E0E0
:104EF00074CE0008B0CD0008A8CE0008C0CE0008CF
:104F0000D8CE00082CCE000870B506460D462B4AB8
:104F100001212B4805F09FFB00232B70294BDC6AF5
:104F200014F002040AD1274BDB6A002B0DDB254B62
:104F3000DC6A14F080440ED1204670BD224A012163
:104F40001F4805F088FB0024F6E7204A01211C4891
:104F500005F081FBF0E71E4A0121194805F07BFBB3
:104F60003046FFF779FD98B9164B9B6A13F0FF0F97
:104F700016D1144B9C6A14F47F4418D1114B9B6AD0
:104F8000B3F5803FD8D33046FFF7AEFD0446D3E7F4
:104F90003368104A01210A4805F067FB3468CBE703
:104FA0002A4601213046FFF70BFF0446C4E72A4694
:104FB00001213046FFF77CFE0446BDE7F8CE00082D
:104FC00064C6000800ED00E010CF000834CF0008F0
:104FD00044CF000864CF000830B58BB01E4B5D682D
:104FE000C5F30805002383F31188BFF36F8F0DF11C
:104FF0002603FFF755FD04460DF12702294605F06B
:1050000051FC9DF827300BB10BB030BD05460DF1BA
:10501000040C20686168A268E368ACE80F002069AE
:105020006169A269E369ACE80F009DF826304BB1D5
:10503000089BC3F308024AB96FEA53236FEA43237C
:10504000089303E0089B6FF30803089301A928461F
:10505000FFF7BAFCD8E700BF00ED00E0044B5A6947
:1050600042F010025A615A6922F008025A617047F0
:1050700000ED00E0EFF30880EFF3098101B572461F
:10508000FFF7AAFF01BD00BF0C4880F3088800208D
:105090000B490870102080F311880A484FF404610E
:1050A000401880F30988EFF314800221084380F34D
:1050B0001488BFF36F8F00F049F8000040300020E3
:1050C00087110020802200201EF0040F0CBFEFF398
:1050D0000880EFF30980816911F8021C0229FFD0D2
:1050E00001B5724605F0D0FB01BD00BF002807DB0B
:1050F00000F01F02400901239340024A42F8203089
:10510000704700BF00E100E0002808DB0901C9B2D8
:1051100000F1604000F5614080F80013704700F036
:105120000F000901C9B2014B1954704714ED00E09A
:10513000044B23F07F03044A9360BFF34F8FBFF308
:105140006F8F70470000000800ED00E008B5FFF722
:10515000EFFF0B4AD2F8883023F47003C2F888308E
:10516000EFF3148323F0040383F31488BFF36F8FEA
:10517000FFF754FBFFF75EFB00F0CCF802F0A4F859
:1051800000ED00E0104B9B68BBB110F1160F0BD087
:10519000D3F89820A2F1400C844510D8824210D94F
:1051A0008A4207D800207047D3F898208A4201D855
:1051B00000207047D3F89800704700207047002007
:1051C00070470020704700BF4811002010B4A2F1C2
:1051D00020040E4942F8081C21F0010142F8081C85
:1051E00042F8203C019B42F81C3C029B42F8183CD0
:1051F000039B42F8143C4FF0807342F8043C046572
:105200000023C0F8AC3010BC704700BF65390008FF
:1052100008B50E4615460C4A9060D0F8A8200B4BF6
:105220001A6000F0B5F82C4686F309880020044B7C
:1052300098472046002100220023024C204700000E
:105240001FA900086539000848110020A01000209F
:10525000014B10221A61704700ED00E0054B5A69BE
:105260009B689A4204D0044A536843F080535360C9
:10527000704700BF4811002000ED00E008B50A4B60
:105280009B68834202D002F0BFFE08BDEFF30583A6
:10529000002BF8D0054B5A6842F080525A605A6A87
:1052A00022F400425A62EEE74811002000ED00E0CF
:1052B00015498A684FF030001044EFF3098C80E8FC
:1052C000F01F102080F31288BFF36F8F0F4F4FF045
:1052D00000664A698A603E60D2F8A8000C4C2060E3
:1052E000D2F8AC000023C2F8AC3080F3118804B5CA
:1052F000104600F04DF8BDE8044002F1300090E89F
:10530000F01F8CF3098870474811002004ED00E07D
:10531000A0100020002206E003F00F030949194401
:1053200010230B760132492A0ADC53B2002BF3DB3F
:1053300003F1604303F56143102183F80013F1E7A3
:10534000704700BFFCEC00E008B5EFF30583103BAD
:10535000044A02EBC301496852F833008847FFF75B
:105360007DFF08BD40C2000801480068704700008A
:10537000A010002008B5034B034A0121034805F0A3
:105380000DFC08BD008001200000002074D700083B
:1053900008B5D0F89830403B044803604023436090
:1053A000034B8360012105F0FDFB08BDA410002024
:1053B00000000B15084AC2F898000B6823F01F0381
:1053C000034343F01003C2F89C308B6843F00103A1
:1053D000C2F8A030704700BF00ED00E010B50446F1
:1053E0000A4BD3F89030C3F30723013B984203D80C
:1053F000FFF7E0FF204610BD0346054A012105489E
:1054000005F033F96FF01500F5E700BF00ED00E09F
:1054100084CF00085CC600082DE9F84380460F469B
:1054200099461646002509E02146F0B205F09CFA9F
:10543000064610F1160F1AD001360135BD4216DAB4
:1054400005EB450408EB84046268002AF5D0B9F145
:10545000000FE9D0204605F076FA0028E4D12B466B
:10546000044A0121044805F000F96FF015063046A2
:10547000BDE8F883ACCF00085CC6000810B5034C4B
:1054800001232278FFF7C8FF207010BD861100208D
:1054900008B500230B4A1278FFF7BEFF10F1160F74
:1054A0000FD0024606E0084BC3F898200021C3F84D
:1054B000A0100132044BD3F89030C3F3072393427A
:1054C000F1DC08BD8611002000ED00E0044B052250
:1054D000C3F89420BFF34F8FBFF36F8F704700BFA7
:1054E00000ED00E0BFF35F8F024B0022C3F8942071
:1054F000704700BF00ED00E038B51C4B1D681C4B29
:10550000D3F89030C3F307239D422BD8FFF7EAFF6F
:10551000002409E0154B5B6804EB440103EB8101B7
:105520002046FFF747FF0134A542F3D81148057024
:1055300005F039FA10F1160F13D00E4B1A780C4BF8
:10554000D3F89030C3F307239A4207DA084BC3F825
:1055500098200021C3F8A0100132F0E7FFF7B6FF52
:10556000002038BD4FF0FF30FBE700BF80D70008B8
:1055700000ED00E08611002070B586B006460D46AD
:105580001146684600240094019402940394049404
:10559000059402228DF80220044A01920496059592
:1055A0001A4603F0CBFB06B070BD00BFADAB0008E0
:1055B00008B5024B1B689847002008BDB0100020BA
:1055C000034B1860034A937843F0020393707047CB
:1055D000B0100020D000002008B5064921F00701D6
:1055E000C1F1005202F5C032034804F09BFA0020DA
:1055F00008BD00BF47350020B410002000B583B0BF
:10560000094B93E8030002AB03E90300074B9B68D7
:105610001B682BB169460548984703B05DF804FB49
:105620006FF05700F9E700BFF8C600089CC00008FB
:1056300008B500F01F02012393401F2806D8074A2F
:10564000526993430CBF0120002008BD0346044A61
:105650000121044805F009F80020F6E7003C01406C
:10566000E4CF00083CC6000808B500F01F02012383
:1056700093401F2803D8064A5361002008BD034603
:10568000044A0121044804F0F0FF6FF01500F5E72B
:10569000003C0140E4CF00083CC6000800239942CA
:1056A0000ADD10B400EB030C044C04F80C200133A9
:1056B0009942F7DC10BC7047704700BFE000002043
:1056C000F8B50746002401E00134E4B27B78A34238
:1056D00017D93D7866193046FFF7AAFF0028F3D0A6
:1056E0003046FFF7C1FF074B53F83620002AEBD0B6
:1056F00006F01F0503EBC60359680120A840904738
:10570000E2E7F8BDC01000205FFA81FC0CF1020254
:105710000A4B53F822200B0C22EA114193FAA3F30F
:105720004BB1B3FA83F3984001430CF1020C034AE6
:1057300042F82C1070472023F5E700BF00380140E5
:10574000C3B20233074A52F82320030C02EA104086
:1057500093FAA3F31BB1B3FA83F3D8407047202325
:10576000FBE700BF0038014008B5034668B1B0FA56
:1057700080F2C2F11F02D2B205498856054A11686B
:105780000B43136005F0B3F808BDFF22F4E700BF38
:10579000E0000020003C0140024A136823EA0003B5
:1057A00013607047003C0140032926D8DFE801F070
:1057B000020C151E114B9A6822EA00029A60DA6800
:1057C00022EA0002DA6070470C4B9A6802439A6042
:1057D000DA6822EA0002DA607047084BDA680243AE
:1057E000DA609A6822EA00029A607047034B9A686E
:1057F00002439A60DA681043D8607047003C014069
:1058000010B498B1B0FA80F3C3F11F03DBB29C4629
:105810000D4850F8330088420AD088B90A4B43F843
:105820003C1003EBCC035A6010BC7047FF23EEE73B
:10583000054C04EBC3035B689342EED10020F3E711
:105840006FF00F00F0E700BFC010002060B1B0FAA9
:1058500080F3C3F11F03DBB2044A002142F8331086
:1058600002EBC30251607047FF23F5E7C010002030
:1058700070B544681A4B9D682B6843B304F1080166
:1058800017489847064610BB94F8453013F0010FAF
:1058900007D004F11001AB69E3B10022104898472A
:1058A000C0B994F8453013F0020F07D004F1180185
:1058B000AB6993B100220A48984770B9236A094935
:1058C0004A6822F4403213434B60304670BD6FF09B
:1058D0000406FAE76FF00406F7E76FF00406F4E752
:1058E0009CC00008002301402DE9F041476803698E
:1058F000D7F80080D3F8B85000260EE004EB44023D
:105900001E3A44EA025297F94230012B1AD0012381
:10591000A34025EA03050136F6B225B395FAA5F4AE
:10592000B4FA84F40DB94FF0FF340134E4B2013C11
:10593000E4B2092CE2D804EB440244EA025242F0F9
:105940000072E0E70C4B53F82610404605F0E5F9ED
:105950000A4B53F82630D8F82C2022F47002134357
:10596000C8F82C30D3E7D8F8043043F48073C8F873
:1059700004300020BDE8F08178D8000838D800084D
:105980004900036813B19B8903FB0111C3688B4273
:1059900001D30020704700B583B00091044A012173
:1059A000044804F06DFE6FF00B0003B05DF804FBDB
:1059B00028D000082CC6000870B54468256800236C
:1059C00000E0013394F940209A4205DD91F810C0BF
:1059D000A06AC05C8445F4D19A420AD06A6802F099
:1059E0004072E16A9E0051F82330934209D10020B1
:1059F00070BD0B4A01210B4804F02DFE6FF015001D
:105A0000F6E70021284605F05AF90028F0D1E36AAC
:105A10009B596A6822F0407213436B60E8E700BF4D
:105A200050D000082CC6000810B5446821B30A46BF
:105A300043F6FF73994221D08B0B032B0CD100202E
:105A4000072811DC00F1180334F8133043F4404305
:105A5000934210D00130F3E7094A0121094804F0CC
:105A6000FAFD6FF0150006E0074A0121054804F031
:105A7000F2FD6FF0150010BD0020FCE70720FAE7EB
:105A800064D000082CC600088CD0000870B50D4604
:105A9000446826681146FFF7C7FF002817DB94F912
:105AA00041303BB1002B19DB013BDBB2012B15D898
:105AB00000200CE0092D0BD805EB450345EA035304
:105AC00043F000710246304605F048F9002070BDF1
:105AD00005EB45031E3B45EA0351F3E7034A012169
:105AE000034804F0B8FD6FF01500F0E7B0D00008EF
