:020000040800F2
:10000000403000205D370008AD8C000849370008FB
:100010004937000849370008493700080000000048
:100020000000000000000000000000009D370008F4
:10003000493700080000000085390008B151000868
:100040001D3A00081D3A00081D3A00081D3A000834
:100050001D3A00081D3A00081D3A00081D3A000824
:100060001D3A00081D3A00081D3A00081D3A000814
:100070001D3A00081D3A00081D3A00081D3A000804
:100080001D3A00081D3A00081D3A00081D3A0008F4
:100090001D3A00081D3A00081D3A00081D3A0008E4
:1000A0001D3A00081D3A00081D3A00081D3A0008D4
:1000B0001D3A00081D3A00081D3A00081D3A0008C4
:1000C0001D3A00081D3A00081D3A00081D3A0008B4
:1000D0001D3A00081D3A00081D3A00081D3A0008A4
:1000E0001D3A00081D3A00081D3A00081D3A000894
:1000F0001D3A00081D3A00081D3A00081D3A000884
:100100001D3A00081D3A00081D3A00081D3A000873
:100110001D3A00081D3A00081D3A00081D3A000863
:100120001D3A00081D3A00081D3A00081D3A000853
:100130001D3A00081D3A00081D3A00081D3A000843
:100140001D3A00081D3A00081D3A00081D3A000833
:100150001D3A00081D3A00081D3A00081D3A000823
:080160001D3A00081D3A0008D9
:1001800030B490F800F020F007016FF0000C10F090
:10019000070491F820F040F048804FF000046FF021
:1001A0000700D1E9002391F840F000F1080082FA3D
:1001B0004CF2A4FA8CF283FA4CF3A2FA8CF34BBB08
:1001C000D1E9022382FA4CF200F10800A4FA8CF281
:1001D00083FA4CF3A2FA8CF3E3B9D1E9042382FA4F
:1001E0004CF200F10800A4FA8CF283FA4CF3A2FA64
:1001F0008CF37BB9D1E9062301F1200182FA4CF29C
:1002000000F10800A4FA8CF283FA4CF3A2FA8CF302
:10021000002BC6D0002A04BF04301A4612BAB2FA24
:1002200082F200EBD20030BC7047D1E9002304F029
:100230000305C4F100004FEAC50514F0040F91F85E
:1002400040F00CFA05F562EA05021CBF63EA0503FB
:1002500062464FF00004AAE7844641EA000313F027
:1002600003036DD1403A41D351F8043B40F8043BBD
:1002700051F8043B40F8043B51F8043B40F8043B80
:1002800051F8043B40F8043B51F8043B40F8043B70
:1002900051F8043B40F8043B51F8043B40F8043B60
:1002A00051F8043B40F8043B51F8043B40F8043B50
:1002B00051F8043B40F8043B51F8043B40F8043B40
:1002C00051F8043B40F8043B51F8043B40F8043B30
:1002D00051F8043B40F8043B51F8043B40F8043B20
:1002E00051F8043B40F8043B403ABDD2303211D3C0
:1002F00051F8043B40F8043B51F8043B40F8043B00
:1003000051F8043B40F8043B51F8043B40F8043BEF
:10031000103AEDD20C3205D351F8043B40F8043BBF
:10032000043AF9D2043208D0D2071CBF11F8013BBD
:1003300000F8013B01D30B8803806046704700BF83
:10034000082A13D38B078DD010F003038AD0C3F192
:100350000403D21ADB071CBF11F8013B00F8013B74
:1003600080D331F8023B20F8023B7BE7043AD9D333
:10037000013A11F8013B00F8013BF9D20B78037008
:100380004B7843708B788370604670474FF0FF0C5A
:100390001CEAD0521EBF1CEAD15392EA0C0F93EA1A
:1003A0000C0F6FD01A4480EA010C400218BF5FEABC
:1003B00041211ED04FF0006343EA501043EA51112F
:1003C000A0FB01310CF00040B1F5000F3EBF490029
:1003D00041EAD3715B0040EA010062F17F02FD2A2D
:1003E0001DD8B3F1004F40EBC25008BF20F0010010
:1003F000704790F0000F0CF0004C08BF49024CEA27
:10040000502040EA51207F3AC2BFD2F1FF0340EAB8
:10041000C250704740F400004FF00003013A5DDC29
:1004200012F1190FDCBF00F000407047C2F100026A
:10043000410021FA02F1C2F1200200FA02FC5FEA57
:10044000310040F1000053EA4C0308BF20EADC70A1
:10045000704792F0000F00F0004C02BF400010F413
:10046000000F013AF9D040EA0C0093F0000F01F0C0
:10047000004C02BF490011F4000F013BF9D041EAE2
:100480000C018FE70CEAD15392EA0C0F18BF93EAE4
:100490000C0F0AD030F0004C18BF31F0004CD8D10E
:1004A00080EA010000F00040704790F0000F17BF95
:1004B00090F0004F084691F0000F91F0004F14D0DB
:1004C00092EA0C0F01D142020FD193EA0C0F03D133
:1004D0004B0218BF084608D180EA010000F0004036
:1004E00040F0FE4040F40000704740F0FE4040F411
:1004F0004000704780F0004002E000BF81F0004102
:1005000042001FBF5FEA410392EA030F7FEA226CB9
:100510007FEA236C6AD04FEA1262D2EB1363C1BF49
:10052000D218414048404140B8BF5B42192B88BFB8
:10053000704710F0004F40F4000020F07F4018BFDB
:10054000404211F0004F41F4000121F07F4118BFFB
:10055000494292EA030F3FD0A2F1010241FA03FCA3
:1005600010EB0C00C3F1200301FA03F100F000438B
:1005700002D5494260EB4000B0F5000F13D3B0F153
:10058000807F06D340084FEA310102F10102FE2AC2
:1005900051D2B1F1004F40EBC25008BF20F0010032
:1005A00040EA03007047490040EB0000013A28BFD1
:1005B000B0F5000FEDD2B0FA80FCACF1080CB2EB54
:1005C0000C0200FA0CF0AABF00EBC25052421843D2
:1005D000BCBFD0401843704792F0000F81F4000177
:1005E00006BF80F400000132013BB5E74FEA41034A
:1005F0007FEA226C18BF7FEA236C21D092EA030FB6
:1006000004D092F0000F08BF0846704790EA010F2F
:100610001CBF0020704712F07F4F04D1400028BF5C
:1006200040F00040704712F100723CBF00F500003E
:10063000704700F0004343F0FE4040F40000704774
:100640007FEA226216BF08467FEA23630146420220
:1006500006BF5FEA412390EA010F40F48000704733
:100660004FF0000304E000BF10F0004348BF4042D9
:100670005FEA000C08BF704743F0964301464FF015
:1006800000001CE050EA010208BF70474FF0000371
:100690000AE000BF50EA010208BF704711F00043B2
:1006A00002D5404261EB41015FEA010C02BF844682
:1006B0000146002043F0B64308BFA3F18053A3F5E1
:1006C0000003BCFA8CF2083AA3EBC25310DB01FA28
:1006D00002FC634400FA02FCC2F12002BCF1004FAC
:1006E00020FA02F243EB020008BF20F0010070473D
:1006F00002F1200201FA02FCC2F1200250EA4C0091
:1007000021FA02F243EB020008BF20EADC707047D6
:100710004FEA4002B2F1FE4F0FD34FF09E03B3EB0E
:1007200012620DD94FEA002343F0004310F0004F4E
:1007300023FA02F018BF404270474FF000007047A4
:1007400012F1610F01D1420205D110F0004008BF43
:100750006FF0004070474FF00000704753B94AB93E
:10076000002908BF00281CBF4FF0FF314FF0FF30B9
:1007700000F00CB8ADF1080C6DE904CE00F01BF8E8
:10078000DDF804E0DDE9022304B07047704700BFE4
:10079000430803F05533C01A00F03333800800F0EB
:1007A0003330184400EB10104FF0013300F00F30DD
:1007B0005843000E70472DE9F0478C468E46089E40
:1007C000154604461946002B40F0D080724547D9A3
:1007D000B2FA82F74FB1C7F120030EFA07FC20FAF4
:1007E00003F3BD4043EA0C0CBC404FEA154EA8B2DF
:1007F000BCFBFEF8230C0EFB18CC08FB00F943EA07
:100800000C43994528D9EB1808F1FF3204D29945D9
:1008100002D9A8F102022B44A3EB0903A4B2B3FB53
:10082000FEFC0EFB1C330CFB00F044EA0344A04228
:1008300014D92C190CF1FF3304D2A04202D9ACF127
:1008400002032C44241A43EA02401EB1FC40002358
:1008500034607360BDE8F0874246DDE76346F1E748
:10086000002A79D0B2FA82F3002B3FD01946C1F1A9
:10087000200302FA01F52EFA03F20EFA01FE20FA25
:1008800003F343EA0E034FEA154E00FA01F4B2FBFC
:10089000FEFCAFB20EFB1C201A0C0CFB07F842EA60
:1008A000004290455AD9AA180CF1FF3004D2904565
:1008B00002D9ACF102002A44A2EB08029BB2B2FBBF
:1008C000FEFC0EFB1C220CFB07F743EA02439F428F
:1008D00046D9EB180CF1FF3204D29F4202D9ACF199
:1008E00002022B44DB1B42EA004202E0AEEB0203B1
:1008F00001224FEA154EAFB2B3FBFEFC200C0EFBFB
:100900001C330CFB07F840EA034398452AD9EB183F
:100910000CF1FF3004D2984502D9ACF102002B440F
:10092000A3EB0803A4B2B3FBFEFC0EFB1C330CFBD1
:1009300007F744EA0344A74216D92C190CF1FF33F8
:1009400004D2A74202D9ACF102032C44E41B43EACF
:1009500000400F46114678E71F2188E76046ABE765
:100960006246BFE76046DBE76346EFE7734506D9BB
:1009700016B9002108466DE7C6E9000EF9E7B3FA9B
:1009800083F787B9734501D3824207D8841A6EEB87
:10099000030301209C461EB900215BE73846FAE7B5
:1009A000C6E9004CF8E7C7F1200CBB4022FA0CF571
:1009B0001D4320FA0CF12EFA0CF30EFA07FE41EA61
:1009C0000E014FEA154900FA07F4B3FBF9F81FFAD4
:1009D00085FE09FB18300B0C08FB0EFA43EA0043B6
:1009E0009A4502FA07F240D9EB1808F1FF3004D219
:1009F0009A4502D9A8F102002B44A3EB0A0389B25D
:100A0000B3FBF9F809FB183308FB0EFE41EA03417A
:100A10008E452CD9691808F1FF3304D28E4502D9CE
:100A2000A8F10203294443EA0040A0FB0298A1EB8D
:100A30000E014145CE46434602D306D14C4504D271
:100A4000B9EB020E68EB05030138002EA4D0B4EB1D
:100A50000E0261EB030101FA0CFC22FA07F34CEAE7
:100A60000303F940C6E9003196E74046C5E743462F
:100A7000D9E7000070B582B0414809F0F4F80028C9
:100A80005ED03F4883681B683E49984700285DD187
:100A90003B4809F0E8F800285ED0394883681B68B5
:100AA0003849984700285DD1374805F07BF9374D24
:100AB0004FF0FF324FF0FF33284605F09DF8344BDE
:100AC000344C354A92E803008DE803000CCB94E8DF
:100AD000030000F0C7FC0446284605F00DF9002C81
:100AE00046D14FF0FF344FF0FF35284E22462B46BB
:100AF000304605F081F8072000F068FC00F09CFC0F
:100B00007321002000F082FC7721012000F07EFCA0
:100B10007921022000F07AFC6D21032000F076FCA0
:100B2000ED21042000F072FC304605F0E5F81B488A
:100B300005F038F92046294605F06AFD02B070BD7F
:100B4000174A0221174807F092FF9AE7164A022136
:100B5000144807F08CFF9BE7114A0221114807F067
:100B600086FF9AE7104A02210E4807F080FF9BE7B4
:100B700023460E4A02210B4807F083FFB1E700BF6E
:100B80003CA6000876B90008B00200207C010020D5
:100B900088B9000890B9000880B900085002002008
:100BA00018AB000894AA00082CAB000848AB00085A
:100BB00030B583B000254FF0FF324FF0FF33384897
:100BC00005F02CF913E0374805F0ECF8364C2046D8
:100BD00009F08FF80022002301A9204609F068F8E7
:100BE000322007F0F8F8019D162007F0F4F80022F3
:100BF00000232E4805F012F90028DCD02C4C4FF0D1
:100C0000FF324FF0FF33204604F0F6FF00F010FDF6
:100C10000190204605F070F8019B002BE3DDAB420C
:100C2000E1D0022B0BD0032B21D0012BDBD10022F2
:100C300000231C4805F0F2F80028C7D0C3E70022C3
:100C40000023184805F0EAF868B9174C204609F067
:100C500050F80022002301A9204609F029F832208B
:100C600007F0B9F8BFE70F4805F09CF8EDE7002260
:100C700000230C4805F0D2F868B90B4C204609F067
:100C800038F80022002301A9204609F011F832208B
:100C900007F0A1F8A7E7034805F084F8EDE700BFE7
:100CA0005002002080020020C0010020C802002065
:100CB0007C01002010B58AB01E4808F0D4FFB8B1FE
:100CC00040F2EA730593082304931F23039312232E
:100CD0000293002301930093164883681B686946BA
:100CE0009847F0B1144A0221144807F0C0FE18E0FA
:100CF000134A0221114807F0BAFEE1E7114A022126
:100D00000E4807F0B4FE104C204608F0F2FF002217
:100D100000236946204608F0CBFF4FF47A7007F0B5
:100D20005AF8044883685B68694698470028E5D10B
:100D3000E9E700BFE8A5000884AB000894AA000812
:100D400070AB00089CAB0008900100202DE9F04139
:100D50008EB000AF0025FD613D627D62BD62FD6227
:100D600007F136037B620222BA62BD60FD603D611D
:100D70007D61BD6107F134033B617A612E464FF01E
:100D8000FF324FF0FF33544805F048F83BE0534A38
:100D90000221534807F075FE45E0504A02215048B1
:100DA00007F06FFE48E06FF0004182E00B2940F34E
:100DB00090800C213AB10320387100207871B8710D
:100DC000F8717868186124F0010424F0020424F01A
:100DD000040424F03804042363F38814C1F30A03E1
:100DE00063F35324C4F31304002321463C4801F069
:100DF00057FDC5463B4804F0D5FF3B4804F0D2FF01
:100E0000322006F0E8FF00220023374805F006F8FC
:100E10000028B4D0354883685B6807F11C01984707
:100E200003460028B3D1314883685B6807F10801A5
:100E3000984703460028B0D1B7F93400FFF714FCF7
:100E40002B49FFF7A3FA80463046FFF70DFC2949EE
:100E5000FFF79CFA01464046FFF752FBFFF758FCAC
:100E600006B27E86B7F93600FFF7FEFB2049FFF792
:100E70008DFA80462846FFF7F7FB1E49FFF786FAF2
:100E800001464046FFF73CFBFFF742FC05B23D86BA
:100E90000022002307F13001174808F009FF00285D
:100EA000AED0E84688B06B4613F110023FF47BAF3A
:100EB0000C21002A3FF47AAF0846042903DDDFF84D
:100EC0003CC0C3F814C008287FF770AF0C48986185
:100ED0006CE76FF01B016DE7B0020020B0AB0008BB
:100EE00094AA000868020020100300203CA6000815
:100EF000CDCCCC3D6666663F20020020C8AB000822
:100F000064B900082DE9F04F99B000AF00242546E0
:100F1000A246A1464FF0FF324FF0FF33854804F060
:100F20007DFFF5E00022002307F13401824804F040
:100F3000F3FDB7F9342007F1600303EB4B0323F80B
:100F4000142CB7F9362023F8282C0BF1010BBBF138
:100F5000090FE7DDEB4688B06B4613F1100234D081
:100F60000C2152B10846042903DDDFF8D0C1C3F8D3
:100F700014C0082801DD724898610B2928DD0C2176
:100F80003AB10320387100207871B871F87178682F
:100F9000186126F0010626F0020626F0040626F067
:100FA0003806042363F38816C1F30A0161F353265C
:100FB000C6F3130600233146624801F071FCDD469A
:100FC000614804F0EFFE002312E06FF00041C8E733
:100FD0006FF01B01D4E707F1600202EB430131F827
:100FE000142C2A4415B231F8282C224414B20133AF
:100FF000092BF0DDDFF854B18BFB0523E817C0EBBC
:10100000A30000B2FFF730FB5149FFF7BFF90546D7
:101010004846FFF729FB4F49FFF7B8F90146284634
:10102000FFF76EFAFFF774FB05B28BFB043BE0178A
:10103000C0EBAB0000B2FFF717FB4549FFF7A6F97D
:1010400004465046FFF710FB4249FFF79FF901465F
:101050002046FFF755FAFFF75BFB04B23D817C8128
:10106000AE46A446E9468AB06B4613F110025AD048
:101070001421A2B10846042903DDDFF8DCA0C3F87F
:1010800014A0082803DDDFF8B8A0C3F818A00C28C6
:1010900001DDC3F81CE0102801DDC3F820C01329CE
:1010A00044DD14213AB10520387100207871B871FF
:1010B000F8717868186128F0010828F0020828F013
:1010C000040828F03808042363F38818C1F30A01E0
:1010D00061F35328C8F3130800234146194801F06F
:1010E000DFFBCD4607F10C011C4808F0E9FDDFF8F5
:1010F0007090484608F0FDFD0022002307F108012A
:10110000484608F0D5FD174804F04CFEA246A94613
:1011100000220023134804F081FE00283FF4FAAEB9
:101120004FF0000B13E76FF00041A2E76FF01B01D7
:10113000B8E700BF6802002020020020E8AB0008EA
:1011400058B9000894AA0008B002002067666666D5
:10115000CDCCCC3D6666663F04AC00089001002013
:10116000F0010020E002002030B58DB000244FF0E7
:10117000FF324FF0FF33294804F050FE1CE0BDF968
:10118000040006F039FE0446254D4FF0FF324FF0C3
:10119000FF33284604F030FD204600F00DFA2846C3
:1011A00004F0AAFD23461F4A03211F4807F069FCEB
:1011B0004FF47A7006F00FFE002200231B4804F063
:1011C0002DFE0028D3D06946194808F079FD01A901
:1011D000184808F075FD009B022B04D0032B08D0A3
:1011E000012BD1D1CBE7BDF9060006F004FE044681
:1011F000CAE7049A039BC2EB421102EB810202EBA5
:10120000820203EB830303EB8304A40004EB0214C8
:10121000A4B2029B1C4424B2B6E700BF80020020A7
:101220007C0100201CAC000894AA0008F8020020F1
:10123000C0010020F001002070B506464FF40031D7
:10124000104806F002FE002519E00F4C0022217B19
:10125000A06806F033FE46FA05F202F00102217D95
:10126000206906F02BFE012008F0D4FC0122217B2E
:10127000A06806F023FE012008F0CCFC0135072D04
:10128000E3DD70BD880700207807002070B50546B3
:101290000E46144C00222179206806F00FFE4420EF
:1012A000FFF7CAFF01222179206806F007FE01201E
:1012B00008F0B0FC00222179206806F0FFFD05F05F
:1012C0000F0040F0C000FFF7B7FF3046FFF7B4FF54
:1012D00001222179206806F0F1FD322008F09AFC05
:1012E00070BD00BF7807002070B54FF480311448FE
:1012F00006F0ABFD00252E4609E0124B0122197BBA
:10130000986806F0DBFD012008F084FC0135072D0C
:1013100013DC0C4C0022217BA06806F0CFFD0120DD
:1013200008F078FC217D206906F0A6FD0028E4D0B5
:101330000123AB401E43F6B2DFE7304670BD00BF6D
:10134000880700207807002010B582B01E4B0022CD
:101350001979186806F0B2FD4220FFF76DFF0024EE
:1013600007E0FFF7C1FF04F108036B4403F8040C26
:101370000134032CF5DD144C01222179206806F09C
:101380009DFD4FF4003104F1100006F05EFD0023D6
:10139000184600E00133032B14DC03F108026A4411
:1013A00012F8042C12F0010F03D0012199400843D8
:1013B000C0B212F0100FEDD0191D01228A40104367
:1013C000C0B2E7E702B010BD7807002038B50E4B79
:1013D0001B7E9BB10446072813D80B4D00222979A8
:1013E000286806F06BFD44F08800FFF725FF012216
:1013F0002979286806F062FD002038BD6FF00400EE
:10140000FBE76FF01500F8E77807002008B5094BF7
:101410001B7E43B1072809D8400000F0FE00FFF70B
:1014200035FF002008BD6FF00400FBE76FF01500EA
:10143000F8E700BF78070020094B1B7E13B110B5F9
:10144000002408E06FF00400704700212046FFF7F9
:101450001DFF0134E4B20F2CF7D9002010BD00BFEE
:101460007807002030B585B00DF1080C8CE803003A
:10147000CDE900233D4A9CE8030082E8030002F125
:101480000805DDE9000185E8090002F1100308A95B
:1014900003C983E80300002414765476947608F098
:1014A000ACFE431859D22344314AA2FB034525F030
:1014B000030404EB95041B1BC01A61F100014FF0FB
:1014C000CC3300FB03F302FB0133A0FB0202134405
:1014D000400840EAC3705B08244A106253621068F7
:1014E00008F0C1FB00283AD0204B986808F0BBFBFD
:1014F000A8B31E4B186908F0B6FB80B31D4806F070
:10150000F8FD1A4D4FF4D011284606F09EFC044613
:10151000194806F0EEFD4FF4D01105F1080006F071
:1015200094FC0443154806F0E4FD4FF4D01105F196
:10153000100006F08AFC0443114806F0DAFD8CB96D
:1015400001222A76FFF778FF0E4806F0D2FD04202C
:10155000FFF73CFF204605B030BD0124A3E76FF044
:101560001204F7E76FF00404F4E700BF78070020E7
:10157000CDCCCCCC7CAC000880AC000884AC00089E
:1015800088AC00088CAC00080A4B1B7E13B110B568
:1015900000240AE06FF0040070476000002100F0B2
:1015A000FE00FFF773FE0134E4B2072CF5D90020EA
:1015B00010BD00BF78070020194B1B7E53B370B5D8
:1015C0000446184B984223D8FFF7DEFF0725164B39
:1015D000A3FB0423DB081E4603EB8303A4EB4303B6
:1015E000124AD15C2846FFF711FF23463446013DDD
:1015F000092B12D9002DEADA002070BD40212046C7
:10160000FFF704FF0134072CF8DD6FF01500F4E755
:101610000024F8E76FF0040070470020EDE700BFFA
:1016200078070020FFE0F505CDCCCCCC98B90008B8
:101630002A4B1B7E002B4CD010B5FFF785FE0446CD
:1016400008F0DBFD034600205A182FD2024424483C
:10165000A0FB02CE2EF0030C0CEB9E0CA2EB0C02B6
:101660009B1A61F100014FF0CC3203FB02F200FB48
:101670000122A3FB003002445B0843EAC273520814
:1016800019461648407EA04212D014494C760B628F
:101690004A62124B9A7EFAB10020072817DC22FA20
:1016A00000F313F0010F10D10130F6E70120CDE770
:1016B0000A48036A406AC91A62EB00021E2972F1E5
:1016C0000002E6DB054B9C76E3E7013000E00020FA
:1016D00010BD6FF0040070470020F9E77807002084
:1016E000CDCCCCCC2DE9F04F91B0059203931346AD
:1016F00002F004020092C3F3C20210F0030301934C
:1017000040F01B82074689460132041D002848D05C
:10171000072940F21582039B5D1EDDF804B0CDF869
:1017200010B0CDF818B000264FF0FF3A4FF0040883
:10173000CDF808B0C3460FB1039B2360531E079337
:10174000002A40F35D81059B13F0020226D00120A0
:10175000E11B8B081AB1B1F5007F80F0F781029987
:101760000F2900F2F681002F00F05B81DBB201F15E
:1017700040026A4402F8103C02F820AC002800F055
:101780004C8163F07F0301F140026A4402F8103C8F
:10179000049B01330493029B01330293043400221F
:1017A0003EE001F007031C44C3F10809B3E700263B
:1017B00035E0002633E0002631E04FF00808C3464C
:1017C0002DE025292BD10AF1010A01264FF004084A
:1017D000C34624E04729ECD82A2912D32A39C9B2B2
:1017E000012000FA01F14FF6DA70014217D111F031
:1017F000625F40F0C38011F0010F40F08D80002641
:101800000DE0252903D10AF1FF3A002607E0D2D8DE
:10181000202904D0232902D0002600E000261D46FE
:101820006B1C6978002900F01581002EC9D07A2937
:10183000BDD84C29CED34C392E29EFD801A050F871
:1018400021F000BF1F1800081D1800081D1800080F
:101850001D1800081D1800081D1800081D18000894
:101860001D1800081D1800081D1800081D18000884
:101870001D180008111900081D1800081D1800087F
:101880001D1800081D1800081D1800081D18000864
:101890001D1800081D1800087D1900081D180008F3
:1018A00011190008111900087D1900087D19000898
:1018B0007D1900081F18000811190008BB1700083F
:1018C0001D1800081F1800081D180008DB19000863
:1018D00011190008DB1900081D1800081D18000860
:1018E000E519000809190008111900081D18000859
:1018F0001D180008111900081D180008011900081A
:101900004FF00408C3468AE74FF00408C34686E751
:1019100029786C2924D000264444013CB4FBF8F417
:1019200008FB04F427B1E11B5944494500F20B813F
:10193000002A5DD1BBF1040F00F08480BBF1080FD9
:1019400040F00A811A99073121F0070101F10800DE
:101950001A90D1E900010FB1C4E9000108345EE733
:1019600013F8021C6C2904D000264FF00408C3466B
:10197000D2E700264FF00808C346CDE729784C2966
:101980001BD01A99073121F0070101F108001A90C4
:10199000D1E90001073424F0070447B1E61B0836FB
:1019A0004E4514D82D784C2D14D0C4E900010834CC
:1019B00000264FF00808C34631E71A99073121F095
:1019C000070101F108001A90D1E90001E2E76FF088
:1019D0001B00AFE0C4E90001E9E700264FF004086E
:1019E000C34699E7324600264FF00408C34693E702
:1019F0001A9A111D1A9112680392079A1D469AE6C7
:101A00005B4B039A9A4203D35A4B9A42FFF49BAE24
:101A1000059B03F0020200209AE6069B0133069321
:101A2000B9E610B109F10109B5E6009B13B109F15E
:101A30000209B0E60398FEF7A3FB09EB000303F1EC
:101A40000209A8E61A99081D1A90096807B12160D1
:101A50000434E4E6DDF808B0E31BB3F5806F7ED212
:101A600087B100223A609B083B70009B73B1069BD4
:101A7000FB70049BBB700BBB019DDDF810A0DDF873
:101A80000C803AE04B44A3F1080053E0069B7B70C6
:101A9000EFE701339B45EFD903F140026A4412F8A6
:101AA000101C12F9102C002AF3DA01F07F01E21B5E
:101AB00001324A4556D804F8011BEAE7019BE9E7E1
:101AC000009B3BB305F140036B4413F8203C04F842
:101AD000013B019EE31B334401334B4545D805F1DF
:101AE00040036B4413F8103C04F8013B3246414676
:101AF0002046FEF7B1FB34440135AB4519D9BAF1A4
:101B0000000FDDD005F140036B4413F9103C002BAE
:101B1000D6DAF1E705F140036B4413F8103C57F8AF
:101B20002380002247F823204046FEF729FB461C6D
:101B3000D0E7E01B11B0BDE8F08F6FF00D00F9E7C2
:101B40006FF01B00F6E76FF01B00F3E76FF0150076
:101B5000F0E76FF01500EDE76FF01500EAE76FF0C2
:101B60001500E7E76FF01B00E4E76FF01B00E1E70B
:101B7000FCA300080CBF00082DE9F04F97B000AFA0
:101B80008346BA617B61D7F88030C3F3C0033B6200
:101B9000F96011B906F025FAF8609BF80260B146C9
:101BA00036B1D7F8803013F0010F29D1002300E0BF
:101BB00000239BF803207A6222B1D7F8802012F02C
:101BC000020F00D1F3B19BF80050AA00BA60DBF815
:101BD00004203A610BEB8505BA69FAB1002B40F09D
:101BE0000581B9F1000F00F00F81D7F8803013F0B4
:101BF000040F00F00C81FE61002607F13400F9E0CB
:101C00000123D6E7BB691BB17A69F9685846984742
:101C1000FC6820465C37BD46BDE8F08FFC68E3B940
:101C20004D4400237B6123E00444013501364E45D9
:101C30001AD22A7800235BF822201946B86906F0E8
:101C4000E5F9BAF1000FEFD0D7F888309845EBD21C
:101C50002AF8180008F10108E6E70026C7F81C80FA
:101C6000B046D7F884A0E2E7C7F81480D7F81C8004
:101C7000D7F8803003F00503FB604FF0000AA1465F
:101C8000C7F81CB09CE000253B6A7BB9002D79D0D9
:101C9000D7F8803013F0010F79D1FB68002B6FD19A
:101CA0000223A9EB030988E00125EDE759463869CD
:101CB00006F0F2F90028E9D06C46002387F82C30B2
:101CC000022387F82D308AB0694611F1100237D00F
:101CD00012251AB1042D01DDB14B4B61002387F8A9
:101CE0002830022387F829306ABB112D45DD1223E5
:101CF00062B1042087F82C00002087F82D0087F8B7
:101D00002E00012087F82F00F86A086128F00108EA
:101D100028F0020828F0040828F03808022161F3AE
:101D20008818C3F30A0363F35328C8F31308002386
:101D300041469C4800F0B4FDA546A9F102093CE0EB
:101D40006FF00045C5E72B46082D01DD3869886135
:101D50000C2B01DDC1F81CB001F12003002009E0CB
:101D600000F1300C07F1280EF4441CF830CC03F8D5
:101D700001CB01300128F3D9B7E76FF01B03B7E7B8
:101D800001238EE7D7F8803013F0020F15D000231F
:101D900022461946B86906F039F9D7F8843053B1AC
:101DA0007B69D7F88820934205D2D7F8842022F89F
:101DB000130001337B61013881440AF1010A354681
:101DC0007B6A9A4510D22E4616F802BB6B78FA69E8
:101DD00052F82340744B9C42FFF455AF734B9C4226
:101DE000FFF462AF00254FE74C4612E707F14400CD
:101DF0000023FB614A462946FEF72EFA4D444FF078
:101E00000008C7F804901BE00026FE61F6E70026F4
:101E1000FE61F3E700253B6A33BB002D3BD0D7F8CA
:101E2000803013F0010F26D0731C06F1300207F149
:101E30002801561806F8149CDEB208F10108254660
:101E40007B6A98454AD22C4614F802AB95F801906B
:101E50005BF82930544A9342DCD3544A934201D36D
:101E60000025D8E70125D6E75146386906F014F970
:101E70000028D2D0E1E7D7F8803013F0040FDCD08F
:101E8000FA69531C303207F128010A4402F8249CF5
:101E9000DBB2FB61D1E7D7F8803013F0020F09D035
:101EA000731C06F1300207F12801561806F8149C3D
:101EB000DEB2C2E7F869431C00F1300107F12802E5
:101EC0008A1802F824AC02460232D2B2FA6107F153
:101ED000580252FA83F303F8249CAEE7D7F8049033
:101EE0009BF8003087F854309BF80130334487F872
:101EF0005530D7F8803013F0020F0ED1FB69C3F3D1
:101F0000470387F85730D7F8803013F0010F06D118
:101F100013F0040F3ED1002302E00023F1E7002379
:101F200087F85630DBF800003863786DCBF8000096
:101F3000D7F814804246B9685846D7F818A0D04759
:101F4000041EFFF666AE386BCBF80000C7F81480AD
:101F50004246F96907F13400D04700285FDB04EB03
:101F60000008B96849447B6A01EB4301D7F8149033
:101F70004A46FB68591A2846D047041EFFF649AE68
:101F800008EB04054FF00008C7F824B0B3465446E8
:101F9000CA4622E0FB69C3E74FF000090AE000BF30
:101FA00098AC00084CAA0008FCA300080CBF00086D
:101FB0004FF000095246012107F12C00A0470028EC
:101FC0002FDB05444B4632465146204606F01EF8AC
:101FD000002828DB054408F10108D84518D208F18B
:101FE000300307F12802134413F8143C87F82C300F
:101FF0007A6A52F82360D7F88430002BCCD0D7F817
:1020000088309845D4D2D7F8843033F81890D1E787
:102010007A6900210846BB6998472C46F9E50446D1
:10202000F7E50446F5E50446F3E500BF014B18600B
:10203000704700BFC000002080B505460E46174619
:10204000984604F045FB034601F0F8FC0446DFF82F
:10205000189049F80030424639463046A84754F8AF
:10206000090001F075FC00BF08000000034A536836
:1020700023F0020353600020704700BF002004E0FB
:1020800008B50B4641680C31012B14D00AD833B97E
:102090000F4B9B685B68C3B10D48984707E06FF032
:1020A000850004E0023BDBB2012B01D8002008BD13
:1020B0006FF08500FBE7064B9B681B6813B1044873
:1020C0009847F4E76FF05700F1E76FF05700EEE73D
:1020D000B4A4000808B5024906F020FB08BD00BF03
:1020E0008120000810B5192808D8064B53F8204065
:1020F000204607F0B8FD18B1204610BD0024FBE7CC
:102100000024F9E744BA0008EFF31182102383F3A7
:102110001288BFF36F8F0B4B1B684BB90A490B68D2
:1021200043F480730B60084B1B6813F4807FFAD074
:1021300004490B6801330B6082F31188BFF36F8F82
:10214000704700BF4C1000200070004010B5EFF346
:102150001184102383F31288BFF36F8F144B1B6815
:10216000A3B9144B0122BFF35B8F53E8001F002972
:1021700003D143E800200028F7D1BFF35B8F0BD1D8
:102180000D4A02210D4806F072FC05E0012B08D033
:10219000074A1368013B136084F31188BFF36F8F04
:1021A00010BD074A136823F480731360F0E700BF83
:1021B0004C10002048100020DCAD0008A4AA000844
:1021C00000700040084B1A6842F480721A601A6866
:1021D00042F400721A601A6842F480621A60034B7B
:1021E000034A1A60704700BF003C0240080100200B
:1021F0000024F40038B505460B4C00E010340B4BBE
:102200009C420FD263685B79002BF7D029462046A9
:1022100006F081FB0028F1D023681B682946204680
:102220009847EBE738BD00BFBCAA0008CCAA00085D
:1022300070B506460D46084C00E01034074B9C4232
:1022400008D223689B69002BF7D02A4631462046E6
:102250009847F2E770BD00BFBCAA0008CCAA0008EE
:1022600008B507F0CAFF0022431819D213440D4ADB
:10227000A2FB03CE2EF0030C0CEB9E0CA3EB0C0385
:10228000C01A61F100014FF0CC3300FB03F302FBF5
:102290000133A0FB02021344400840EAC37008BDAA
:1022A0000122E3E7CDCCCCCC2DE9F0410746054631
:1022B0000AE007EA0807144B03EB06135B680422E5
:1022C0001968204606F067FBD5B195FAA5F6B6FA6F
:1022D00086F60D4C04EB06140123B3406FEA0308A5
:1022E00025EA0305237B002BEED03301064AD358A1
:1022F0001B69002BDDD0204698470028E4D1D8E7A1
:102300003846BDE8F08100BFBCAA00082DE9F041C5
:1023100080460F461F4BBFF35B8F53E8005F6A1C7C
:1023200043E800210029F8D1BFF35B8F6DBB1A4C45
:10233000002607E0636804221968204606F02BFB9C
:1023400001361034154B9C4211D2237B002BF7D061
:10235000204606F0D4FA23681B69002BEAD02046F9
:1023600098470028E6D00123B3401D43E8E7B8F1C1
:10237000000F0BD055B12846FFF796FF0546002FFA
:10238000F8D00A2006F0C9FAF4E700252846BDE88F
:10239000F08100BF64100020BCAA0008CCAA00088D
:1023A00008B5064B186018B1054B1B68092B00DCFB
:1023B00008BD044803F0F6FCFAE700BF58100020FF
:1023C000601000209802002008B5024803F0EAFCE3
:1023D00008BD00BF9802002030B589B000220F4927
:1023E0000F4807F00EFF0F4D00220023CDE9062312
:1023F000002404940E2303930294019400940A4B46
:102400004FF440720949284607F027FD084928463D
:1024100003F03AFD204609B030BD00BFC9230008D3
:10242000600C0020A0070020C9270008401F0020E2
:102430001CAE0008014B53F820007047C0BA0008DA
:1024400048B108B5054A1060054B1960084600F010
:1024500021FD002008BD6FF015007047C40000206A
:102460005410002008B5054B1B781BB1034B01220B
:102470001A7008BD024803F095FCF7E784110020AC
:102480009802002008B5104BBFF35B8F53E8001F84
:10249000013143E80012002AF8D1BFF35B8F30B955
:1024A0000A4804F099FC0A4803F07CFC08BD094B7B
:1024B000BFF35B8F53E8001F013943E80012002A85
:1024C000F8D1BFF35B8FEBE75C100020600C0020BD
:1024D0009802002060100020064B0022BFF35B8FA3
:1024E00053E8000F43E800210029F9D1BFF35B8FC7
:1024F000704700BF5C10002038B5FFF7EDFF0546C0
:10250000094C00E01034094B9C420BD263685B79A4
:10251000002BF7D023685B68002BF3D029462046B8
:102520009847EFE738BD00BFBCAA0008CCAA000856
:10253000034B18680028D4BF00200120704700BF5B
:102540005C10002010B5044C0449204605F034FF0F
:10255000034B1C6010BD00BF38010020ACBA00085E
:102560005010002008B500230C4A13700C4A136069
:102570000C4A13604FF47A710B48FFF761FFFFF7C5
:10258000E1FF0A4A06E0094BD31A1B1101335168D7
:102590000B711032064B9A42F5D308BD851100200D
:1025A0005C1000206010002061220008BCAA000816
:1025B000CCAA000808B50146014806F0BEF908BDDE
:1025C0003801002008B5024805F0D9FF08BD00BF5A
:1025D0003801002008B50146024B186806F0B3F92F
:1025E00008BD00BF5010002008B5024806F0AFF942
:1025F00008BD00BF3801002010B582B000220023C2
:10260000CDE90023304B187808B902B010BD6846F8
:1026100006F0B5F9044680B1FFF7ECFD2046FFF760
:10262000D9FF2A4BBFF35B8F53E8001F013943E802
:102630000012002AF8D1BFF35B8FFFF779FF70B962
:10264000234A1368516813F57A7341F1000113604E
:102650005160A4B3FFF7C8FF98B30120D5E707F096
:10266000CCFD0022431828D213441A4AA2FB03CE01
:102670002EF0030C0CEB9E0CA3EB0C03C01A61F1C3
:1026800000014FF0CC3300FB03F302FB0133A0FB4E
:1026900002021344400840EAC3705B080C490A6810
:1026A0004968801A63EB010340F2E932904273F10A
:1026B0000003C5D3FFF720FFC2E70122D4E70020C3
:1026C000A3E70020A1E700BF8411002060100020D4
:1026D000580C0020CDCCCCCC0F4B1B7803B17047ED
:1026E00010B500210120FFF711FE0C4C00E0103462
:1026F0000B4B9C4208D263685B79002BF7D02368B0
:102700009B6820469847F2E7FFF776FF0028FBD149
:10271000014B01221A7010BD85110020BCAA0008CF
:10272000CCAA000810B582B01A4BBFF35B8F53E8F8
:10273000002F511C43E800100028F8D1BFF35B8F35
:10274000154B1B7863B9154B1B68B3B1BAB1092A95
:1027500013D1134804F040FB124803F023FB0CE0B4
:10276000EFF31184102383F31288BFF36F8FFFF709
:1027700043FF84F31188BFF36F8F02B010BD0022B6
:102780000023CDE9002342F210720023044804F034
:10279000E9FAF2E7601000208511002058100020AF
:1027A000600C00209802002010B50446044B1B6802
:1027B0009847A0602146034806F0E5F810BD00BF29
:1027C000C4000020380100202DE9F0410021084616
:1027D000FFF79CFD804650B14FF4FA76002701F0D8
:1027E0002DF9154B1858FFF7DBFD002515E04FF0CC
:1027F000FF364FF0FF37F2E74046FFF755FD8046C2
:1028000070B94FF0FF364FF0FF3709E02C463246E3
:102810003B460A4803F002FB2546B8F1000FEBD116
:10282000FFF7EAFE04460028F6D1002DEED0002185
:102830000846FFF7FDFCEAE70800000098020020C8
:102840000248034BC01AC008704700BFBCAA00086A
:1028500044AA000810B50C46FFF7F2FFA04203D9C6
:10286000024B53F8340010BD0020FCE744AA0008D6
:1028700000B589B0059206930023079362B1074A19
:102880000C9B02930B9B01930A9B009305ABFFF7F4
:1028900073F909B05DF804FB0022F1E7AD89000887
:1028A0002DE9F04F8BB004AF05461E468846C1F3B4
:1028B0004A24002C00F0898091460022FA603A6197
:1028C0007A6104230293FB1801930A23009307F112
:1028D0000C0321464846FFF74FF9B0F5006F58D377
:1028E000D9F804106D4600233B7302237B738AB032
:1028F00004AC14F1100217D012201AB1042801DD23
:102900003B4B636100233B7002237B70CAB10346DB
:10291000082800DDA1610C2B02DD40F2FF73E361AA
:1029200004F1200300210AE06FF00040E5E701F127
:1029300018063E4416F8186C03F8016B01310129A2
:10294000F5D9112822DD122342B104213973002167
:102950007973B9730121F973F8682061002121F0BE
:10296000010121F0020121F0040121F038010220CF
:1029700060F38811C3F30A0363F353210023C1F307
:1029800013011C4806F095F8AD462DE06FF01B03CF
:10299000DAE760F35328C0F30A0A0AEB185017303D
:1029A00020F007008008FFF705FE8346B0B104233E
:1029B0000293FB1801930A230093534600F110027F
:1029C00021464846FFF754FF08E004EB1154173442
:1029D00024F00704A008FFF7EDFD83463346424686
:1029E0002946584605F0FBFF1C37BD46BDE8F08F71
:1029F00034AE00085CAA00082DE9F04F85B081468E
:102A00000E4690461F46DDF838B0DDF840A0BAF11A
:102A1000000F41D0119B0393009353460F9A10214E
:102A20000020FEF75FFE0546B0F5006F2CD20BEBE1
:102A30000500173020F007008008002424F001046E
:102A400024F0020424F0040469F3C50468F3881434
:102A500065F353246BF31F54FFF7ACFD804650B170
:102A60001030BAF1000F06D0119B009353460F9A15
:102A70002946FEF737FE3B4622463146404605F0E2
:102A8000AEFF05B0BDE8F08F40F2FF73034A0221AC
:102A9000034805F0F6FFF4E70025C8E774AE000828
:102AA0005CAA0008406820B1034BC01A40F3CF0075
:102AB00070474FF0FF30704744AA00080EB400B5CD
:102AC00082B0014603AB53F8042B0193034801F095
:102AD000BDF802B05DF804EB03B07047E98A000866
:102AE00010B584B011F0440F05D01A4B1B6833B9F0
:102AF000002004B010BD1849FFF7E0FFF9E71749BF
:102B00000968B2FBF1F2B2FBF3FC03FB1C224FF4A9
:102B10007A7E0EFB02F2B2FBF3F403FB14210EFBF0
:102B200001F1B1FBF3F10E4AA2FB0C32D20A4FF4D1
:102B3000616303FB12CC0B4BA3FB0CE35B0902911B
:102B40000194C3EB0311ACEB810100910649FFF73F
:102B5000B5FFCEE76C100020ACAE00086810002076
:102B6000C5B3A29189888888B8AE000861B108B55C
:102B70002AB1064A52F8232012B9054A00E0044A55
:102B80000449FFF79BFF08BD704700BFF8BA000873
:102B9000D4AE0008DCAE00082DE9F041054617462A
:102BA000079EDDF8208081B900242EB132461149FC
:102BB0002846FFF783FF0444B8F1000F14D06FB12B
:102BC0000B9B042B13D00C4909E00C4B0B9A53F8C8
:102BD00022200B49FFF772FF0446E6E7064942460A
:102BE0002846FFF76BFF04442046BDE8F081054905
:102BF000F5E700BFF4AE0008E4AE00080CBB000827
:102C0000ECAE0008E0AE00082DE9F04F89B00546B3
:102C10000C46069207939DF8587001F0020B01F0E4
:102C2000010AC1F3C00801F4807905F0B2FE38B39F
:102C3000024618492846FFF741FF0646BBF1000F40
:102C400020D13A465146284605F079FFB9F1000FE8
:102C500001D00023139305979DF854300493149BDF
:102C60000393139B0293129B019300230093069AF4
:102C700041462846FFF790FF304409B0BDE8F08F89
:102C80000026DBE7079A21462846FFF729FF06447E
:102C9000D7E700BFF8AE000811F0100F0BD108B550
:102CA00011F0200F03D00449FFF708FF08BD0349C6
:102CB000FFF704FFFAE77047FCAE000800AF00081A
:102CC0002DE9F04105460F46164698460699FFF74E
:102CD000E3FF002404E025492846FFF7EFFE013416
:102CE0004445F8DB002409E020492846FFF7E6FECA
:102CF0000BE01F492846FFF7E1FE01340F2C0CDCE6
:102D0000002C02DD14F0070FEED0B442F1D23A5D90
:102D100018492846FFF7D2FEEFE717492846FFF784
:102D2000CDFE002409E011492846FFF7C7FE0BE05D
:102D300012492846FFF7C2FE01340F2C13DC002C89
:102D400002DD14F0070FEED0B44207D23A5D0C4B0F
:102D50009B5C13F0970FEBD12E22E9E7034928463D
:102D6000FFF7ACFEE8E7BDE8F08100BF04AF000864
:102D700010AF000808AF000814AF000818AF000833
:102D80000CBE00082DE9F04186B004469DF838508D
:102D90000F9F119E95B9012B21D01A484FF00008C2
:102DA00027B13B462246184905F046F9DEB91DBB5E
:102DB000204605F082FE06B0BDE8F08104959DF83E
:102DC000340003900C980290019300920B4600226D
:102DD00012992046FFF718FF80460C48E0E70B48A1
:102DE0004FF00008DCE7129B0093434632461099EF
:102DF000204605F0BCFEDAE72A461299204605F087
:102E0000AAFED5E7218B00084D3C0008E98A00089E
:102E10002DE9F04383B00646056842F20F738B42FA
:102E200028BF0B46184A0521684604F03FFA0446BD
:102E30007368D3F804900B27DFF8508005E04A460A
:102E400039464046A8473F1A8044002FF7D173689F
:102E5000D3F804806F4605E0424621463846A8472D
:102E6000241A0744002CF7D173685F681B24084EAE
:102E700005E03A4621463046A847241A0644002C6D
:102E8000F7D103B0BDE8F0831CAF0008ECBA00082E
:102E9000D0BA0008074B01221A6004E04008054A36
:102EA00013685B001360044B9842F7D8034B18601B
:102EB000704700BF6810002040420F006C100020D7
:102EC00070B506460D46002405E0315D0448836870
:102ED0005B6898470134AC42F7D3284670BD00BF09
:102EE00004A60008014B03600020704754BB000893
:102EF00008B50348034A121A002105F0C9FE08BDAF
:102F0000280300208811002008B50648064A121A36
:102F1000064905F0C1FE0648064A121A064905F0A0
:102F2000BBFE08BD00000020280300200CBF0008E5
:102F300000000020000000200CBF00082DE9F04137
:102F400082B000AF0446D0F800E0D0F804C0856835
:102F50006E468AB06B4613F1100200F0888014218F
:102F60008AB10846042903DDDFF81C81C3F8148008
:102F7000082801DDC3F818E00C2801DDC3F81CC0E7
:102F8000102800DD1D62132974DD14253AB10521D6
:102F9000397100217971B971F9717868186100216E
:102FA00021F0010121F0020121F0040121F038019A
:102FB000012363F38811C5F30A0565F35321C1F3B7
:102FC000130100233148FFF76BFCB546D4F80CC061
:102FD00026696569E8468AB06B4613F110024CD049
:102FE000142182B10846042903DDDFF8A4E0C3F808
:102FF00014E0082801DDC3F818C00C2800DDDE61EC
:10300000102800DD1D6213293ADD14253AB105218F
:10301000397100217971B971F971786818610021ED
:1030200021F0010121F0020121F0040121F0380119
:10303000012666F38811C5F30A0565F35321C1F330
:103040001301124D00232846FFF72AFCC546E36909
:10305000104A3146284605F014FDA3690E4A314650
:10306000284605F00EFD0837BD46BDE8F0816FF03B
:10307000004175E76FF01B0588E76FF00041B0E78E
:103080006FF01B05C2E700BF60AF00087CAA000814
:1030900090AF0008C0AF0008D0AF000838B50446B4
:1030A0000D4611B10846FFF749FF012C04D029460F
:1030B000204602F071FA38BDEFF30583103B034A56
:1030C0000121034805F0DDFCF1E700BF00B0000876
:1030D0007CAA000830BFFFF7FDBF00BF38B504462B
:1030E000054D2A460549FDF7B7F8054A0021601944
:1030F00004F046F838BD00BF0000000010AB000827
:103100000400000070B50646064D074B1D444C1BDD
:103110002046FFF7E3FF083CC6F8A84005F1080089
:1031200070BD00BF00000000040000008169104B6A
:103130005A6942F480725A61BFF34F8FBFF36F8FA9
:1031400031F8021C5A6922F480725A61BFF34F8F22
:10315000BFF36F8F01F47F43B3F55F4F01D00020C1
:103160007047C9B2022901D0002070470120704782
:1031700000ED00E04FF0000C83F800C002F07F4C3F
:10318000BCF17F4F14D102F00C0CBCF1080F04D03D
:1031900012F0080F09D00846704708B5054A01210A
:1031A000054805F064FC002008BD01221A70704734
:1031B0000020704714B000087CAA000808B52B4A0C
:1031C00001212B4805F053FC2A4B9B6A13F0007F2A
:1031D00021D11D20274B9B6A13F0807F22D1254BE4
:1031E0009B6A13F4002F24D1224B9B6A13F4802F87
:1031F00026D1204B9B6A13F4003F28D11D4B9B6ABC
:1032000013F4803F2AD11B4A936A6FEA03436FEAA3
:103210001343936208BD184A0121154805F027FCA5
:103220001E20D7E7154A0121114805F020FC1F2078
:10323000D5E7134A01210E4805F019FC2120D3E7F8
:10324000104A01210A4805F012FC2220D1E70E4A5B
:103250000121074805F00BFC2320CFE70B4A012191
:10326000034805F004FC2420CDE700BF40B000086F
:103270007CAA000800ED00E058B000086CB000081F
:1032800088B00008A8B00008D0B00008ECB0000872
:1032900008B500230B70034A0121034805F0E7FB42
:1032A00008BD00BF18B100087CAA000890B583B023
:1032B00000AF0F2923DC2F4C103900233B71022370
:1032C0007B718AB0EC461CF110021AD0122022B198
:1032D000042802DD284BCCF8143000233B70022375
:1032E0007B70E2B10346082801DDCCF818400C2BB6
:1032F00001DDCCF81C100CF1200300210DE01F4C67
:10330000DAE76FF00040E2E701F1080404EB070E92
:103310001EF808EC03F801EB01310129F4D911285A
:1033200024DD12234AB10421397100217971B97168
:103330000121F9717868CCF81000002121F0010119
:1033400021F0020121F0040121F03801012060F395
:103350008811C3F30A0363F35321C1F3130100235C
:103360000748FFF79DFA0C37BD4690BD6FF01B0371
:10337000D8E700BF3CB1000870B1000854B10008A4
:103380007CAA0008F8B505460F461446374A0121C5
:10339000374805F06CFB374B9B6A13F4805F25D1EF
:1033A0001626344B9B6A13F4006F26D1314B9B6A6F
:1033B00013F4007F28D12F4B9B6A13F4806F3FD109
:1033C0002C4B9B6A13F4807F41D12A4B9B6A13F4E8
:1033D000005F43D1274A936A43F47F4393620121FC
:1033E000284605F069FC20703046F8BD224A0121CC
:1033F0001F4805F03CFB1726D3E7204A01211C4853
:1034000005F035FB1826D1E71D4A0121184805F0C3
:103410002EFB184A936B926A12F4004F01D11926C1
:10342000C9E7184A0121124805F02BFB37B1114AB0
:10343000936A23F4004393621926BCE71926BAE77E
:10344000114A01210A4805F012FB1A26B8E70F4A73
:103450000121074805F00BFB1B26BBE70C4A0121A5
:10346000034805F004FB1C26B4E700BF84B1000844
:103470007CAA000800ED00E09CB10008B0B1000893
:10348000C4B10008E0B10008F8B1000814B20008A7
:103490002CB200082DE9F04104460F461546464A75
:1034A0000121464805F0E3FA454B9B6A13F0100FE3
:1034B0003CD11026424B9B6A13F0080F3DD1404B84
:1034C0009B6A13F0020F3FD16FF015083C4B9B6ACB
:1034D00013F0010F58D13A4B9B6A13F0200F5AD1C9
:1034E000374B9B6A13F0100F04D1354B9B6A13F0D6
:1034F000020F04D0324B5B6813F4006F52D1304B93
:103500009B6A13F0200F04D02D4A536A23F4005312
:1035100053622B4A936A43F0FF03936201212046D2
:1035200005F0CAFB28703046BDE8F081254A01212C
:10353000224805F09CFA1126BCE7234A01211F48C6
:1035400005F095FA1226BAE7204A01211B4805F03A
:103550008EFA1B4BD3F834809B6A13F0800F03D193
:103560006FF015081326B1E74346194A01211348A5
:1035700005F087FA37B1124A936A23F08003936209
:103580001326A3E71326A1E7124A01210B4805F0F1
:103590006EFA14269FE7104A0121084805F067FAE1
:1035A00015269DE72146404605F0BEFB0028A6D023
:1035B00080F309880226A2E75CB200087CAA000812
:1035C00000ED00E074B20008B0B10008A8B2000835
:1035D000C0B20008D8B200082CB2000870B5064688
:1035E0000D462B4A01212B4805F041FA00232B7090
:1035F000294BDC6A14F002040AD1274BDB6A002B4A
:103600000DDB254BDC6A14F080440ED1204670BDE2
:10361000224A01211F4805F02AFA0024F6E7204A31
:1036200001211C4805F023FAF0E71E4A0121194840
:1036300005F01DFA3046FFF779FD98B9164B9B6AE5
:1036400013F0FF0F16D1144B9C6A14F47F4418D169
:10365000114B9B6AB3F5803FD8D33046FFF7AEFDE0
:103660000446D3E73368104A01210A4805F009FAF5
:103670003468CBE72A4601213046FFF70BFF0446AA
:10368000C4E72A4601213046FFF77CFE0446BDE729
:10369000F8B200087CAA000800ED00E010B30008B2
:1036A00034B3000844B3000864B3000830B58BB0ED
:1036B0001E4B5D68C5F30805002383F31188BFF333
:1036C0006F8F0DF12603FFF755FD04460DF127021C
:1036D000294605F0F3FA9DF827300BB10BB030BD49
:1036E00005460DF1040C20686168A268E368ACE847
:1036F0000F0020696169A269E369ACE80F009DF8D9
:1037000026304BB1089BC3F308024AB96FEA532332
:103710006FEA4323089303E0089B6FF308030893C1
:1037200001A92846FFF7BAFCD8E700BF00ED00E08A
:10373000044B5A6942F010025A615A6922F0080299
:103740005A61704700ED00E0EFF30880EFF3098164
:1037500001B57246FFF7AAFF01BD00BF0C4880F318
:10376000088800200B490870102080F311880A484F
:103770004FF40461401880F30988EFF314800221AC
:10378000084380F31488BFF36F8F00F049F80000FE
:103790004030002087110020802200201EF0040FFE
:1037A0000CBFEFF30880EFF30980816911F8021C68
:1037B0000229FFD001B5724605F072FA01BD00BFC3
:1037C000002807DB00F01F02400901239340024A52
:1037D00042F82030704700BF00E100E0002808DB1D
:1037E0000901C9B200F1604000F5614080F80013A2
:1037F000704700F00F000901C9B2014B195470471E
:1038000014ED00E0044B23F07F03044A9360BFF300
:103810004F8FBFF36F8F70470000000800ED00E08E
:1038200008B5FFF7EFFF0B4AD2F8883023F4700396
:10383000C2F88830EFF3148323F0040383F3148871
:10384000BFF36F8FFFF754FBFFF75EFB00F0CCF880
:1038500002F0A4F800ED00E0104B9B68BBB110F142
:10386000160F0BD0D3F89820A2F1400C844510D845
:10387000824210D98A4207D800207047D3F8982096
:103880008A4201D800207047D3F898007047002082
:103890007047002070470020704700BF481100208B
:1038A00010B4A2F120040E4942F8081C21F00101D5
:1038B00042F8081C42F8203C019B42F81C3C029B49
:1038C00042F8183C039B42F8143C4FF0807342F8D6
:1038D000043C04650023C0F8AC3010BC704700BF46
:1038E0003920000808B50E4615460C4A9060D0F8FD
:1038F000A8200B4B1A6000F0B5F82C4686F3098817
:103900000020044B98472046002100220023024C4F
:1039100020470000378D000839200008481100209A
:10392000A0100020014B10221A61704700ED00E04A
:10393000054B5A699B689A4204D0044A536843F085
:1039400080535360704700BF4811002000ED00E035
:1039500008B50A4B9B68834202D002F0BFFE08BD47
:10396000EFF30583002BF8D0054B5A6842F08052E4
:103970005A605A6A22F400425A62EEE74811002067
:1039800000ED00E015498A684FF030001044EFF375
:10399000098C80E8F01F102080F31288BFF36F8F2E
:1039A0000F4F4FF000664A698A603E60D2F8A80067
:1039B0000C4C2060D2F8AC000023C2F8AC3080F38D
:1039C000118804B5104600F04DF8BDE8044002F13E
:1039D000300090E8F01F8CF30988704748110020F0
:1039E00004ED00E0A0100020002206E003F00F0329
:1039F0000949194410230B760132492A0ADC53B2D3
:103A0000002BF3DB03F1604303F56143102183F8DE
:103A10000013F1E7704700BFFCEC00E008B5EFF3DE
:103A20000583103B044A02EBC301496852F8330096
:103A30008847FFF77DFF08BD58A6000801480068C9
:103A400070470000A010002008B5034B034A012175
:103A5000034805F0AFFA08BD0080012000000020F7
:103A600054BB000808B5D0F89830403B04480360C8
:103A700040234360034B8360012105F09FFA08BD9A
:103A8000A410002000000B15084AC2F898000B682B
:103A900023F01F03034343F01003C2F89C308B68EC
:103AA00043F00103C2F8A030704700BF00ED00E012
:103AB00010B504460A4BD3F89030C3F30723013BFB
:103AC000984203D8FFF7E0FF204610BD0346054AA1
:103AD0000121054804F0D5FF6FF01500F5E700BFA0
:103AE00000ED00E084B3000874AA00082DE9F84353
:103AF00080460F4699461646002509E02146F0B259
:103B000005F03EF9064610F1160F1AD001360135C0
:103B1000BD4216DA05EB450408EB84046268002A0E
:103B2000F5D0B9F1000FE9D0204605F018F90028CA
:103B3000E4D12B46044A0121044804F0A2FF6FF0AF
:103B400015063046BDE8F883ACB3000874AA000837
:103B500010B5034C01232278FFF7C8FF207010BD79
:103B60008611002008B500230B4A1278FFF7BEFF2C
:103B700010F1160F0FD0024606E0084BC3F898204C
:103B80000021C3F8A0100132044BD3F89030C3F3E6
:103B900007239342F1DC08BD8611002000ED00E010
:103BA000044B0522C3F89420BFF34F8FBFF36F8FF0
:103BB000704700BF00ED00E0BFF35F8F024B0022B3
:103BC000C3F89420704700BF00ED00E038B51C4BEF
:103BD0001D681C4BD3F89030C3F307239D422BD8AC
:103BE000FFF7EAFF002409E0154B5B6804EB440192
:103BF00003EB81012046FFF747FF0134A542F3D8CC
:103C00001148057005F0DBF810F1160F13D00E4BBC
:103C10001A780C4BD3F89030C3F307239A4207DA93
:103C2000084BC3F898200021C3F8A0100132F0E738
:103C3000FFF7B6FF002038BD4FF0FF30FBE700BFB5
:103C400060BB000800ED00E08611002070B586B072
:103C500006460D46114668460024009401940294DD
:103C600003940494059402228DF80220044A0192E0
:103C7000049605951A4603F0CBFB06B070BD00BF55
:103C8000C58F000808B5024B1B689847002008BD87
:103C9000B0100020034B1860034A937843F00203EE
:103CA00093707047B0100020D000002008B506497E
:103CB00021F00701C1F1005202F5C032034804F0BF
:103CC0003DF9002008BD00BF47350020B41000209A
:103CD00000B583B0094B93E8030002AB03E903008E
:103CE000074B9B681B682BB169460548984703B092
:103CF0005DF804FB6FF05700F9E700BF10AB000858
:103D0000B4A4000808B500F01F02012393401F2847
:103D100006D8074A526993430CBF0120002008BD12
:103D20000346044A0121044804F0ABFE0020F6E7F4
:103D3000003C0140E4B3000854AA000808B500F0B4
:103D40001F02012393401F2803D8064A5361002015
:103D500008BD0346044A0121044804F092FE6FF0B6
:103D60001500F5E7003C0140E4B3000854AA000840
:103D7000002399420ADD10B400EB030C044C04F854
:103D80000C2001339942F7DC10BC7047704700BF2C
:103D9000E0000020F8B50746002401E00134E4B259
:103DA0007B78A34217D93D7866193046FFF7AAFF02
:103DB0000028F3D03046FFF7C1FF074B53F83620F9
:103DC000002AEBD006F01F0503EBC603596801205B
:103DD000A8409047E2E7F8BDC01000205FFA81FCE0
:103DE0000CF102020A4B53F822200B0C22EA11417B
:103DF00093FAA3F34BB1B3FA83F3984001430CF168
:103E0000020C034A42F82C1070472023F5E700BF4C
:103E100000380140C3B20233074A52F82320030C92
:103E200002EA104093FAA3F31BB1B3FA83F3D8402C
:103E300070472023FBE700BF0038014008B5034668
:103E400068B1B0FA80F2C2F11F02D2B205498856B9
:103E5000054A11680B43136004F055FF08BDFF22AB
:103E6000F4E700BFE0000020003C0140024A136874
:103E700023EA000313607047003C0140032926D861
:103E8000DFE801F0020C151E114B9A6822EA0002CD
:103E90009A60DA6822EA0002DA6070470C4B9A688E
:103EA00002439A60DA6822EA0002DA607047084B3F
:103EB000DA680243DA609A6822EA00029A60704780
:103EC000034B9A6802439A60DA681043D8607047DF
:103ED000003C014010B498B1B0FA80F3C3F11F0365
:103EE000DBB29C460D4850F8330088420AD088B9AE
:103EF0000A4B43F83C1003EBCC035A6010BC7047EC
:103F0000FF23EEE7054C04EBC3035B689342EED15D
:103F10000020F3E76FF00F00F0E700BFC0100020B3
:103F200060B1B0FA80F3C3F11F03DBB2044A002191
:103F300042F8331002EBC30251607047FF23F5E7EC
:103F4000C010002070B544681A4B9D682B6843B3BD
:103F500004F1080117489847064610BB94F845300D
:103F600013F0010F07D004F11001AB69E3B1002297
:103F700010489847C0B994F8453013F0020F07D0A5
:103F800004F11801AB6993B100220A48984770B94F
:103F9000236A09494A6822F4403213434B60304691
:103FA00070BD6FF00406FAE76FF00406F7E76FF0F4
:103FB0000406F4E7B4A40008002301402DE9F04111
:103FC00047680369D7F80080D3F8B85000260EE0A0
:103FD00004EB44021E3A44EA025297F94230012BA4
:103FE0001AD00123A34025EA03050136F6B225B312
:103FF00095FAA5F4B4FA84F40DB94FF0FF34013406
:10400000E4B2013CE4B2092CE2D804EB440244EAF5
:10401000025242F00072E0E70C4B53F82610404683
:1040200005F087F80A4B53F82630D8F82C2022F4F4
:1040300070021343C8F82C30D3E7D8F8043043F4A7
:104040008073C8F804300020BDE8F08158BC000837
:1040500018BC00084900036813B19B8903FB0111D8
:10406000C3688B4201D30020704700B583B0009134
:10407000044A0121044804F00FFD6FF00B0003B067
:104080005DF804FB28B4000844AA000870B5446831
:104090002568002300E0013394F940209A4205DDB1
:1040A00091F810C0A06AC05C8445F4D19A420AD04D
:1040B0006A6802F04072E16A9E0051F82330934230
:1040C00009D1002070BD0B4A01210B4804F0CFFC40
:1040D0006FF01500F6E70021284604F0FCFF0028E9
:1040E000F0D1E36A9B596A6822F0407213436B6017
:1040F000E8E700BF50B4000844AA000810B54468BF
:1041000021B30A4643F6FF73994221D08B0B032B50
:104110000CD10020072811DC00F1180334F813300B
:1041200043F44043934210D00130F3E7094A0121A0
:10413000094804F09CFC6FF0150006E0074A0121D5
:10414000054804F094FC6FF0150010BD0020FCE75A
:104150000720FAE764B4000844AA00088CB40008F9
:1041600070B50D46446826681146FFF7C7FF002862
:1041700017DB94F941303BB1002B19DB013BDBB27B
:10418000012B15D800200CE0092D0BD805EB4503B9
:1041900045EA035343F000710246304604F0EAFF5B
:1041A000002070BD05EB45031E3B45EA0351F3E7D4
:1041B000034A0121034804F05AFC6FF01500F0E7B0
:1041C000B0B4000844AA000808B5436893F8453025
:1041D00013F0100F03D10B7913F0200F0DD10B78D2
:1041E000092B12D14B78042B17D10B794A8803F095
:1041F0001F01FFF7B5FFC0B908BD104A01211048E3
:1042000004F035FC6FF01500F6E70E4A01210C486A
:1042100004F02DFC6FF01500EEE70B4A0121084871
:1042200004F025FC6FF01500E6E7084A0121044878
:1042300004F01DFC6FF01500DEE700BFE8B40008D5
:1042400044AA000818B5000830B500084CB50008AD
:1042500000B583B003460830D3F8903063332CBFE9
:104260004FF0010C4FF0000CC3F31302190D41EA9B
:104270000C311144104AA2FB01E2D20802EB820287
:1042800002EB82028A1A9B1A6CF1000C0B490C4A51
:1042900003FB02F201FB0C22A3FB01310A449B0841
:1042A00043EA82739208009301920022002302F0F5
:1042B00059FD03B05DF804FB1F85EB51295C8FC2EB
:1042C000F5285C8F2DE9F04107460D4643680669E5
:1042D000D3F800808B68C6F8AC304868C6F8B800E0
:1042E000FCF756FAC0B286F8BC00002386F8BD3051
:1042F0002B7C86F8B430002838D010283ED82946C8
:104300003846FFF7C3FE041E41DB3846FFF756FE72
:10431000041E42DB96F8BC102846FFF79BFE0446BD
:10432000002840D16B7C002B43D1AB7C002B48D1C3
:10433000404604F0BFFE6FF02003C8F80030D8F804
:10434000083043F48063C8F80830D8F8043043F0EC
:104350002003C8F804302946304604F03FFF3046B9
:1043600004F06BFF04462046BDE8F081194A0121A4
:10437000194804F07CFB6FF01504F4E71023174A8A
:104380000121154804F07DFB6FF01504EBE7144A9A
:104390000121114804F06BFBE5E7124A01210E48A8
:1043A00004F065FBDFE7104A01210B4804F05FFBD6
:1043B000D9E70E4A0121084804F059FB6FF0850443
:1043C000D1E70B4A0121044804F051FB6FF085044A
:1043D000C9E700BF64B5000844AA00087CB500081E
:1043E000A8B50008CCB50008ECB5000800B6000878
:1043F0001CB60008F8B5056946683768C5F8A80016
:10440000FF2385F8BE3085F8BF30FFF79BFD002104
:10441000706A04F062FF041E0CDB736803B19847F6
:104420000121384604F057FE284604F04EFF0024D0
:104430002046F8BD14F1020FEFD02346024A0121B5
:10444000024804F01EFBF3E738B6000844AA00084F
:1044500070B50446066943681D682B6813F0200F89
:1044600015D12B6813F0020F10D0EA6CD6F8AC30DF
:10447000991CC6F8AC101A8096F8BD300133DBB237
:1044800086F8BD3096F8BC20934209D070BD6FF01D
:1044900020032B60064A0121064804F0E8FAE0E711
:1044A000002386F8BD302146304604F062FFEDE778
:1044B00058B6000844AA000808B50248FFF7C8FF2C
:1044C00008BD00BF3CA600080C4B1B6813F0020F90
:1044D00009D10A4A136843F001031360074B1B68B4
:1044E00013F0020FFAD0054A936823F00303936098
:1044F000024B9B6813F00C0FFAD170470038024052
:104500000C4B1A6842F480221A601A6842F4803216
:104510001A60084B1B6813F4003FFAD0054A536F2A
:1045200043F001035367034B5B6F13F0020FFAD0A4
:10453000704700BF00380240F8B50C461546424BA4
:104540001E680221304604F060FF07460121304614
:1045500004F05BFF2388C3F30B010B46442929D8E1
:1045600009B2002968D0013B432B68D8DFE803F08B
:104570003D53565A5D3F4967676767676767676777
:1045800067676767606267676767676767676767C7
:1045900067676767676767676767676767676735DD
:1045A000676767356767673767676767676767392B
:1045B0006767673BA8290DD12E602368B3F5805F3C
:1045C00040D32A68C3F313330133B2FBF3F22A60FA
:1045D000002036E06FF0850033E02E60EDE72E60BE
:1045E000EBE72F60E9E72860E7E72E60E5E700F0FA
:1045F000CFF804234FF4A872082104F0FFFE2860CE
:10460000DBE700F0C5F807234FF4A872082104F097
:10461000F5FE2860D1E700232B60CEE74FF4FA4384
:104620002B60CAE700232B60C7E7084B2B60C4E769
:104630002E60C2E72E60C0E76FF0850001E06FF0EA
:104640008500F8BD0020FCE70801002000127A0078
:1046500008B51B4B9B6803F00C03082B27D0184AA6
:10466000136823F080731360154B1B6813F0007FF1
:10467000FAD1144AD2F8043823F4403343F4803397
:10468000C2F80438D2F8043823F0706343F0E063D2
:10469000C2F8043800F080F8094A136843F08073C8
:1046A0001360074B1B6813F0007FFAD008BDFFF7BB
:1046B0000BFF034A936823F0F0039360CFE700BF3A
:1046C0000038024000300240162806D8064BC3408E
:1046D00013F0010F04D0002070476FF08500704781
:1046E0006FF08500704700BFEA00600038B500F049
:1046F00077F8234C204604F005FF00F053FE214BD1
:104700009B68C3F30313204AD35C20FA03F51378A4
:104710001C41A5422CD3FFF7F3FEFFF799FF194A7E
:10472000936823F0F0039360936823F0030343F04E
:1047300002039360134B9B6803F00C03082BF9D121
:10474000A54219D2114B0E4A1A600E4B9A6822F4F8
:10475000E05242F480529A609A6822F460429A6071
:10476000D3F88C2022F08072C3F88C20002038BD52
:10477000204600F085FECEE7204600F081FEE1E70E
:1047800000BD01050038024058BD000808010020A6
:104790000048704700127A0008B504F0B4FE0C4BD4
:1047A00059680C4A0A4040F4A84141F008010A4304
:1047B0005A605A6822F4403242F480325A60596892
:1047C000054A0A40054901430A435A6008BD00BF33
:1047D000003802400080BFFF0080BFF0085400078F
:1047E00082B0064B1A6C42F080521A641B6C03F0C4
:1047F00080530193019B02B0704700BF0038024014
:1048000010B504460A2806D0E1B2064883685B6802
:104810009847204610BD034883685B680D21984780
:10482000F2E700BF04A6000810B5044C2046FFF7CD
:1048300031FA2046FDF7FAFB10BD00BF0148000821
:1048400008B5054805F00FFA18B1FFF7EDFF002095
:1048500008BD6FF01200FBE704A600082DE9F8433D
:1048600080460F4616461C46D0F80490D9F808003A
:1048700004F000FCB6F5001F0ED00546B6F5800F1B
:104880002AD0B4F1806F0ED0B4F1C06F0DD0B4F166
:10489000007F24D1022609E03946D9F8080004F047
:1048A00006FF002415E0012600E0032642460F49DA
:1048B0002846FFF70FFB0446A0B9D9F80810384680
:1048C00004F0DDFB31462846FFF7D8FA2846FFF70B
:1048D000B5FA2046BDE8F8836FF08504F9E76FF07C
:1048E0001504F6E76FF00F04F3E700BFD195000859
:1048F0002DE9F843D0F80480A9B10F46EFF31183F6
:10490000102282F31288BFF36F8F9946494AD2680A
:1049100012F0100F0FD183F31188BFF36F8F6FF078
:104920003C00BDE8F883444A0121444804F09FF864
:104930006FF01500F5E73F4804F0BBFF06463D4B1E
:104940001D6825F07F4525F4400525F4004525F038
:104950008005384B9C6AA4B29B6A9BB29C42F8D1FA
:10496000344B1B6823F07F4323F4400323F40043BC
:1049700023F08003AB42E2D12E4804F09AFFB0420C
:10498000D9D189F31188BFF36F8F06F00F03C6F3F7
:10499000031202EB820203EB4203DBB264337B615E
:1049A000C6F30323C6F3033202EB820203EB420396
:1049B000DBB2013B3B61C6F30343C6F3035202EB98
:1049C000820203EB4203DBB2FB60360E072E2ED0D1
:1049D000BE61C5F303422B0D03EB830302EB4303DC
:1049E000BB60C5F30323C5F3023202EB820203EB83
:1049F0004203DBB27B6005F00F03C5F3021505EB44
:104A0000850503EB4503DBB23B60D8F80420141B9B
:104A100000250B4801322B46A4FB0001FBF79EFE4C
:104A200078624FF0FF33FB613B62284679E7002351
:104A3000BB61CEE70028004014B700088CAA00082C
:104A400000CA9A3B38B5104BDB6813F0400F16D103
:104A50000D4B4FF0FF32DA6000F090FC05460A4B38
:104A6000DC6814F0400406D100F088FC401B074BC2
:104A70009842F4D900E001241CB1002000E000209D
:104A800038BD6FF07300FBE7002800401F480100AD
:104A90002DE9F04F83B04B6903F26C73B3F5FA6FF5
:104AA000C0F096808869B0F1FF3F00F0948091F8E3
:104AB00008904A4AA2FB0954E5082C4605EB8505F7
:104AC000A9EB450949EA04195FFA89F90E79A2FBB5
:104AD0000654E5082C4605EB8505A6EB450646EA97
:104AE0000416F6B291F80080A2FB0854E5082C46A3
:104AF00005EB8505A8EB450848EA04185FFA88F835
:104B00003033DBB2A2FB0354E7083D4607EB8707CF
:104B1000A3EB470444EA0514E4B20D690135EDB294
:104B2000A2FB0573DF083B4607EB8707A5EB4705AC
:104B300045EA0315EDB20F7BA2FB0732D3081A46F4
:104B400003EB8303A7EB430747EA0217FFB20028F2
:104B50003BD00190EFF3118A102383F31288BFF347
:104B60006F8FFDF7D1FA1E4BCA225A6253225A6246
:104B7000FFF768FF8346C0B9360246EA094646EAAF
:104B80000806174A136823F07F1323F4FE431E43DD
:104B900016602404019B44EA433444EA05243C4360
:104BA0005168104B0B40234353600D4B6FF0800254
:104BB000DA60FF225A62FDF7C9FA8AF31188BFF35F
:104BC0006F8F584603B0BDE8F08F07230193C1E70C
:104BD0006FF0150BF5E76FF0150BF2E7CDCCCCCCF1
:104BE00000280040C00000FF38B544681D4B98689D
:104BF0001A69C2F30E021969C1F30641CA255D6242
:104C000053255D6210F0400F02D16368934224D0B7
:104C1000FFF718FF88B9134B9A6822F040029A6098
:104C2000626819696FF30E010A431A6121681A69F3
:104C300022F4FE0242EA01421A610A4B6FF080023E
:104C4000DA60084B9A6822F408029A609A6842F087
:104C500020029A60FF225A6238BD23688B42D7D166
:104C60000020EEE70028004070B54568A9681A4B9F
:104C70009E683368F3B1044617489847D0B9FDF7EA
:104C800043FAA968CB68FF2B07D00831B369CBB1D1
:104C9000002211489847002814DB104A136F43F490
:104CA000004313672046FFF79FFF0446FDF74EFAC7
:104CB000204670BD0A4A01210A4803F0D8FE6FF071
:104CC0000404F5E7FDF742FA074A0121054803F01D
:104CD000CEFE6FF00404EBE7B4A4000800380240F5
:104CE0002CB700088CAA000840B7000810B504468D
:104CF000B2F5004F2FD04FF0000C48184CEB0C0CC5
:104D000040184CF1000C4FEACC0C4CEA507CC0002F
:104D100040184FEA83024FEA93734CF10001FBF70E
:104D20001DFD2449A1FB00235B091A0192B24FF03B
:104D3000640C0CFB13031B013233A1FB0313C3F3FD
:104D40004F1303F0F0010A4492B203F00F0313442F
:104D50009BB2A36010BD4FF0000C48184CEB0C0246
:104D6000401842F10002D20042EA5072C0004018DE
:104D700042F10001DA184CEB0C03FBF7EFFC0D4994
:104D8000A1FB00235B091A0192B24FF0640C0CFBEB
:104D90001303DB003233A1FB0313C3F34F1359009A
:104DA00001F4F8710A4492B203F0070313449BB272
:104DB000A360CFE71F85EB5108B5024A04F0E0FD80
:104DC00008BD00BFEF99000808B5024A04F0F2FDE3
:104DD00008BD00BFF599000810B543685868196907
:104DE00083681B6823B19847044618B9204610BD54
:104DF0006FF05704024A0121024803F038FEF5E73C
:104E000074B70008B4AA00082DE9F04184B000AFDF
:104E10004368D3F80080002900F0A88005460E46BC
:104E2000586819698368DB68002B3FD007F10C02D2
:104E30009847041E3CDBD8F80C3023F40043C8F834
:104E40000C30FC68002120194941001941F1000192
:104E5000C90041EA5071C00000194FEA86024FEACA
:104E6000967341F10001FBF779FC424AA2FB003145
:104E70004909642303FB11031B013233A2FB032303
:104E80005B0903F0F00202EB011203F00F0313447D
:104E90000F2B13D93346002221464046FFF726FF49
:104EA000002420461037BD46BDE8F0816FF057045E
:104EB000314A0121314803F0DAFDF2E729686D46F5
:104EC00000233B7202237B728AB06C4614F11002FD
:104ED00015D012201AB1042801DD294B636100238B
:104EE0003B7102237B71BAB10346082800DDA16142
:104EF0000C2B00DDE66104F1200300210AE06FF0D5
:104F00000040E7E701F110063E4416F80C6C03F888
:104F1000016B01310129F5D9112824DD122342B199
:104F20000421397200217972B9720121F972B868CD
:104F30002061002121F0010121F0020121F0040192
:104F400021F03801012060F38811C3F30A0363F3F1
:104F50005321C1F3130100230848FDF7A1FCAD461E
:104F60006FF015049DE76FF01B03D8E76FF0150491
:104F700097E700BF1F85EB5194B70008B4AA00085B
:104F8000C4B700082DE9F0410C4643681D68036969
:104F90001E680B79012B04D0022B0DD14FF48068D1
:104FA00001E04FF4C0686279012A08D0022A08D0D3
:104FB0001ABB4FF4805706E04FF00008F3E70027D4
:104FC00001E04FF4405794F806C0BCF1040F17D02D
:104FD000CBB94FF0000ED91EC9B2012952D913B175
:104FE000BCF1040F51D0B7F5805F0FD0B7F5405F2B
:104FF0000ED0002F3BD101230BE04FF40057E2E726
:105000004FF4805EE7E74FF4805EE4E7002300E0C2
:1050100002239A423CD1BEF1000F2AD1B8F1000F11
:105020002ED103239C4536D1E37963B1012B35D1D1
:105030001F4B9D4207D0A3F54C439D4203D003F57F
:1050400050439D422DD1EB6823F40053EB60214681
:1050500004F020FD002827DBEB6843F40053EB60ED
:1050600094E8030086E803000020BDE8F0810323F4
:10507000CFE7B8F1000F01D10423D3E70323D1E731
:105080000223CFE76FF08500EFE76FF08500ECE7D4
:105090006FF08500E9E76FF08500E6E76FF08500C7
:1050A000E3E76FF08500E0E76FF08500DDE700BF24
:1050B00000100140F8B505464668346803691F686A
:1050C000E36823F40053E360B06804F0CCFD08B358
:1050D000F168B06804F001FC04F10C0353E8003FF0
:1050E00043F00C0304F10C0141E80032002AF3D133
:1050F0003946284604F0CEFC002813DB337E1BB172
:10510000636943F008036361E36843F40053E360B9
:105110000020F8BD054A0121054803F0A8FC6FF006
:105120001200F6E76FF01500F3E700BFDCB70008E8
:10513000B4AA00084FF0E023996918699A6909B97F
:105140000C4B19680AB90B4B1A6810F4803F01D157
:10515000914208D208490B680648006803440B6076
:105160004FF0E0231B69034B1B689B1A024A10682F
:10517000184470474411002040110020094B1022B0
:1051800083F82320084B42F2D0021A600020074B1C
:1051900018604FF0E02342F2CF025A619861072273
:1051A0001A61704700ED00E044110020401100201A
:1051B000684620F007018D4619B5FFF7BBFF12487E
:1051C0000368124A516814681B1941F10001136009
:1051D0005160002202600E490A68981A0D4BA3FB29
:1051E0000030400B42F2D00300FB03F3D2184B68AF
:1051F00043F100030A604B6004F001FDFEF798FBE9
:10520000BDE819408546704740110020A00C0020E1
:10521000980C00202D34A9F9F8B500294DD0B0F133
:10522000FF3F3FD03F4B1C6801284EDD40F2CD735D
:105230009842A8BF1846461EEFF31185102383F34A
:105240001288BFF36F8FFFF775FF4FF0E0239F6960
:10525000354A13685168C31841F100011360516069
:105260000021324A1160324A11685A1A2FD442F290
:10527000D00000FB062202F503520F322D4EA6FB92
:105280000262520BC91A00FB02110A46B1F5806F87
:1052900038BF4FF48062284B994236D9214B264AB9
:1052A0001A6018E04FF0E022136923F00103136144
:1052B0001C4B4FF07F421A6026E01A4B1C68B0F17D
:1052C000FF3FB1D140F2CC70B0E70026B4E7154BF8
:1052D0004FF480621A604FF0E0239969114A126816
:1052E000013A5A6100229A618F4211D2641A3C44F9
:1052F0000D4A136851681B1941F100011360516098
:1053000085F31188BFF36F8FF8BD064B1A60E2E793
:105310007F1A054A13685168DB1941F100011360D7
:105320005160EDE744110020A00C00204011002046
:10533000980C00202D34A9F9C0D5FF0038B5EFF343
:105340001185102383F31288BFF36F8F084B1C68FD
:10535000084B1B68E41AFFF7EDFE204485F3118823
:10536000BFF36F8F044BA3FB0030400B38BD00BF71
:10537000A00C0020980C00202D34A9F938B5EFF3CB
:105380001185102383F31288BFF36F8F044B1C68C1
:10539000FFF7D0FE204485F31188BFF36F8F38BD2F
:1053A000A00C002008B5334B9B6803F00C03042BC2
:1053B0005BD0082B5BD12F4B5A6802F03F025B6831
:1053C00013F4800F2CD02B4B5868C0F388104FEA91
:1053D000401CBCEB000C6EEB0E0E4FEA8E1343EA42
:1053E0009C634FEA8C11B1EB0C0163EB0E03DB0005
:1053F00043EA5173C90011EB000C43F10003590259
:1054000000234FEA4C2041EADC51FBF7A7F9194B86
:105410005B68C3F3014301335B00B0FBF3F008BDED
:10542000144B5868C0F388104FEA401CBCEB000CCA
:105430006EEB0E0E4FEA8E1343EA9C634FEA8C111B
:10544000B1EB0C0163EB0E03DB0043EA5173C900BF
:1054500011EB000C43F10003990200234FEA8C206A
:1054600041EA9C51FBF77AF9D1E70348D7E70348B3
:10547000D5E700BF0038024000127A000024F40093
:10548000024600283CD0204B19681B6803F44043B7
:10549000B3F5004F1BD000211B4B1B6803F44043A6
:1054A000B3F5804F1FD0194A136823F007030B434D
:1054B00013600222154B1B6803F00703013A99425F
:1054C00001D0002AF6D199421CD001207047104B20
:1054D000984204D80F4B984203D80021DCE7022100
:1054E000DAE70121D8E70A4B9A4200D931B1094BDA
:1054F0009A42D8D90029D6D10121D4E70221D2E796
:10550000012070470020704700700040003C0240BE
:105510000087930380C3C90104280CD8DFE800F09A
:10552000030D0507090006487047064870470648FE
:10553000704706487047064870470648704700BFE6
:1055400024B8000848B8000858B8000864B8000833
:1055500074B8000834B8000830B108B504F070FC25
:1055600020B1037823B108BD024870470148FAE72B
:105570000048F8E784B8000810B50446FDF7ACF819
:10558000034A0121034803F072FA204604F07BFB32
:105590008CB800087CAA00082DE9F04782B000AF63
:1055A00005460C46EFF31188102383F31288BFF3EE
:1055B0006F8FDFF8C491D9F80860FFF7ADFF99F855
:1055C0001010E94601233B7103237B718AB0EC463E
:1055D0001CF1100221D04FF0160E5AB17346BEF1E5
:1055E000040F03DDDFF894A1CCF814A0082B01DD33
:1055F000CCF8185001233B7003237B70D2B1734663
:10560000BEF10C0F01DDCCF81C00102B01DDCCF835
:1056100020100CF1240300210AE06FF0004EDCE7BB
:1056200001F10800384410F8080C03F8010B0131AF
:105630000129F5D9BEF1150F50DD16234AB1052118
:10564000397100217971B9710121F9717868CCF84B
:105650001000002121F0010121F0020121F00401DC
:1056600021F03801012060F38811C3F30A0363F3CA
:105670005321C1F3130100234148FDF711F9CD4631
:105680001CB1E369C3F308035BBB3046FFF764FF5B
:10569000E94601233B7103237B718AB0EC461CF180
:1056A000100224D04FF0120E52B17346BEF1040F17
:1056B00002DD3449CCF81410082B01DDCCF8186059
:1056C00001233B7003237B70F2B1BEF10C0F01DDAF
:1056D000CCF81C000CF12003002113E06FF01B0339
:1056E000ACE7294A0121264803F0C1F9CDE76FF064
:1056F000004ED9E701F10800384410F8080C03F80F
:10570000010B01310129F5D9BEF1110F31DD122351
:105710004AB10421397100217971B9710121F971FE
:105720007868CCF81000002121F0010121F002017D
:1057300021F0040121F03801012060F38811C3F346
:105740000A0363F35321C1F3130100230C48FDF74F
:10575000A7F8CD4621462846FFF70EFF88F31188AB
:10576000BFF36F8F3046FEF7F3F80837BD46BDE84C
:10577000F0876FF01B03CBE7481100209CB80008AE
:105780007CAA0008E8B80008C4B8000810B586B0C4
:10579000B823114C03FB004400EB400C00EB8000ED
:1057A0000E4B03EB80030E4A0592012204920F2256
:1057B000039200220292019200930A4B4FF4A072CE
:1057C000094901EBCC11204600F070FB237C23F04B
:1057D0000403237406B010BDA80C0020481100205B
:1057E00000B90008979C0008C02A002038B505467B
:1057F0000B4B53F8204002E02368984708346B1C99
:10580000074A52F82330A34209D960680028F3D030
:10581000037E13F0010FF1D104F00CFAEEE738BD6E
:1058200068BD000808B553EA020102D100F02CFF60
:1058300008BD0249183001F0E7F8F9E70BA00008AD
:1058400010B586B0184C14E0636A0593236A04937C
:10585000E3690393A3690293636901932369009346
:10586000E368A2686168206800F020FB23685C653B
:1058700030340E4B9C42E7D300F0ECFD0A4C03E0C1
:105880002068FFF7CFFF3034084B9C4208D2A26A51
:10589000E36AB3F1FF3F08BFB2F1FF3FF3D0EFE798
:1058A00000F0F0FD06B010BDA8A80008C8A90008C7
:1058B00008B50A4B01221A700320FFF797FF01F089
:1058C000E9FA0420FFF792FFFFF7BAFF04F01DFD8D
:1058D000034A938923F00103938108BD87110020B7
:1058E000600D002008B50146014A0248FDF7FAFFA5
:1058F000B1580008600D002010B50446FFF746FFC0
:10590000B8230B4903FB04110A4A04EB840302EB9E
:105910008303D9601C7404EB4411074B03EB811320
:1059200003F5046304EB840402EB8402536010BDAE
:10593000A80C0020481100208022002070B586B0FD
:1059400000F0D2FD104D114B5D61114B0593012309
:105950000493002403940294019400940D4B4FF49B
:1059600080620D49284600F0A1FA06462B7C23F000
:1059700004032B74284604F0F3FA2046FFF7BCFF1B
:10598000304606B070BD00BF600D002048110020F9
:1059900008B90008B1580008402C002008B50020C4
:1059A000FFF724FF194B83F30888194C636943F40C
:1059B00000736361F02384F822300023E3772376B9
:1059C0006376A37684F82030636A43F4E02363624D
:1059D000FDF7AEFEFDF7A6FF4FF0FF33A362E362D3
:1059E000FEF7F4F8FEF730F8FCF7BCFD094800F0CC
:1059F000BFFAFCF7E7FB0120FFF7F8FE0220FFF7F4
:105A0000F5FEFFF79BFFFFF76DFF00BFC02A0020E8
:105A100000ED00E0180E00202DE9F04182B00446B0
:105A20000E469DF82000EFF31187102181F31288B4
:105A3000BFF36F8FB846256AE1688D4251D2256861
:105A4000AC4225D025B36A682B6813605A604FF0CA
:105A50000008C5F80080C5F804802B7C23F0020301
:105A60002B74C5F8088005F1180004F083FBA268C8
:105A700031466869FAF7F0FBC5F8B080284604F0B3
:105A80006FFA394604F1080004F004FB002031E00D
:105A9000A8B9A26923699A4220D0A069A268801A95
:105AA000A0613146FAF7D8FB236A01332362102143
:105AB00004F1240004F00AFC0028E2D116E0A268F8
:105AC0003146E069FAF7C8FBE369A2681344E36171
:105AD00062699342E8D12369E361E5E76369A36101
:105AE000DBE753EA020108D16FF0220088F3118846
