:020000040800F2
:10000000C02F0020553700088387000841370008BB
:100010004137000841370008413700080000000060
:1000200000000000000000000000000095370008FC
:1000300041370008000000007D390008ED4D000840
:10004000153A0008153A0008153A0008153A000854
:10005000153A0008153A0008153A0008153A000844
:10006000153A0008153A0008153A0008153A000834
:10007000153A0008153A0008153A0008153A000824
:10008000153A0008153A0008153A0008153A000814
:10009000153A0008153A0008153A0008153A000804
:1000A000153A0008153A0008153A0008153A0008F4
:1000B000153A0008153A0008153A0008153A0008E4
:1000C000153A0008153A0008153A0008153A0008D4
:1000D000153A0008153A0008153A0008153A0008C4
:1000E000153A0008153A0008153A0008153A0008B4
:1000F000153A0008153A0008153A0008153A0008A4
:10010000153A0008153A0008153A0008153A000893
:10011000153A0008153A0008153A0008153A000883
:10012000153A0008153A0008153A0008153A000873
:10013000153A0008153A0008153A0008153A000863
:10014000153A0008153A0008153A0008153A000853
:10015000153A0008153A0008153A0008153A000843
:08016000153A0008153A0008E9
:1001800030B490F800F020F007016FF0000C10F090
:10019000070491F820F040F048804FF000046FF021
:1001A0000700D1E9002391F840F000F1080082FA3D
:1001B0004CF2A4FA8CF283FA4CF3A2FA8CF34BBB08
:1001C000D1E9022382FA4CF200F10800A4FA8CF281
:1001D00083FA4CF3A2FA8CF3E3B9D1E9042382FA4F
:1001E0004CF200F10800A4FA8CF283FA4CF3A2FA64
:1001F0008CF37BB9D1E9062301F1200182FA4CF29C
:1002000000F10800A4FA8CF283FA4CF3A2FA8CF302
:10021000002BC6D0002A04BF04301A4612BAB2FA24
:1002200082F200EBD20030BC7047D1E9002304F029
:100230000305C4F100004FEAC50514F0040F91F85E
:1002400040F00CFA05F562EA05021CBF63EA0503FB
:1002500062464FF00004AAE7844641EA000313F027
:1002600003036DD1403A41D351F8043B40F8043BBD
:1002700051F8043B40F8043B51F8043B40F8043B80
:1002800051F8043B40F8043B51F8043B40F8043B70
:1002900051F8043B40F8043B51F8043B40F8043B60
:1002A00051F8043B40F8043B51F8043B40F8043B50
:1002B00051F8043B40F8043B51F8043B40F8043B40
:1002C00051F8043B40F8043B51F8043B40F8043B30
:1002D00051F8043B40F8043B51F8043B40F8043B20
:1002E00051F8043B40F8043B403ABDD2303211D3C0
:1002F00051F8043B40F8043B51F8043B40F8043B00
:1003000051F8043B40F8043B51F8043B40F8043BEF
:10031000103AEDD20C3205D351F8043B40F8043BBF
:10032000043AF9D2043208D0D2071CBF11F8013BBD
:1003300000F8013B01D30B8803806046704700BF83
:10034000082A13D38B078DD010F003038AD0C3F192
:100350000403D21ADB071CBF11F8013B00F8013B74
:1003600080D331F8023B20F8023B7BE7043AD9D333
:10037000013A11F8013B00F8013BF9D20B78037008
:100380004B7843708B788370604670477BB972B945
:100390000029BEBF00204FF0004106E008BF002842
:1003A0001CBF6FF000414FF0FF3000F057B8ADF1C7
:1003B000080C6DE904CE002909DB002B1ADB00F0E4
:1003C00062F8DDF804E0DDE9022304B07047404242
:1003D00061EB4101002B1BDB00F055F8DDF804E078
:1003E000DDE9022304B0404261EB4101524263EB7C
:1003F00043037047524263EB430300F044F8DDF8D7
:1004000004E0DDE9022304B0404261EB41017047A2
:10041000524263EB430300F036F8DDF804E0DDE917
:10042000022304B0524263EB4303704753B94AB905
:10043000002908BF00281CBF4FF0FF314FF0FF30EC
:1004400000F00CB8ADF1080C6DE904CE00F01BF81B
:10045000DDF804E0DDE9022304B07047704700BF17
:10046000430803F05533C01A00F03333800800F01E
:100470003330184400EB10104FF0013300F00F3010
:100480005843000E70472DE9F0478C468E46089E73
:10049000154604461946002B40F0D080724547D9D6
:1004A000B2FA82F74FB1C7F120030EFA07FC20FA27
:1004B00003F3BD4043EA0C0CBC404FEA154EA8B212
:1004C000BCFBFEF8230C0EFB18CC08FB00F943EA3A
:1004D0000C43994528D9EB1808F1FF3204D299450D
:1004E00002D9A8F102022B44A3EB0903A4B2B3FB87
:1004F000FEFC0EFB1C330CFB00F044EA0344A0425C
:1005000014D92C190CF1FF3304D2A04202D9ACF15A
:1005100002032C44241A43EA02401EB1FC4000238B
:1005200034607360BDE8F0874246DDE76346F1E77B
:10053000002A79D0B2FA82F3002B3FD01946C1F1DC
:10054000200302FA01F52EFA03F20EFA01FE20FA58
:1005500003F343EA0E034FEA154E00FA01F4B2FB2F
:10056000FEFCAFB20EFB1C201A0C0CFB07F842EA93
:10057000004290455AD9AA180CF1FF3004D2904598
:1005800002D9ACF102002A44A2EB08029BB2B2FBF2
:10059000FEFC0EFB1C220CFB07F743EA02439F42C2
:1005A00046D9EB180CF1FF3204D29F4202D9ACF1CC
:1005B00002022B44DB1B42EA004202E0AEEB0203E4
:1005C00001224FEA154EAFB2B3FBFEFC200C0EFB2E
:1005D0001C330CFB07F840EA034398452AD9EB1873
:1005E0000CF1FF3004D2984502D9ACF102002B4443
:1005F000A3EB0803A4B2B3FBFEFC0EFB1C330CFB05
:1006000007F744EA0344A74216D92C190CF1FF332B
:1006100004D2A74202D9ACF102032C44E41B43EA02
:1006200000400F46114678E71F2188E76046ABE798
:100630006246BFE76046DBE76346EFE7734506D9EE
:1006400016B9002108466DE7C6E9000EF9E7B3FACE
:1006500083F787B9734501D3824207D8841A6EEBBA
:10066000030301209C461EB900215BE73846FAE7E8
:10067000C6E9004CF8E7C7F1200CBB4022FA0CF5A4
:100680001D4320FA0CF12EFA0CF30EFA07FE41EA94
:100690000E014FEA154900FA07F4B3FBF9F81FFA07
:1006A00085FE09FB18300B0C08FB0EFA43EA0043E9
:1006B0009A4502FA07F240D9EB1808F1FF3004D24C
:1006C0009A4502D9A8F102002B44A3EB0A0389B290
:1006D000B3FBF9F809FB183308FB0EFE41EA0341AE
:1006E0008E452CD9691808F1FF3304D28E4502D902
:1006F000A8F10203294443EA0040A0FB0298A1EBC1
:100700000E014145CE46434602D306D14C4504D2A4
:10071000B9EB020E68EB05030138002EA4D0B4EB50
:100720000E0261EB030101FA0CFC22FA07F34CEA1A
:100730000303F940C6E9003196E74046C5E7434662
:10074000D9E7000030B589B00023019302930393E9
:10075000049305930DF11E030393022304934FF0BA
:10076000FF324FF0FF33264805F086F81EE025489B
:1007700007F01CFA09B030BD069B1C44224D4FF017
:10078000FF324FF0FF33284604F064FF00F020FFF3
:10079000204600F035FF284604F0DCFF06991B4890
:1007A00007F004FA4FF4FA7007F074F800220023FF
:1007B000174805F061F80028DCD0012302930C23D0
:1007C0008DF8143000238DF81530124883685B686B
:1007D00001A998470028CAD1BDF91E3042F2107015
:1007E00000FB03F406930C4A06AB911F0B4807F07D
:1007F00034F80028C0D00A4807F0D8F9BAE700BF9B
:100800000802002098A400087C010020C8A4000869
:1008100080020020C89F00086AB40008150C000878
:10082000A8A4000838B54FF0FF324FF0FF33164848
:1008300005F022F804E0154B1C60162007F02AF89A
:1008400000220023124805F017F80028EBD0114DC4
:100850004FF0FF324FF0FF33284604F0FBFE00F06C
:1008600041FF0446284604F075FF002CE3DD074BEA
:100870001B68A342DFD0084804F0C2FF21460748A6
:1008800007F094F9D7E700BFD8010020540F0020EB
:10089000680200207C01002050020020E0A4000833
:1008A00038B54FF0FF324FF0FF33394804F0E4FF22
:1008B00000220023374804F0DFFF0028F1D0364C37
:1008C0004FF0FF324FF0FF33204604F0C3FE00F03C
:1008D0007FFE204604F03EFF09F073F90022431822
:1008E00052D213442D4CA4FB032525F0030202EB46
:1008F00095029B1AC01A61F100014FF0CC3200FB47
:1009000002F204FB0122A0FB043422445B0843EA08
:10091000C273520822490B604A602248016840684D
:100920005B1A62EB0002002099182FD201441B4889
:10093000A0FB014525F0030404EB9504091B5B1A99
:1009400062F100024FF0CC3103FB01F100FB021217
:10095000A3FB003002445B0843EAC2735208124C06
:10096000236062600C4D4FF0FF324FF0FF3328469A
:1009700004F070FE206800F043FE284604F0EAFE12
:100980000A2006F087FF93E70122AAE70120CDE7BE
:10099000A8010020380200207C010020CDCCCCCC66
:1009A000F0060020F8060020E8060020F8B54FF019
:1009B000FF324FF0FF33654804F05EFF1FE0012275
:1009C00082E0002000F026FD614804F0C3FE84F0C0
:1009D0000104642006F05EFF0135092D0CDC4FF0A8
:1009E000FF324FF0FF335A4804F034FE002CE8D0B9
:1009F000072000F00FFDE7E7564804F001FF4FF035
:100A0000FF364FF0FF37524C32463B46204604F04B
:100A100021FE00F035FD204604F09CFE4E4807F014
:100A2000C5F832463B46204604F014FE032000F091
:100A3000E7FD204604F08EFE4FF47A7006F02AFFA0
:100A400032463B46204604F005FE00F019FD022028
:100A500000F0D6FD204604F07DFE4FF47A7006F0DB
:100A600019FF32463B46204604F0F4FD00F008FD35
:100A7000012000F0C5FD204604F06CFE4FF47A70B2
:100A800006F008FF32463B46204604F0E3FD00F046
:100A9000F7FC204604F05EFE06F0E6F82F4A82FBE3
:100AA0000032C317C3EBA21340F6B83202FB1303A4
:100AB00003F57A702A4B186006F0ECFE09F081F815
:100AC00000224318BFF47BAF1344264AA2FB034520
:100AD00025F0030404EB95041B1B0024C01A61F1EC
:100AE00000014FF0CC3300FB03F302FB0133A0FB0A
:100AF00002021344400840EAC3705B081A4A1060BF
:100B000053601A4804F07CFE194804F079FE194835
:100B100004F076FE4FF0FF364FF0FF3732463B468B
:100B2000154804F0A9FE154804F06AFE144804F0C4
:100B300067FE074D32463B46284604F08BFD00F029
:100B40009BFD284604F006FE254646E7C00100202E
:100B50007C01002020020020F8A40008F11976058D
:100B6000500F0020CDCCCCCCF8060020A8010020EE
:100B7000D8010020900100205002002038020020FF
:100B80006802002038B54FF0FF324FF0FF331E48A7
:100B900004F072FE2FE01D4D4FF0FF324FF0FF3397
:100BA000284604F057FD00F067FD0121204600F0C3
:100BB0007BFD284604F0CEFD322006F06BFE0134AA
:100BC000072CE8DD072414E0104D4FF0FF324FF002
:100BD000FF33284604F03EFD00F04EFD0121204683
:100BE00000F062FD284604F0B5FD322006F052FE0A
:100BF000013C002CE8DA00220023054804F03CFE0A
:100C00000028C0D00024DBE7900100207C010020F8
:100C10002002002070B582B08446084614461D4666
:100C20001B68DA174FEAEC7103FB01F10CFB0211B0
:100C3000A3FB0C3C614400930191694603F07EF9EB
:100C40000646F8B9019AC4F12001B4F12000009BD6
:100C500023FA04F302FA01F143EA010302D442FA4F
:100C600000F0034322410093019213F1004342F14B
:100C700000024FF0FF3199424FF00003934104D33B
:100C8000009B2B60304602B070BD024806F09CFF0E
:100C9000F6E700BF38A5000808B5084806F086FF4B
:100CA000074806F083FF074806F080FF064806F075
:100CB0007DFF064806F07AFF08BD00BF5CA500086E
:100CC00070A500088CA50008B0A50008D8A50008EC
:100CD00070B501252F4B1D702F4C4FF0FF324FF098
:100CE000FF33204604F0B6FC00F072FC73210020B4
:100CF00000F0B0FB7721284600F0ACFB7921022000
:100D000000F0A8FB6D21032000F0A4FBED210420DE
:100D100000F0A0FB204604F01DFD04E01F4B1C600A
:100D2000142006F0B7FD1B4B1B7893B31A4D4FF000
:100D3000FF324FF0FF33284604F08CFC00F0D2FC69
:100D40000446284604F006FD002CE7DD134B1B6823
:100D5000A342E3D02E464FF0FF324FF0FF33284638
:100D600004F078FC601EC0B200F054FB00F030FCD0
:100D7000651E284600F044FC304604F0EBFC294692
:100D8000074806F013FF012CC8D0024B00221A704E
:100D9000C4E770BD0C1100207C010020540F00201E
:100DA00004A6000810B5114C4FF0FF324FF0FF338E
:100DB000204604F04FFC00F00BFC7621002000F0F0
:100DC00049FB7921012000F045FB1C21022000F0A5
:100DD00041FB3821032000F03DFBBF21042000F03F
:100DE00039FB204604F0B6FC10BD00BF7C0100209A
:100DF00038B50125374B1D70374C4FF0FF324FF09F
:100E0000FF33204604F026FC00F0E2FB73210020B3
:100E100000F020FB7721284600F01CFB79210220FE
:100E200000F018FB6D21032000F014FBED210420DD
:100E300000F010FB3F21052000F00CFBBE21062036
:100E400000F008FBFF21072000F004FB204604F01F
:100E500081FC04E0214B1C60142006F01BFD1D4B9F
:100E60001B78ABB31C4D4FF0FF324FF0FF332846D9
:100E700004F0F0FB00F036FC0446284604F06AFC5F
:100E8000002CE7DD154B1B68A342E3D04FF0FF3287
:100E90004FF0FF33284604F0DDFB00F099FB2046BD
:100EA00000F0AEFB284604F055FC21460C4806F045
:100EB0007DFE082CCED1074B00221A70074B1C6018
:100EC000084806F073FE4FF4FA6006F0E3FCC1E751
:100ED00038BD00BF0C1100207C010020540F002001
:100EE000E0A400081CA60008F0B583B00BE1C348DD
:100EF00006F05CFE03B0F0BDC14806F057FE13E1FA
:100F00002146C04806F052FEF4E7BF4E4FF0FF32D4
:100F10004FF0FF33304604F09DFB0121284600F0DE
:100F2000C3FB304604F016FC322006F0B3FC01355A
:100F3000072DEADDB54806F039FE4FF4FA7006F0E9
:100F4000A9FC12E0B04D4FF0FF324FF0FF332846BE
:100F500004F080FB0021204600F0A6FB284604F0A8
:100F6000F9FB322006F096FC0134072CEADDA84894
:100F700006F01CFE4FF0FF364FF0FF37A24C324612
:100F80003B46204604F066FB0121032000F08CFB69
:100F9000A04806F00BFE42F2B82000F031FB9E485C
:100FA00006F004FE204604F0D5FBC82006F072FCD3
:100FB00032463B46204604F04DFB00F009FB20463C
:100FC00004F0C8FBC82006F065FC32463B462046CC
:100FD00004F040FB00F050FB904806F0E7FD20468F
:100FE00004F0B8FB4FF4FA7006F054FC32463B466E
:100FF000204604F02FFB40F2D24000F001FB88486D
:1010000006F0D4FD0121052000F04EFB854806F0D6
:10101000CDFD204604F09EFB4FF4487006F03AFCEC
:1010200032463B46204604F015FB00F029FA7E4884
:1010300006F0BCFD204604F08DFB4FF4FA7006F07C
:1010400029FC7A4806F0B2FDFFF726FE08E0FFF71C
:101050003FFEFFF721FE764B1C60142006F01AFCC1
:10106000744B1B78002B48D0674D4FF0FF324FF088
:10107000FF33284604F0EEFA00F034FB044628461D
:1010800004F068FB002CE6DD694B1B68A342E2D04C
:10109000631E042B2BD801A252F823F04F10000836
:1010A000B1100008C3100008CD100008DB100008C4
:1010B000FFF778FE4FF4FA6006F0ECFBFFF7ECFD6B
:1010C000C9E7FFF795FEFFF7E7FDC4E75A4804F0CC
:1010D00097FB584B00221A70BDE7584806F066FD92
:1010E000574804F08DFB534B00221A70B3E7554864
:1010F00006F05CFDFFF7D0FDADE74FF0FF304FF09D
:10110000FF3104F0B3FF504806F050FD4F4808F09F
:1011100001FB00283FF4EBAE4C4883681B684C4948
:10112000984700287FF4E8AE374D4FF0FF324FF07C
:10113000FF33284604F08EFA464806F037FD464B4A
:10114000464C474A92E803008DE803000CCB94E834
:10115000030000F0ABF904460146424806F026FDC4
:10116000284604F0F7FA404806F020FD002C7FF4F2
:10117000C7AE3E4806F01AFD4FF0FF364FF0FF377E
:10118000214D32463B46284604F064FA072000F021
:1011900041F9374806F00AFD364800F031FA364882
:1011A00006F004FD284604F0D5FA40F2DC5006F0C3
:1011B00071FB32463B46284604F04CFA7721022068
:1011C00000F048F92D4806F0F1FC284604F0C2FA78
:1011D0004FF47A7006F05EFB32463B46284604F038
:1011E00039FAFF21002000F035F9284604F0B2FA60
:1011F0004FF47A7006F04EFB254699E664A6000887
:1012000078A60008C4A600087C01002028A70008D2
:1012100030A7000838A7000840A700084CA700081E
:1012200058A7000860A7000868A7000874A700086E
:10123000540F002018010020C0010020B0A70008B2
:1012400008020020C0A7000844A60008C89F0008A4
:101250006AB400088CA600087CB4000884B40008B6
:1012600074B400089CA60008B4A60008F0A6000804
:10127000FCA600084E61BC0010A700081CA70008CF
:1012800070B506464FF40031104806F03BFB0025D0
:1012900019E00F4C0022217BA06806F06CFB46FA97
:1012A00005F202F00102217D206906F064FB0120B5
:1012B00008F007FA0122217BA06806F05CFB012000
:1012C00008F0FFF90135072DE3DD70BD10070020A0
:1012D0000007002070B505460E46144C0022217907
:1012E000206806F048FB4420FFF7CAFF012221795D
:1012F000206806F040FB012008F0E3F90022217984
:10130000206806F038FB05F00F0040F0C000FFF742
:10131000B7FF3046FFF7B4FF01222179206806F0BD
:101320002AFB322008F0CDF970BD00BF0007002075
:1013300070B54FF48031144806F0E4FA00252E46CB
:1013400009E0124B0122197B986806F014FB01207A
:1013500008F0B7F90135072D13DC0C4C0022217B76
:10136000A06806F008FB012008F0ABF9217D206998
:1013700006F0DFFA0028E4D00123AB401E43F6B2AA
:10138000DFE7304670BD00BF1007002000070020D7
:1013900010B582B01E4B00221979186806F0EBFADE
:1013A0004220FFF76DFF002407E0FFF7C1FF04F1C3
:1013B00008036B4403F8040C0134032CF5DD144CD2
:1013C00001222179206806F0D6FA4FF4003104F1A9
:1013D000100006F097FA0023184600E00133032BB3
:1013E00014DC03F108026A4412F8042C12F0010F15
:1013F00003D0012199400843C0B212F0100FEDD084
:10140000191D01228A401043C0B2E7E702B010BDA7
:101410000007002038B50E4B1B7E9BB10446072801
:1014200013D80B4D00222979286806F0A4FA44F05D
:101430008800FFF725FF01222979286806F09BFA2A
:10144000002038BD6FF00400FBE76FF01500F8E7EF
:101450000007002008B5094B1B7E43B1072809D8B7
:10146000400000F0FE00FFF735FF002008BD6FF0E0
:101470000400FBE76FF01500F8E700BF000700204D
:10148000094B1B7E13B110B5002408E06FF0040077
:10149000704700212046FFF71DFF0134E4B20F2CF6
:1014A000F7D9002010BD00BF0007002030B585B07F
:1014B0000DF1080C8CE80300CDE900233D4A9CE8BF
:1014C000030082E8030002F10805DDE9000185E878
:1014D000090002F1100308A903C983E803000024EE
:1014E00014765476947608F06CFB431859D2234452
:1014F000314AA2FB034525F0030404EB95041B1BB2
:10150000C01A61F100014FF0CC3300FB03F302FB82
:101510000133A0FB02021344400840EAC3705B0899
:10152000244A10625362106808F0F4F800283AD098
:10153000204B986808F0EEF8A8B31E4B186908F025
:10154000E9F880B31D4806F031FB1A4D4FF4D01175
:10155000284606F0D7F90446194806F027FB4FF451
:10156000D01105F1080006F0CDF90443154806F046
:101570001DFB4FF4D01105F1100006F0C3F9044330
:10158000114806F013FB8CB901222A76FFF778FF89
:101590000E4806F00BFB0420FFF73CFF204605B089
:1015A00030BD0124A3E76FF01204F7E76FF00404E5
:1015B000F4E700BF00070020CDCCCCCC18A8000871
:1015C0001CA8000820A8000824A8000828A80008D3
:1015D0000A4B1B7E13B110B500240AE06FF0040023
:1015E00070476000002100F0FE00FFF773FE013439
:1015F000E4B2072CF5D9002010BD00BF0007002081
:10160000194B1B7E53B370B50446184B984223D830
:10161000FFF7DEFF0725164BA3FB0423DB081E465E
:1016200003EB8303A4EB4303124AD15C2846FFF784
:1016300011FF23463446013D092B12D9002DEADA69
:10164000002070BD40212046FFF704FF0134072C25
:10165000F8DD6FF01500F4E70024F8E76FF0040000
:1016600070470020EDE700BF00070020FFE0F50510
:10167000CDCCCCCC8CB400080A4B1B7E13B110B57A
:1016800000240AE06FF00400704760000130002180
:10169000C0B2FFF71FFE0134E4B2072CF5D90020D9
:1016A00010BD00BF0007002008B50D4B1B7E6BB1BD
:1016B00007280ED801290FD840000130003918BF83
:1016C0000121C0B2FFF706FE002008BD6FF0040044
:1016D000FBE76FF01500F8E76FF01500F5E700BFC6
:1016E000000700202A4B1B7E002B4CD010B5FFF7C3
:1016F0004FFE044608F065FA034600205A182FD220
:1017000002442448A0FB02CE2EF0030C0CEB9E0CEE
:10171000A2EB0C029B1A61F100014FF0CC3203FBEB
:1017200002F200FB0122A3FB003002445B0843EA03
:10173000C273520819461648407EA04212D014497E
:101740004C760B624A62124B9A7EFAB1002007284F
:1017500017DC22FA00F313F0010F10D10130F6E785
:101760000120CDE70A48036A406AC91A62EB000209
:101770001E2972F10002E6DB054B9C76E3E701309F
:1017800000E0002010BD6FF0040070470020F9E772
:1017900000070020CDCCCCCC2DE9F04F91B00592C4
:1017A0000393134602F004020092C3F3C20210F046
:1017B0000303019340F01B82074689460132041D52
:1017C000002848D0072940F21582039B5D1EDDF8F2
:1017D00004B0CDF810B0CDF818B000264FF0FF3AA5
:1017E0004FF00408CDF808B0C3460FB1039B236047
:1017F000531E0793002A40F35D81059B13F00202FC
:1018000026D00120E11B8B081AB1B1F5007F80F0D2
:10181000F78102990F2900F2F681002F00F05B8119
:10182000DBB201F140026A4402F8103C02F820AC3D
:10183000002800F04C8163F07F0301F140026A440C
:1018400002F8103C049B01330493029B0133029382
:10185000043400223EE001F007031C44C3F10809F0
:10186000B3E7002635E0002633E0002631E04FF0F4
:101870000808C3462DE025292BD10AF1010A0126CB
:101880004FF00408C34624E04729ECD82A2912D394
:101890002A39C9B2012000FA01F14FF6DA7001428B
:1018A00017D111F0625F40F0C38011F0010F40F0DA
:1018B0008D8000260DE0252903D10AF1FF3A00268C
:1018C00007E0D2D8202904D0232902D0002600E046
:1018D00000261D466B1C6978002900F01581002E3A
:1018E000C9D07A29BDD84C29CED34C392E29EFD86E
:1018F00001A050F821F000BFD3180008D11800084B
:10190000D1180008D1180008D1180008D118000813
:10191000D1180008D1180008D1180008D118000803
:10192000D1180008D1180008C5190008D1180008FE
:10193000D1180008D1180008D1180008D1180008E3
:10194000D1180008D1180008D1180008311A000871
:10195000D1180008C5190008C5190008311A000877
:10196000311A0008311A0008D3180008C5190008F8
:101970006F180008D1180008D3180008D118000803
:101980008F1A0008C51900088F1A0008D11800081E
:10199000D1180008991A0008BD190008C5190008D7
:1019A000D1180008D1180008C5190008D11800087E
:1019B000B51900084FF00408C3468AE74FF0040841
:1019C000C34686E729786C2924D000264444013C8C
:1019D000B4FBF8F408FB04F427B1E11B5944494572
:1019E00000F20B81002A5DD1BBF1040F00F084806E
:1019F000BBF1080F40F00A811A99073121F0070165
:101A000001F108001A90D1E900010FB1C4E9000109
:101A100008345EE713F8021C6C2904D000264FF04E
:101A20000408C346D2E700264FF00808C346CDE7B6
:101A300029784C291BD01A99073121F0070101F1AF
:101A400008001A90D1E90001073424F0070447B1D7
:101A5000E61B08364E4514D82D784C2D14D0C4E919
:101A60000001083400264FF00808C34631E71A99F0
:101A7000073121F0070101F108001A90D1E90001B6
:101A8000E2E76FF01B00AFE0C4E90001E9E70026E0
:101A90004FF00408C34699E7324600264FF0040889
:101AA000C34693E71A9A111D1A9112680392079A76
:101AB0001D469AE65B4B039A9A4203D35A4B9A42CD
:101AC000FFF49BAE059B03F0020200209AE6069B02
:101AD00001330693B9E610B109F10109B5E6009B9F
:101AE00013B109F10209B0E60398FEF749FB09EBCF
:101AF000000303F10209A8E61A99081D1A90096863
:101B000007B121600434E4E6DDF808B0E31BB3F567
:101B1000806F7ED287B100223A609B083B70009BA9
:101B200073B1069BFB70049BBB700BBB019DDDF882
:101B300010A0DDF80C803AE04B44A3F1080053E01C
:101B4000069B7B70EFE701339B45EFD903F1400221
:101B50006A4412F8101C12F9102C002AF3DA01F072
:101B60007F01E21B01324A4556D804F8011BEAE71F
:101B7000019BE9E7009B3BB305F140036B4413F87D
:101B8000203C04F8013B019EE31B334401334B45E9
:101B900045D805F140036B4413F8103C04F8013BB1
:101BA000324641462046FEF757FB34440135AB45EB
:101BB00019D9BAF1000FDDD005F140036B4413F9D8
:101BC000103C002BD6DAF1E705F140036B4413F823
:101BD000103C57F82380002247F823204046FEF7A8
:101BE000CFFA461CD0E7E01B11B0BDE8F08F6FF0D4
:101BF0000D00F9E76FF01B00F6E76FF01B00F3E74D
:101C00006FF01500F0E76FF01500EDE76FF01500CD
:101C1000EAE76FF01500E7E76FF01B00E4E76FF00D
:101C20001B00E1E7B49D000810BA00082DE9F04F51
:101C300097B000AF8346BA617B61D7F88030C3F3B9
:101C4000C0033B62F96011B905F028FFF8609BF80A
:101C50000260B14636B1D7F8803013F0010F29D1B8
:101C6000002300E000239BF803207A6222B1D7F81A
:101C7000802012F0020F00D1F3B19BF80050AA00AF
:101C8000BA60DBF804203A610BEB8505BA69FAB15A
:101C9000002B40F00581B9F1000F00F00F81D7F85B
:101CA000803013F0040F00F00C81FE61002607F174
:101CB0003400F9E00123D6E7BB691BB17A69F96802
:101CC00058469847FC6820465C37BD46BDE8F08F13
:101CD000FC68E3B94D4400237B6123E004440135F3
:101CE00001364E451AD22A7800235BF82220194685
:101CF000B86905F0E8FEBAF1000FEFD0D7F88830E8
:101D00009845EBD22AF8180008F10108E6E700260A
:101D1000C7F81C80B046D7F884A0E2E7C7F8148063
:101D2000D7F81C80D7F8803003F00503FB604FF034
:101D3000000AA146C7F81CB09CE000253B6A7BB9AD
:101D4000002D79D0D7F8803013F0010F79D1FB68DE
:101D5000002B6FD10223A9EB030988E00125EDE7F1
:101D60005946386905F0F5FE0028E9D06C46002395
:101D700087F82C30022387F82D308AB0694611F19C
:101D8000100237D012251AB1042D01DDB14B4B6181
:101D9000002387F82830022387F829306ABB112DE9
:101DA00045DD122362B1042087F82C00002087F85B
:101DB0002D0087F82E00012087F82F00F86A0861AF
:101DC00028F0010828F0020828F0040828F0380854
:101DD000022161F38818C3F30A0363F35328C8F39D
:101DE0001308002341469C4800F056FDA546A9F182
:101DF00002093CE06FF00045C5E72B46082D01DDE8
:101E0000386988610C2B01DDC1F81CB001F1200399
:101E1000002009E000F1300C07F1280EF4441CF812
:101E200030CC03F801CB01300128F3D9B7E76FF0CC
:101E30001B03B7E701238EE7D7F8803013F0020FBA
:101E400015D0002322461946B86905F03CFED7F8A4
:101E5000843053B17B69D7F88820934205D2D7F8F4
:101E6000842022F8130001337B61013881440AF198
:101E7000010A35467B6A9A4510D22E4616F802BBF7
:101E80006B78FA6952F82340744B9C42FFF455AFCB
:101E9000734B9C42FFF462AF00254FE74C4612E7BC
:101EA00007F144000023FB614A462946FEF7D4F9B6
:101EB0004D444FF00008C7F804901BE00026FE6177
:101EC000F6E70026FE61F3E700253B6A33BB002DF1
:101ED0003BD0D7F8803013F0010F26D0731C06F1E9
:101EE000300207F12801561806F8149CDEB208F1FA
:101EF000010825467B6A98454AD22C4614F802AB65
:101F000095F801905BF82930544A9342DCD3544A47
:101F1000934201D30025D8E70125D6E75146386919
:101F200005F017FE0028D2D0E1E7D7F8803013F093
:101F3000040FDCD0FA69531C303207F128010A443F
:101F400002F8249CDBB2FB61D1E7D7F8803013F0B4
:101F5000020F09D0731C06F1300207F12801561850
:101F600006F8149CDEB2C2E7F869431C00F13001A8
:101F700007F128028A1802F824AC02460232D2B2D3
:101F8000FA6107F1580252FA83F303F8249CAEE792
:101F9000D7F804909BF8003087F854309BF8013054
:101FA000334487F85530D7F8803013F0020F0ED144
:101FB000FB69C3F3470387F85730D7F8803013F035
:101FC000010F06D113F0040F3ED1002302E00023DD
:101FD000F1E7002387F85630DBF800003863786DAE
:101FE000CBF80000D7F814804246B9685846D7F8B5
:101FF00018A0D047041EFFF666AE386BCBF8000081
:10200000C7F814804246F96907F13400D047002828
:102010005FDB04EB0008B96849447B6A01EB4301CC
:10202000D7F814904A46FB68591A2846D047041E30
:10203000FFF649AE08EB04054FF00008C7F824B0DE
:10204000B3465446CA4622E0FB69C3E74FF0000995
:102050000AE000BF34A80008D4A30008B49D00081B
:1020600010BA00084FF000095246012107F12C0078
:10207000A04700282FDB05444B46324651462046F8
:1020800005F021FD002828DB054408F10108D845AA
:1020900018D208F1300307F12802134413F8143C56
:1020A00087F82C307A6A52F82360D7F88430002BF6
:1020B000CCD0D7F888309845D4D2D7F8843033F8CC
:1020C0001890D1E77A6900210846BB6998472C46E9
:1020D000F9E50446F7E50446F5E50446F3E500BFF7
:1020E000014B1860704700BFC000002080B5054656
:1020F0000E461746984604F019F8034601F09AFC7C
:102100000446DFF8189049F8003042463946304618
:10211000A84754F8090001F017FC00BF10000000A8
:10212000034A536823F0020353600020704700BF46
:10213000002004E008B50B4641680C31012B14D097
:102140000AD833B90F4B9B685B68C3B10D489847F9
:1021500007E06FF0850004E0023BDBB2012B01D801
:10216000002008BD6FF08500FBE7064B9B681B68ED
:1021700013B104489847F4E76FF05700F1E76FF0A8
:102180005700EEE75C9E000808B5024906F031F8FA
:1021900008BD00BF3521000810B5192808D8064B26
:1021A00053F82040204607F0B5FA18B1204610BD7C
:1021B0000024FBE70024F9E738B50008084B1A684B
:1021C00042F480721A601A6842F400721A601A6847
:1021D00042F480621A60034B034A1A60704700BFE2
:1021E000003C0240080100200024F40038B50546F8
:1021F0000B4C00E010340B4B9C420FD263685B79B0
:10220000002BF7D02946204606F0F0F80028F1D040
:1022100023681B68294620469847EBE738BD00BF76
:1022200034A4000844A4000870B506460D46084CC6
:1022300000E01034074B9C4208D223689B69002BB6
:10224000F7D02A46314620469847F2E770BD00BFD6
:1022500034A4000844A4000808B507F0B2FC00222A
:10226000431819D213440D4AA2FB03CE2EF0030CDF
:102270000CEB9E0CA3EB0C03C01A61F100014FF0B4
:10228000CC3300FB03F302FB0133A0FB0202134437
:10229000400840EAC37008BD0122E3E7CDCCCCCCB6
:1022A0002DE9F041074605460AE007EA0807144B06
:1022B00003EB06135B6804221968204606F0D6F883
:1022C000D5B195FAA5F6B6FA86F60D4C04EB0614D0
:1022D0000123B3406FEA030825EA0305237B002BA3
:1022E000EED03301064AD3581B69002BDDD02046BF
:1022F00098470028E4D1D8E73846BDE8F08100BF10
:1023000034A400082DE9F04180460F461F4BBFF36F
:102310005B8F53E8005F6A1C43E800210029F8D175
:10232000BFF35B8F6DBB1A4C002607E06368042285
:102330001968204606F09AF801361034154B9C4275
:1023400011D2237B002BF7D0204606F043F82368F8
:102350001B69002BEAD0204698470028E6D00123CD
:10236000B3401D43E8E7B8F1000F0BD055B1284644
:10237000FFF796FF0546002FF8D00A2006F038F840
:10238000F4E700252846BDE8F08100BFEC0F0020EF
:1023900034A4000844A4000808B5064B186018B11E
:1023A000054B1B68092B00DC08BD044803F028FA24
:1023B000FAE700BFE00F0020E80F0020F001002046
:1023C00008B5024803F01CFA08BD00BFF001002068
:1023D00030B589B000220F490F4807F0F6FB0F4DCA
:1023E00000220023CDE90623002404940E23039346
:1023F0000294019400940A4B4FF440720949284614
:1024000007F00FFA0849284603F06CFA204609B095
:1024100030BD00BFC1230008E80B002028070020C2
:10242000C1270008C01E00208CA90008014B53F8EA
:1024300020007047B4B5000848B108B5054A1060DF
:10244000054B1960084600F021FD002008BD6FF023
:1024500015007047C4000020DC0F002008B5054BB4
:102460001B781BB1034B01221A7008BD024803F010
:10247000C7F9F7E70D110020F001002008B5104B57
:10248000BFF35B8F53E8001F013143E80012002ABD
:10249000F8D1BFF35B8F30B90A4804F0CBF90A4892
:1024A00003F0AEF908BD094BBFF35B8F53E8001F83
:1024B000013943E80012002AF8D1BFF35B8FEBE744
:1024C000E40F0020E80B0020F0010020E80F0020BE
:1024D000064B0022BFF35B8F53E8000F43E8002157
:1024E0000029F9D1BFF35B8F704700BFE40F0020D4
:1024F00038B5FFF7EDFF0546094C00E01034094BF5
:102500009C420BD263685B79002BF7D023685B6831
:10251000002BF3D0294620469847EFE738BD00BF8F
:1025200034A4000844A40008034B18680028D4BF52
:1025300000200120704700BFE40F002010B5044CBC
:102540000449204605F0A3FC034B1C6010BD00BFEE
:1025500038010020A0B50008D80F002008B50023DE
:102560000C4A13700C4A13600C4A13604FF47A71D2
:102570000B48FFF761FFFFF7E1FF0A4A06E0094B4E
:10258000D31A1B11013351680B711032064B9A425A
:10259000F5D308BD0E110020E40F0020E80F002045
:1025A0005922000834A4000844A4000808B50146D4
:1025B000014805F02DFF08BD3801002008B502488C
:1025C00005F048FD08BD00BF3801002008B50146F0
:1025D000024B186805F022FF08BD00BFD80F00208D
:1025E00008B5024805F01EFF08BD00BF38010020F5
:1025F00010B582B000220023CDE90023304B1878BB
:1026000008B902B010BD684605F024FF044680B149
:10261000FFF7ECFD2046FFF7D9FF2A4BBFF35B8F96
:1026200053E8001F013943E80012002AF8D1BFF334
:102630005B8FFFF779FF70B9234A1368516813F570
:102640007A7341F1000113605160A4B3FFF7C8FF32
:1026500098B30120D5E707F0B4FA0022431828D236
:1026600013441A4AA2FB03CE2EF0030C0CEB9E0C73
:10267000A3EB0C03C01A61F100014FF0CC3300FB57
:1026800003F302FB0133A0FB02021344400840EABB
:10269000C3705B080C490A684968801A63EB010340
:1026A00040F2E932904273F10003C5D3FFF720FFF7
:1026B000C2E70122D4E70020A3E70020A1E700BF82
:1026C0000D110020E80F0020E00B0020CDCCCCCC79
:1026D0000F4B1B7803B1704710B500210120FFF7A5
:1026E00011FE0C4C00E010340B4B9C4208D2636886
:1026F0005B79002BF7D023689B6820469847F2E768
:10270000FFF776FF0028FBD1014B01221A7010BDA4
:102710000E11002034A4000844A4000810B582B0B3
:102720001A4BBFF35B8F53E8002F511C43E8001096
:102730000028F8D1BFF35B8F154B1B7863B9154B9D
:102740001B68B3B1BAB1092A13D1134804F072F867
:10275000124803F055F80CE0EFF31184102383F3D3
:102760001288BFF36F8FFFF743FF84F31188BFF325
:102770006F8F02B010BD00220023CDE9002342F28A
:1027800010720023044804F01BF8F2E7E80F002061
:102790000E110020E00F0020E80B0020F0010020C7
:1027A00010B50446044B1B689847A06021460348B7
:1027B00005F054FE10BD00BFC40000203801002009
:1027C0002DE9F04100210846FFF79CFD804650B1FD
:1027D0004FF4FA76002701F02DF9154B1858FFF742
:1027E000DBFD002515E04FF0FF364FF0FF37F2E735
:1027F0004046FFF755FD804670B94FF0FF364FF069
:10280000FF3709E02C4632463B460A4803F034F8CD
:102810002546B8F1000FEBD1FFF7EAFE0446002889
:10282000F6D1002DEED000210846FFF7FDFCEAE7C7
:1028300010000000F00100200248034BC01AC0083D
:10284000704700BF34A40008CCA3000810B50C46A4
:10285000FFF7F2FFA04203D9024B53F8340010BD3A
:102860000020FCE7CCA3000800B589B005920693D0
:102870000023079362B1074A0C9B02930B9B0193C1
:102880000A9B009305ABFFF7D1F909B05DF804FB93
:102890000022F1E7838400082DE9F04F8BB004AFEC
:1028A00005461E468846C1F34A24002C00F0898064
:1028B00091460022FA603A617A6104230293FB1880
:1028C00001930A23009307F10C0321464846FFF7C2
:1028D000ADF9B0F5006F58D3D9F804106D46002358
:1028E0003B7302237B738AB004AC14F1100217D03F
:1028F00012201AB1042801DD3B4B636100233B70B9
:1029000002237B70CAB10346082800DDA1610C2BAD
:1029100002DD40F2FF73E36104F1200300210AE0CD
:102920006FF00040E5E701F118063E4416F8186C18
:1029300003F8016B01310129F5D9112822DD122399
:1029400042B10421397300217973B9730121F973FC
:10295000F8682061002121F0010121F0020121F03D
:10296000040121F03801022060F38811C3F30A0347
:1029700063F353210023C1F313011C4805F004FE47
:10298000AD462DE06FF01B03DAE760F35328C0F388
:102990000A0A0AEB1850173020F007008008FFF7EA
:1029A00005FE8346B0B104230293FB1801930A236A
:1029B0000093534600F1100221464846FFF754FFAA
:1029C00008E004EB1154173424F00704A008FFF7C3
:1029D000EDFD8346334642462946584605F06AFDDA
:1029E0001C37BD46BDE8F08FA4A90008E4A3000889
:1029F0002DE9F04F85B081460E4690461F46DDF822
:102A000038B0DDF840A0BAF1000F41D0119B03931C
:102A1000009353460F9A10210020FEF7BDFE054695
:102A2000B0F5006F2CD20BEB0500173020F007003B
:102A30008008002424F0010424F0020424F004049B
:102A400069F3C50468F3881465F353246BF31F54CA
:102A5000FFF7ACFD804650B11030BAF1000F06D040
:102A6000119B009353460F9A2946FEF795FE3B466D
:102A700022463146404605F01DFD05B0BDE8F08F09
:102A800040F2FF73034A0221034805F065FDF4E7B5
:102A90000025C8E7E4A90008E4A30008406820B1C5
:102AA000034BC01A40F3CF0070474FF0FF30704720
:102AB000CCA300080EB400B582B0014603AB53F8B6
:102AC000042B0193034801F0BDF802B05DF804EB5C
:102AD00003B07047BF85000810B584B011F0440FF3
:102AE00005D01A4B1B6833B9002004B010BD18493B
:102AF000FFF7E0FFF9E717490968B2FBF1F2B2FB13
:102B0000F3FC03FB1C224FF47A7E0EFB02F2B2FBB5
:102B1000F3F403FB14210EFB01F1B1FBF3F10E4AB8
:102B2000A2FB0C32D20A4FF4616303FB12CC0B4BB5
:102B3000A3FB0CE35B0902910194C3EB0311ACEB23
:102B4000810100910649FFF7B5FFCEE7F40F0020A1
:102B50001CAA0008F00F0020C5B3A29189888888BC
:102B600028AA000861B108B52AB1064A52F8232004
:102B700012B9054A00E0044A0449FFF79BFF08BD6B
:102B8000704700BFECB5000844AA00084CAA000832
:102B90002DE9F04105461746079EDDF8208081B9F2
:102BA00000242EB1324611492846FFF783FF044422
:102BB000B8F1000F14D06FB10B9B042B13D00C494C
:102BC00009E00C4B0B9A53F822200B49FFF772FFD8
:102BD0000446E6E7064942462846FFF76BFF0444F1
:102BE0002046BDE8F0810549F5E700BF64AA00086A
:102BF00054AA000800B600085CAA000850AA000801
:102C00002DE9F04F89B005460C46069207939DF8D2
:102C1000587001F0020B01F0010AC1F3C00801F481
:102C2000807905F021FC38B3024618492846FFF7A1
:102C300041FF0646BBF1000F20D13A4651462846D7
:102C400005F0E8FCB9F1000F01D0002313930597BC
:102C50009DF854300493149B0393139B0293129B8F
:102C6000019300230093069A41462846FFF790FF00
:102C7000304409B0BDE8F08F0026DBE7079A214613
:102C80002846FFF729FF0644D7E700BF68AA0008D7
:102C900011F0100F0BD108B511F0200F03D004492B
:102CA000FFF708FF08BD0349FFF704FFFAE7704785
:102CB0006CAA000870AA00082DE9F04105460F46ED
:102CC000164698460699FFF7E3FF002404E02549DD
:102CD0002846FFF7EFFE01344445F8DB002409E005
:102CE00020492846FFF7E6FE0BE01F492846FFF77C
:102CF000E1FE01340F2C0CDC002C02DD14F0070F78
:102D0000EED0B442F1D23A5D18492846FFF7D2FE20
:102D1000EFE717492846FFF7CDFE002409E01149E7
:102D20002846FFF7C7FE0BE012492846FFF7C2FE10
:102D300001340F2C13DC002C02DD14F0070FEED051
:102D4000B44207D23A5D0C4B9B5C13F0970FEBD16A
:102D50002E22E9E703492846FFF7ACFEE8E7BDE885
:102D6000F08100BF74AA000880AA000878AA0008B1
:102D700084AA000888AA000810B900082DE9F041CB
:102D800086B004469DF838500F9F119E95B9012BCF
:102D900021D01A484FF0000827B13B462246184977
:102DA00004F0A7FEDEB91DBB204605F0F1FB06B01E
:102DB000BDE8F08104959DF8340003900C980290D2
:102DC000019300920B46002212992046FFF718FF4C
:102DD00080460C48E0E70B484FF00008DCE7129B08
:102DE0000093434632461099204605F02BFCDAE763
:102DF0002A461299204605F019FCD5E7F785000808
:102E0000453C0008BF8500082DE9F04383B0064625
:102E1000056842F20F738B4228BF0B46184A052102
:102E2000684603F085FF04467368D3F804900B27C7
:102E3000DFF8508005E04A4639464046A8473F1A29
:102E40008044002FF7D17368D3F804806F4605E003
:102E5000424621463846A847241A0744002CF7D199
:102E600073685F681B24084E05E03A4621463046E9
:102E7000A847241A0644002CF7D103B0BDE8F0831C
:102E80007CAB0008E0B50008C4B50008074B012280
:102E90001A6004E04008054A13685B001360044BA5
:102EA0009842F7D8034B1860704700BFF00F00201E
:102EB00040420F00F40F002070B506460D46002476
:102EC00005E0315D044883685B6898470134AC4293
:102ED000F7D3284670BD00BF909F0008014B0360E8
:102EE0000020704748B6000808B50348034A121A84
:102EF000002105F038FC08BD9802002014110020C4
:102F000008B50648064A121A064905F030FC06487C
:102F1000064A121A064905F02AFC08BD00000020E6
:102F20009802002010BA00080000002000000020D5
:102F300010BA00082DE9F04182B000AF0446D0F885
:102F400000E0D0F804C085686E468AB06B4613F185
:102F5000100200F0888014218AB10846042903DD9C
:102F6000DFF81C81C3F81480082801DDC3F818E0DD
:102F70000C2801DDC3F81CC0102800DD1D621329D8
:102F800074DD14253AB10521397100217971B971C7
:102F9000F97178681861002121F0010121F0020126
:102FA00021F0040121F03801012363F38811C5F3F6
:102FB0000A0565F35321C1F3130100233148FFF7DC
:102FC0006BFCB546D4F80CC026696569E8468AB042
:102FD0006B4613F110024CD0142182B1084604292B
:102FE00003DDDFF8A4E0C3F814E0082801DDC3F82E
:102FF00018C00C2800DDDE61102800DD1D621329D9
:103000003ADD14253AB10521397100217971B97180
:10301000F97178681861002121F0010121F00201A5
:1030200021F0040121F03801012666F38811C5F36F
:103030000A0565F35321C1F31301124D00232846FD
:10304000FFF72AFCC546E369104A3146284605F0D9
:1030500083FAA3690E4A3146284605F07DFA0837FF
:10306000BD46BDE8F0816FF0004175E76FF01B05CC
:1030700088E76FF00041B0E76FF01B05C2E700BFC3
:10308000CCAA000804A40008FCAA00082CAB000885
:103090003CAB000838B504460D4611B10846FFF7B1
:1030A00049FF012C04D02946204602F093F838BD90
:1030B000EFF30583103B034A0121034805F04CFA66
:1030C000F1E700BF6CAB000804A4000830BFFFF7B5
:1030D000FDBF00BF38B50446054D2A460549FDF73A
:1030E000BBF8054A0021601903F066FD38BD00BF3A
:1030F0000800000088A400080400000070B506461F
:10310000064D074B1D444C1B2046FFF7E3FF083CD0
:10311000C6F8A84005F1080070BD00BF0800000017
:10312000040000008169104B5A6942F480725A61B0
:10313000BFF34F8FBFF36F8F31F8021C5A6922F42F
:1031400080725A61BFF34F8FBFF36F8F01F47F43DB
:10315000B3F55F4F01D000207047C9B2022901D0FA
:10316000002070470120704700ED00E04FF0000C98
:1031700083F800C002F07F4CBCF17F4F14D102F005
:103180000C0CBCF1080F04D012F0080F09D008464F
:10319000704708B5054A0121054805F0D3F900201C
:1031A00008BD01221A7070470020704780AB0008EC
:1031B00004A4000808B52B4A01212B4805F0C2F9E8
:1031C0002A4B9B6A13F0007F21D11D20274B9B6A5D
:1031D00013F0807F22D1254B9B6A13F4002F24D15A
:1031E000224B9B6A13F4802F26D1204B9B6A13F449
:1031F000003F28D11D4B9B6A13F4803F2AD11B4A04
:10320000936A6FEA03436FEA1343936208BD184A57
:103210000121154805F096F91E20D7E7154A01212E
:10322000114805F08FF91F20D5E7134A01210E48F8
:1032300005F088F92120D3E7104A01210A4805F05A
:1032400081F92220D1E70E4A0121074805F07AF9D9
:103250002320CFE70B4A0121034805F073F924200E
:10326000CDE700BFACAB000804A4000800ED00E00F
:10327000C4AB0008D8AB0008F4AB000814AC0008DD
:103280003CAC000858AC000808B500230B70034A9A
:103290000121034805F056F908BD00BF84AC0008C1
:1032A00004A4000890B583B000AF0F2923DC2F4C95
:1032B000103900233B7102237B718AB0EC461CF16C
:1032C00010021AD0122022B1042802DD284BCCF8BB
:1032D000143000233B7002237B70E2B103460828C0
:1032E00001DDCCF818400C2B01DDCCF81C100CF1E2
:1032F000200300210DE01F4CDAE76FF00040E2E709
:1033000001F1080404EB070E1EF808EC03F801EBCA
:1033100001310129F4D9112824DD12234AB10421F5
:10332000397100217971B9710121F9717868CCF88E
:103330001000002121F0010121F0020121F004011F
:1033400021F03801012060F38811C3F30A0363F30D
:103350005321C1F3130100230748FFF79DFA0C37EF
:10336000BD4690BD6FF01B03D8E700BFA8AC0008B6
:10337000DCAC0008C0AC000804A40008F8B50546A1
:103380000F461446374A0121374805F0DBF8374B22
:103390009B6A13F4805F25D11626344B9B6A13F485
:1033A000006F26D1314B9B6A13F4007F28D12F4B3D
:1033B0009B6A13F4806F3FD12C4B9B6A13F4807F80
:1033C00041D12A4B9B6A13F4005F43D1274A936A89
:1033D00043F47F4393620121284605F0D8F9207019
:1033E0003046F8BD224A01211F4805F0ABF81726E8
:1033F000D3E7204A01211C4805F0A4F81826D1E79C
:103400001D4A0121184805F09DF8184A936B926AED
:1034100012F4004F01D11926C9E7184A01211248B8
:1034200005F09AF837B1114A936A23F40043936286
:103430001926BCE71926BAE7114A01210A4805F006
:1034400081F81A26B8E70F4A0121074805F07AF8F3
:103450001B26BBE70C4A0121034805F073F81C2624
:10346000B4E700BFF0AC000804A4000800ED00E0E1
:1034700008AD00081CAD000830AD00084CAD0008D8
:1034800064AD000880AD000898AD00082DE9F0415A
:1034900004460F461546464A0121464805F052F8B3
:1034A000454B9B6A13F0100F3CD11026424B9B6A90
:1034B00013F0080F3DD1404B9B6A13F0020F3FD130
:1034C0006FF015083C4B9B6A13F0010F58D13A4B33
:1034D0009B6A13F0200F5AD1374B9B6A13F0100FE1
:1034E00004D1354B9B6A13F0020F04D0324B5B685A
:1034F00013F4006F52D1304B9B6A13F0200F04D0AD
:103500002D4A536A23F4005353622B4A936A43F0C3
:10351000FF0393620121204605F039F928703046F7
:10352000BDE8F081254A0121224805F00BF811265B
:10353000BCE7234A01211F4805F004F81226BAE728
:10354000204A01211B4804F0FDFF1B4BD3F83480B7
:103550009B6A13F0800F03D16FF015081326B1E7B3
:103560004346194A0121134804F0F6FF37B1124AC5
:10357000936A23F0800393621326A3E71326A1E73F
:10358000124A01210B4804F0DDFF14269FE7104A80
:103590000121084804F0D6FF15269DE72146404644
:1035A00005F02DF90028A6D080F309880226A2E7AD
:1035B000C8AD000804A4000800ED00E0E0AD00087C
:1035C0001CAD000814AE00082CAE000844AE000884
:1035D00098AD000870B506460D462B4A01212B48D0
:1035E00004F0B0FF00232B70294BDC6A14F00204B6
:1035F0000AD1274BDB6A002B0DDB254BDC6A14F06C
:1036000080440ED1204670BD224A01211F4804F09B
:1036100099FF0024F6E7204A01211C4804F092FF9C
:10362000F0E71E4A0121194804F08CFF3046FFF7ED
:1036300079FD98B9164B9B6A13F0FF0F16D1144B06
:103640009C6A14F47F4418D1114B9B6AB3F5803FF8
:10365000D8D33046FFF7AEFD0446D3E73368104AAF
:1036600001210A4804F078FF3468CBE72A4601219B
:103670003046FFF70BFF0446C4E72A4601213046D7
:10368000FFF77CFE0446BDE764AE000804A4000812
:1036900000ED00E07CAE0008A0AE0008B0AE00086F
:1036A000D0AE000830B58BB01E4B5D68C5F3080581
:1036B000002383F31188BFF36F8F0DF12603FFF70B
:1036C00055FD04460DF12702294605F062F89DF8E4
:1036D00027300BB10BB030BD05460DF1040C20684E
:1036E0006168A268E368ACE80F0020696169A269BB
:1036F000E369ACE80F009DF826304BB1089BC3F39B
:1037000008024AB96FEA53236FEA4323089303E0A0
:10371000089B6FF30803089301A92846FFF7BAFC3A
:10372000D8E700BF00ED00E0044B5A6942F01002F8
:103730005A615A6922F008025A61704700ED00E0B0
:10374000EFF30880EFF3098101B57246FFF7AAFF96
:1037500001BD00BF0C4880F3088800200B490870A9
:10376000102080F311880A484FF40461401880F358
:103770000988EFF314800221084380F31488BFF313
:103780006F8F00F049F80000C02F002010110020BA
:10379000002200201EF0040F0CBFEFF30880EFF3AF
:1037A0000980816911F8021C0229FFD001B5724617
:1037B00004F0E1FF01BD00BF002807DB00F01F029D
:1037C000400901239340024A42F82030704700BF6D
:1037D00000E100E0002808DB0901C9B200F1604007
:1037E00000F5614080F80013704700F00F000901F8
:1037F000C9B2014B1954704714ED00E0044B23F09B
:103800007F03044A9360BFF34F8FBFF36F8F7047FE
:103810000000000800ED00E008B5FFF7EFFF0B4ADD
:10382000D2F8883023F47003C2F88830EFF31483A1
:1038300023F0040383F31488BFF36F8FFFF754FB67
:10384000FFF75EFB00F0CCF801F0C6FE00ED00E0F3
:10385000104B9B68BBB110F1160F0BD0D3F898201A
:10386000A2F1400C844510D8824210D98A4207D870
:1038700000207047D3F898208A4201D80020704772
:10388000D3F8980070470020704700207047002050
:10389000704700BFD010002010B4A2F120040E49E0
:1038A00042F8081C21F0010142F8081C42F8203CB3
:1038B000019B42F81C3C029B42F8183C039B42F8D7
:1038C000143C4FF0807342F8043C04650023C0F8B8
:1038D000AC3010BC704700BFED20000808B50E46A4
:1038E00015460C4A9060D0F8A8200B4B1A6000F0E7
:1038F000B5F82C4686F309880020044B98472046EB
:10390000002100220023024C204700000D880008FF
:10391000ED200008D010002028100020014B1022BC
:103920001A61704700ED00E0054B5A699B689A42A6
:1039300004D0044A536843F080535360704700BF7B
:10394000D010002000ED00E008B50A4B9B688342D0
:1039500002D002F0F1FB08BDEFF30583002BF8D095
:10396000054B5A6842F080525A605A6A22F400426B
:103970005A62EEE7D010002000ED00E015498A6899
:103980004FF030001044EFF3098C80E8F01F102056
:1039900080F31288BFF36F8F0F4F4FF000664A69B4
:1039A0008A603E60D2F8A8000C4C2060D2F8AC00CF
:1039B0000023C2F8AC3080F3118804B5104600F043
:1039C0004DF8BDE8044002F1300090E8F01F8CF3A0
:1039D00009887047D010002004ED00E02810002076
:1039E000002206E003F00F030949194410230B7667
:1039F0000132492A0ADC53B2002BF3DB03F16043A6
:103A000003F56143102183F80013F1E7704700BF0D
:103A1000FCEC00E008B5EFF30583103B044A02EB31
:103A2000C301496852F833008847FFF77DFF08BD9E
:103A3000E49F00080148006870470000281000203B
:103A400008B5034B034A0121034805F01EF808BDE1
:103A5000008001200000002048B6000808B5D0F81A
:103A60009830403B0448036040234360034B83602D
:103A7000012105F00EF808BD2C10002000000B15E8
:103A8000084AC2F898000B6823F01F03034343F071
:103A90001003C2F89C308B6843F00103C2F8A030D9
:103AA000704700BF00ED00E010B504460A4BD3F8A4
:103AB0009030C3F30723013B984203D8FFF7E0FFA0
:103AC000204610BD0346054A0121054804F044FD87
:103AD0006FF01500F5E700BF00ED00E0F0AE000864
:103AE000FCA300082DE9F84380460F469946164688
:103AF000002509E02146F0B204F0ADFE064610F1C3
:103B0000160F1AD001360135BD4216DA05EB450411
:103B100008EB84046268002AF5D0B9F1000FE9D0FF
:103B2000204604F087FE0028E4D12B46044A0121F8
:103B3000044804F011FD6FF015063046BDE8F88327
:103B400018AF0008FCA3000810B5034C012322782D
:103B5000FFF7C8FF207010BD0F11002008B500232B
:103B60000B4A1278FFF7BEFF10F1160F0FD0024676
:103B700006E0084BC3F898200021C3F8A0100132DA
:103B8000044BD3F89030C3F307239342F1DC08BD14
:103B90000F11002000ED00E0044B0522C3F8942033
:103BA000BFF34F8FBFF36F8F704700BF00ED00E092
:103BB000BFF35F8F024B0022C3F89420704700BF11
:103BC00000ED00E038B51C4B1D681C4BD3F890305D
:103BD000C3F307239D422BD8FFF7EAFF002409E037
:103BE000154B5B6804EB440103EB81012046FFF7B2
:103BF00047FF0134A542F3D81148057004F04AFE8E
:103C000010F1160F13D00E4B1A780C4BD3F89030DE
:103C1000C3F307239A4207DA084BC3F89820002120
:103C2000C3F8A0100132F0E7FFF7B6FF002038BD5F
:103C30004FF0FF30FBE700BF54B6000800ED00E096
:103C40000F11002070B586B006460D461146684635
:103C50000024009401940294039404940594022295
:103C60008DF80220044A0192049605951A4603F045
:103C700011F906B070BD00BF9B8A000808B5024B61
:103C80001B689847002008BD38100020034B1860BF
:103C9000034A937843F00203937070473810002072
:103CA000D000002008B5064921F00701C1F10052FB
:103CB00002F5C032034803F09EFE002008BD00BF9D
:103CC000473400203C10002000B583B0094B93E836
:103CD000030002AB03E90300074B9B681B682BB191
:103CE00069460548984703B05DF804FB6FF057003C
:103CF000F9E700BF90A400085C9E000808B500F03A
:103D00001F02012393401F2806D8074A5269934394
:103D10000CBF0120002008BD0346044A01210448CD
:103D200004F01AFC0020F6E7003C014050AF000808
:103D3000DCA3000808B500F01F02012393401F28F0
:103D400003D8064A5361002008BD0346044A0121F6
:103D5000044804F001FC6FF01500F5E7003C014059
:103D600050AF0008DCA30008002399420ADD10B41C
:103D700000EB030C044C04F80C2001339942F7DCEF
:103D800010BC7047704700BFE0000020F8B5074640
:103D9000002401E00134E4B27B78A34217D93D78D6
:103DA00066193046FFF7AAFF0028F3D03046FFF728
:103DB000C1FF074B53F83620002AEBD006F01F0551
:103DC00003EBC60359680120A8409047E2E7F8BD1D
:103DD000481000205FFA81FC0CF102020A4B53F8F4
:103DE00022200B0C22EA114193FAA3F34BB1B3FA50
:103DF00083F3984001430CF1020C034A42F82C1063
:103E000070472023F5E700BF00380140C3B20233FA
:103E1000074A52F82320030C02EA104093FAA3F356
:103E20001BB1B3FA83F3D84070472023FBE700BFF0
:103E30000038014008B5034668B1B0FA80F2C2F11B
:103E40001F02D2B205498856054A11680B43136018
:103E500004F0C4FC08BDFF22F4E700BFE00000202E
:103E6000003C0140024A136823EA000313607047D4
:103E7000003C0140032926D8DFE801F0020C151EA2
:103E8000114B9A6822EA00029A60DA6822EA00027C
:103E9000DA6070470C4B9A6802439A60DA6822EA4B
:103EA0000002DA607047084BDA680243DA609A6809
:103EB00022EA00029A607047034B9A6802439A60B4
:103EC000DA681043D8607047003C014010B498B1E4
:103ED000B0FA80F3C3F11F03DBB29C460D4850F8E3
:103EE000330088420AD088B90A4B43F83C1003EBF0
:103EF000CC035A6010BC7047FF23EEE7054C04EB7F
:103F0000C3035B689342EED10020F3E76FF00F002C
:103F1000F0E700BF4810002060B1B0FA80F3C3F1B1
:103F20001F03DBB2044A002142F8331002EBC30244
:103F300051607047FF23F5E748100020142817D878
:103F400038B502460C460C4B13F8101000252068BB
:103F5000A1FB000C03EB42035A782B46D4F804E093
:103F600001FB0EC1FCF712FAC4E90001284638BD76
:103F70006FF01500704700BF90B6000870B5446838
:103F80001A4B9D682B6843B304F108011748984702
:103F9000064610BB94F8453013F0010F07D004F12A
:103FA0001001AB69E3B1002210489847C0B994F8FA
:103FB000453013F0020F07D004F11801AB6993B13B
:103FC00000220A48984770B9236A09494A6822F4CE
:103FD000403213434B60304670BD6FF00406FAE781
:103FE0006FF00406F7E76FF00406F4E75C9E000844
:103FF000002301402DE9F04147680369D7F80080AC
:10400000D3F8B85000260EE004EB44021E3A44EA0E
:10401000025297F94230012B1AD00123A34025EA1E
:1040200003050136F6B225B395FAA5F4B4FA84F483
:104030000DB94FF0FF340134E4B2013CE4B2092C75
:10404000E2D804EB440244EA025242F00072E0E794
:104050000C4B53F82610404604F0D6FD0A4B53F89B
:104060002630D8F82C2022F470021343C8F82C30E4
:10407000D3E7D8F8043043F48073C8F80430002044
:10408000BDE8F08178B7000838B700084900036838
:1040900013B19B8903FB0111C3688B4201D300203C
:1040A000704700B583B00091044A0121044804F030
:1040B0005EFA6FF00B0003B05DF804FB94AF0008EC
:1040C000CCA3000870B544682568002300E00133E4
:1040D00094F940209A4205DD91F810C0A06AC05CB6
:1040E0008445F4D19A420AD06A6802F04072E16ACB
:1040F0009E0051F82330934209D1002070BD0B4A35
:1041000001210B4804F01EFA6FF01500F6E70021BC
:10411000284604F04BFD0028F0D1E36A9B596A68F9
:1041200022F0407213436B60E8E700BFBCAF0008A9
:10413000CCA3000810B5446821B30A4643F6FF73C8
:10414000994221D08B0B032B0CD10020072811DCC6
:1041500000F1180334F8133043F44043934210D075
:104160000130F3E7094A0121094804F0EBF96FF047
:10417000150006E0074A0121054804F0E3F96FF055
:10418000150010BD0020FCE70720FAE7D0AF0008BB
:10419000CCA30008F8AF000870B50D464468266847
:1041A0001146FFF7C7FF002817DB94F941303BB1F8
:1041B000002B19DB013BDBB2012B15D800200CE0F2
:1041C000092D0BD805EB450345EA035343F0007175
:1041D0000246304604F039FD002070BD05EB450372
:1041E0001E3B45EA0351F3E7034A0121034804F06B
:1041F000A9F96FF01500F0E71CB00008CCA3000887
:1042000008B5436893F8453013F0100F03D10B79CC
:1042100013F0200F0DD10B78092B12D14B78042B02
:1042200017D10B794A8803F01F01FFF7B5FFC0B91A
:1042300008BD104A0121104804F084F96FF0150000
:10424000F6E70E4A01210C4804F07CF96FF01500E6
:10425000EEE70B4A0121084804F074F96FF01500ED
:10426000E6E7084A0121044804F06CF96FF01500F4
:10427000DEE700BF54B00008CCA3000884B00008FB
:104280009CB00008B8B0000800B583B00346083001
:10429000D3F8903063332CBF4FF0010C4FF0000C7B
:1042A000C3F31302190D41EA0C311144104AA2FB69
:1042B00001E2D20802EB820202EB82028A1A9B1A06
:1042C0006CF1000C0B490C4A03FB02F201FB0C22BF
:1042D000A3FB01310A449B0843EA827392080093CE
:1042E00001920022002302F06BFA03B05DF804FB98
:1042F0001F85EB51295C8FC2F5285C8F2DE9F041B9
:1043000007460D4643680669D3F800808B68C6F8F7
:10431000AC304868C6F8B800FCF7A2F8C0B286F81E
:10432000BC00002386F8BD302B7C86F8B430002812
:1043300038D010283ED829463846FFF7C3FE041E61
:1043400041DB3846FFF756FE041E42DB96F8BC10F0
:104350002846FFF79BFE0446002840D16B7C002BCB
:1043600043D1AB7C002B48D1404604F00EFC6FF0EB
:104370002003C8F80030D8F8083043F48063C8F848
:104380000830D8F8043043F02003C8F80430294638
:10439000304604F08EFC304604F0BAFC0446204659
:1043A000BDE8F081194A0121194804F0CBF86FF0FB
:1043B0001504F4E71023174A0121154804F0CCF83E
:1043C0006FF01504EBE7144A0121114804F0BAF824
:1043D000E5E7124A01210E4804F0B4F8DFE7104A7D
:1043E00001210B4804F0AEF8D9E70E4A0121084834
:1043F00004F0A8F86FF08504D1E70B4A01210448C6
:1044000004F0A0F86FF08504C9E700BFD0B0000841
:10441000CCA30008E8B0000814B1000838B10008C7
:1044200058B100086CB1000888B10008F8B50569FA
:1044300046683768C5F8A800FF2385F8BE3085F8C0
:10444000BF30FFF79BFD0021706A04F0B1FC041E31
:104450000CDB736803B198470121384604F0A6FBD2
:10446000284604F09DFC00242046F8BD14F1020FFC
:10447000EFD02346024A0121024804F06DF8F3E729
:10448000A4B10008CCA3000870B5044606694368CF
:104490001D682B6813F0200F15D12B6813F0020F45
:1044A00010D0EA6CD6F8AC30991CC6F8AC101A8063
:1044B00096F8BD300133DBB286F8BD3096F8BC20EB
:1044C000934209D070BD6FF020032B60064A012192
:1044D000064804F037F8E0E7002386F8BD302146AF
:1044E000304604F0B1FCEDE7C4B10008CCA30008ED
:1044F00008B50248FFF7C8FF08BD00BFC89F000805
:104500000C4B1B6813F0020F09D10A4A136843F0E1
:1045100001031360074B1B6813F0020FFAD0054A22
:10452000936823F003039360024B9B6813F00C0F16
:10453000FAD17047003802400C4B1A6842F48022CE
:104540001A601A6842F480321A60084B1B6813F430
:10455000003FFAD0054A536F43F001035367034B02
:104560005B6F13F0020FFAD0704700BF00380240B3
:10457000F8B50C461546424B1E680221304604F041
:10458000AFFC07460121304604F0AAFC2388C3F3A0
:104590000B010B46442929D809B2002968D0013BF8
:1045A000432B68D8DFE803F03D53565A5D3F496717
:1045B0006767676767676767676767676062676797
:1045C000676767676767676767676767676767677B
:1045D00067676767676767356767673567676737FF
:1045E00067676767676767396767673BA8290DD1A2
:1045F0002E602368B3F5805F40D32A68C3F313337A
:104600000133B2FBF3F22A60002036E06FF0850040
:1046100033E02E60EDE72E60EBE72F60E9E72860DE
:10462000E7E72E60E5E700F0CFF804234FF4A87227
:10463000082104F04EFC2860DBE700F0C5F80723F2
:104640004FF4A872082104F044FC2860D1E700234D
:104650002B60CEE74FF4FA432B60CAE700232B60B0
:10466000C7E7084B2B60C4E72E60C2E72E60C0E7A7
:104670006FF0850001E06FF08500F8BD0020FCE7D9
:104680000801002000127A0008B51B4B9B6803F05C
:104690000C03082B27D0184A136823F0807313608B
:1046A000154B1B6813F0007FFAD1144AD2F8043876
:1046B00023F4403343F48033C2F80438D2F804388A
:1046C00023F0706343F0E063C2F8043800F080F830
:1046D000094A136843F080731360074B1B6813F09B
:1046E000007FFAD008BDFFF70BFF034A936823F061
:1046F000F0039360CFE700BF003802400030024073
:10470000162806D8064BC34013F0010F04D0002032
:1047100070476FF0850070476FF08500704700BFED
:10472000EA00600038B500F077F8234C204604F02A
:1047300054FC00F055FC214B9B68C3F30313204A43
:10474000D35C20FA03F513781C41A5422CD3FFF764
:10475000F3FEFFF799FF194A936823F0F003936083
:10476000936823F0030343F002039360134B9B68A9
:1047700003F00C03082BF9D1A54219D2114B0E4AB4
:104780001A600E4B9A6822F4E05242F480529A600A
:104790009A6822F460429A60D3F88C2022F08072EA
:1047A000C3F88C20002038BD204600F087FCCEE7FF
:1047B000204600F083FCE1E700BD0105003802401F
:1047C0005CB80008080100200048704700127A0019
:1047D00008B504F003FC0C4B59680C4A0A4040F43D
:1047E000A84141F008010A435A605A6822F4403255
:1047F00042F480325A605968054A0A40054901432B
:104800000A435A6008BD00BF003802400080BFFF65
:104810000080BFF00854000782B0064B1A6C42F0CB
:1048200080521A641B6C03F080530193019B02B009
:10483000704700BF0038024010B504460A2806D071
:10484000E1B2064883685B689847204610BD03487C
:1048500083685B680D219847F2E700BF909F0008CE
:1048600010B5044C2046FFF711FA2046FDF738FC3E
:1048700010BD00BF3948000808B5054804F04AFFDC
:1048800018B1FFF7EDFF002008BD6FF01200FBE745
:10489000909F00082DE9F84380460F4616461C46B7
:1048A000D0F80490D9F8080004F04FF9B6F5001FCD
:1048B0000ED00546B6F5800F2AD0B4F1806F0ED029
:1048C000B4F1C06F0DD0B4F1007F24D1022609E00D
:1048D0003946D9F8080004F055FC002415E00126FB
:1048E00000E0032642460F492846FFF7EFFA044648
:1048F000A0B9D9F80810384604F02CF931462846FA
:10490000FFF7B8FA2846FFF795FA2046BDE8F88386
:104910006FF08504F9E76FF01504F6E76FF00F0408
:10492000F3E700BFA790000810B50446B2F5004FAA
:104930002FD04FF0000C48184CEB0C0C40184CF1E9
:10494000000C4FEACC0C4CEA507CC00040184FEAF7
:1049500083024FEA93734CF10001FBF767FD244992
:10496000A1FB00235B091A0192B24FF0640C0CFB0F
:1049700013031B013233A1FB0313C3F34F1303F0E3
:10498000F0010A4492B203F00F0313449BB2A360F8
:1049900010BD4FF0000C48184CEB0C02401842F1CF
:1049A0000002D20042EA5072C000401842F10001F9
:1049B000DA184CEB0C03FBF739FD0D49A1FB002382
:1049C0005B091A0192B24FF0640C0CFB1303DB007D
:1049D0003233A1FB0313C3F34F13590001F4F871F1
:1049E0000A4492B203F0070313449BB2A360CFE7DB
:1049F0001F85EB5108B5024A04F019FD08BD00BF40
:104A00009D94000808B5024A04F02BFD08BD00BFC4
:104A1000A394000810B543685868196983681B6837
:104A200023B19847044618B9204610BD6FF05704CB
:104A3000024A0121024803F085FDF5E780B2000833
:104A40002CA400082DE9F04184B000AF4368D3F8EE
:104A50000080002900F0A88005460E4658681969B4
:104A60008368DB68002B3FD007F10C029847041ED7
:104A70003CDBD8F80C3023F40043C8F80C30FC6859
:104A8000002120194941001941F10001C90041EA02
:104A90005071C00000194FEA86024FEA967341F147
:104AA0000001FBF7C3FC424AA2FB00314909642321
:104AB00003FB11031B013233A2FB03235B0903F049
:104AC000F00202EB011203F00F0313440F2B13D972
:104AD0003346002221464046FFF726FF00242046A9
:104AE0001037BD46BDE8F0816FF05704314A01210F
:104AF000314803F027FDF2E729686D4600233B7239
:104B000002237B728AB06C4614F1100215D0122079
:104B10001AB1042801DD294B636100233B71022394
:104B20007B71BAB10346082800DDA1610C2B00DDC2
:104B3000E66104F1200300210AE06FF00040E7E79E
:104B400001F110063E4416F80C6C03F8016B0131BC
:104B50000129F5D9112824DD122342B1042139722B
:104B600000217972B9720121F972B86820610021BF
:104B700021F0010121F0020121F0040121F03801AE
:104B8000012060F38811C3F30A0363F35321C1F3D7
:104B9000130100230848FDF77FFEAD466FF01504B2
:104BA0009DE76FF01B03D8E76FF0150497E700BF90
:104BB0001F85EB51A0B200082CA40008D0B2000859
:104BC0002DE9F0410C4643681D6803691E680B79A6
:104BD000012B04D0022B0DD14FF4806801E04FF47B
:104BE000C0686279012A08D0022A08D01ABB4FF4A3
:104BF000805706E04FF00008F3E7002701E04FF48C
:104C0000405794F806C0BCF1040F17D0CBB94FF051
:104C1000000ED91EC9B2012952D913B1BCF1040F3B
:104C200051D0B7F5805F0FD0B7F5405F0ED0002FA1
:104C30003BD101230BE04FF40057E2E74FF4805ED5
:104C4000E7E74FF4805EE4E7002300E002239A42A6
:104C50003CD1BEF1000F2AD1B8F1000F2ED10323B1
:104C60009C4536D1E37963B1012B35D11F4B9D4271
:104C700007D0A3F54C439D4203D003F550439D421A
:104C80002DD1EB6823F40053EB60214604F059FC6E
:104C9000002827DBEB6843F40053EB6094E8030043
:104CA00086E803000020BDE8F0810323CFE7B8F1D8
:104CB000000F01D10423D3E70323D1E70223CFE779
:104CC0006FF08500EFE76FF08500ECE76FF085008F
:104CD000E9E76FF08500E6E76FF08500E3E76FF046
:104CE0008500E0E76FF08500DDE700BF00100140C0
:104CF000F8B505464668346803691F68E36823F41D
:104D00000053E360B06804F005FD08B3F168B068D3
:104D100004F03AFB04F10C0353E8003F43F00C03AA
:104D200004F10C0141E80032002AF3D1394628464B
:104D300004F007FC002813DB337E1BB1636943F0EA
:104D400008036361E36843F40053E3600020F8BDA7
:104D5000054A0121054803F0F5FB6FF01200F6E764
:104D60006FF01500F3E700BFE8B200082CA40008BC
:104D70004FF0E023996918699A6909B90C4B1968D1
:104D80000AB90B4B1A6810F4803F01D1914208D246
:104D900008490B680648006803440B604FF0E023A5
:104DA0001B69034B1B689B1A024A10681844704722
:104DB000CC100020C8100020094B102283F82320BB
:104DC000084B42F2D0021A600020074B18604FF0E7
:104DD000E02342F2CF025A61986107221A617047BC
:104DE00000ED00E0CC100020C8100020684620F044
:104DF00007018D4619B5FFF7BBFF12480368124A39
:104E0000516814681B1941F10001136051600022C0
:104E100002600E490A68981A0D4BA3FB0030400B44
:104E200042F2D00300FB03F3D2184B6843F10003B6
:104E30000A604B6004F03AFCFEF776FDBDE81940CD
:104E400085467047C8100020280C0020200C002048
:104E50002D34A9F9F8B500294DD0B0F1FF3F3FD06E
:104E60003F4B1C6801284EDD40F2CD739842A8BF2D
:104E70001846461EEFF31185102383F31288BFF303
:104E80006F8FFFF775FF4FF0E0239F69354A136876
:104E90005168C31841F10001136051600021324A8A
:104EA0001160324A11685A1A2FD442F2D00000FB26
:104EB000062202F503520F322D4EA6FB0262520B60
:104EC000C91A00FB02110A46B1F5806F38BF4FF4D2
:104ED0008062284B994236D9214B264A1A6018E045
:104EE0004FF0E022136923F0010313611C4B4FF0D4
:104EF0007F421A6026E01A4B1C68B0F1FF3FB1D127
:104F000040F2CC70B0E70026B4E7154B4FF4806256
:104F10001A604FF0E0239969114A1268013A5A6108
:104F200000229A618F4211D2641A3C440D4A1368E0
:104F300051681B1941F100011360516085F311881C
:104F4000BFF36F8FF8BD064B1A60E2E77F1A054A80
:104F500013685168DB1941F1000113605160EDE7FE
:104F6000CC100020280C0020C8100020200C0020AD
:104F70002D34A9F9C0D5FF0038B5EFF31185102302
:104F800083F31288BFF36F8F084B1C68084B1B68B4
:104F9000E41AFFF7EDFE204485F31188BFF36F8F0D
:104FA000044BA3FB0030400B38BD00BF280C002091
:104FB000200C00202D34A9F938B5EFF3118510230A
:104FC00083F31288BFF36F8F044B1C68FFF7D0FE8A
:104FD000204485F31188BFF36F8F38BD280C002063
:104FE00008B5334B9B6803F00C03042B5BD0082BF4
:104FF0005BD12F4B5A6802F03F025B6813F4800FBD
:105000002CD02B4B5868C0F388104FEA401CBCEBE7
:10501000000C6EEB0E0E4FEA8E1343EA9C634FEAD0
:105020008C11B1EB0C0163EB0E03DB0043EA51730F
:10503000C90011EB000C43F10003590200234FEAB1
:105040004C2041EADC51FBF7F1F9194B5B68C3F3E3
:10505000014301335B00B0FBF3F008BD144B58680B
:10506000C0F388104FEA401CBCEB000C6EEB0E0E38
:105070004FEA8E1343EA9C634FEA8C11B1EB0C01AB
:1050800063EB0E03DB0043EA5173C90011EB000C24
:1050900043F10003990200234FEA8C2041EA9C511E
:1050A000FBF7C4F9D1E70348D7E70348D5E700BFCA
:1050B0000038024000127A000024F4000246002862
:1050C0003CD0204B19681B6803F44043B3F5004FF4
:1050D0001BD000211B4B1B6803F44043B3F5804FEA
:1050E0001FD0194A136823F007030B4313600222F1
:1050F000154B1B6803F00703013A994201D0002ABF
:10510000F6D199421CD001207047104B984204D828
:105110000F4B984203D80021DCE70221DAE7012196
:10512000D8E70A4B9A4200D931B1094B9A42D8D9F3
:105130000029D6D10121D4E70221D2E7012070470E
:105140000020704700700040003C0240008793033D
:1051500080C3C90104280CD8DFE800F0030D05075F
:1051600009000648704706487047064870470648D9
:105170007047064870470648704700BF30B30008C4
:1051800054B3000864B3000870B3000880B300088B
:1051900040B3000830B108B504F036FB20B1037805
:1051A00023B108BD024870470148FAE70048F8E714
:1051B00090B3000810B50446FDF78AFA034A0121AE
:1051C000034803F0BFF9204604F0B4FA98B300088E
:1051D00004A400082DE9F04782B000AF05460C4654
:1051E000EFF31188102383F31288BFF36F8FDFF87A
:1051F000C491D9F80860FFF7ADFF99F81010E9469F
:1052000001233B7103237B718AB0EC461CF1100231
:1052100021D04FF0160E5AB17346BEF1040F03DDD4
:10522000DFF894A1CCF814A0082B01DDCCF81850BD
:1052300001233B7003237B70D2B17346BEF10C0F88
:1052400001DDCCF81C00102B01DDCCF820100CF196
:10525000240300210AE06FF0004EDCE701F10800B2
:10526000384410F8080C03F8010B01310129F5D975
:10527000BEF1150F50DD16234AB105213971002109
:105280007971B9710121F9717868CCF810000021A9
:1052900021F0010121F0020121F0040121F0380187
:1052A000012060F38811C3F30A0363F35321C1F3B0
:1052B000130100234148FDF7EFFACD461CB1E36925
:1052C000C3F308035BBB3046FFF764FFE9460123E5
:1052D0003B7103237B718AB0EC461CF1100224D091
:1052E0004FF0120E52B17346BEF1040F02DD344985
:1052F000CCF81410082B01DDCCF8186001233B70AA
:1053000003237B70F2B1BEF10C0F01DDCCF81C0061
:105310000CF12003002113E06FF01B03ACE7294AD6
:105320000121264803F00EF9CDE76FF0004ED9E7D2
:1053300001F10800384410F8080C03F8010B0131A2
:105340000129F5D9BEF1110F31DD12234AB1042133
:10535000397100217971B9710121F9717868CCF83E
:105360001000002121F0010121F0020121F00401CF
:1053700021F03801012060F38811C3F30A0363F3BD
:105380005321C1F3130100230C48FDF785FACD46E4
:1053900021462846FFF70EFF88F31188BFF36F8F71
:1053A0003046FEF7D1FA0837BD46BDE8F0876FF00A
:1053B0001B03CBE7D0100020A8B3000804A400080A
:1053C000F4B30008D0B3000810B586B0B823114C70
:1053D00003FB004400EB400C00EB80000E4B03EBA2
:1053E00080030E4A0592012204920F2203920022AA
:1053F0000292019200930A4B4FF4A072094901EB0B
:10540000CC11204600F080FA237C23F0040323749F
:1054100006B010BD300C0020D01000200CB40008E5
:1054200045970008402A002038B505460B4B53F835
:10543000204002E02368984708346B1C074A52F862
:105440002330A34209D960680028F3D0037E13F00B
:10545000010FF1D104F045F9EEE738BD6CB8000852
:1054600008B553EA020102D100F03CFE08BD024932
:10547000183000F0F7FFF9E7D399000810B586B0AF
:10548000184C14E0636A0593236A0493E369039359
:10549000A36902936369019323690093E368A26897
:1054A0006168206800F030FA23685C6530340E4B88
:1054B0009C42E7D300F0FCFC0A4C03E02068FFF7B5
:1054C000CFFF3034084B9C4208D2A26AE36AB3F1A2
:1054D000FF3F08BFB2F1FF3FF3D0EFE700F000FD60
:1054E00006B010BD38A2000858A3000808B50A4B42
:1054F00001221A700320FFF797FF01F0F9F9042049
:10550000FFF792FFFFF7BAFF04F0E3FB034A93892A
:1055100023F00103938108BD10110020E80C002046
:1055200008B50146014A0248FEF7D8F9ED540008D3
:10553000E80C002010B50446FFF746FFB8230B49DE
:1055400003FB04110A4A04EB840302EB8303D960D2
:105550001C7404EB4411074B03EB811303F5046344
:1055600004EB840402EB8402536010BD300C002075
:10557000D01000200022002070B586B000F0E2FCC0
:10558000104D114B5D61114B0593012304930024D1
:1055900003940294019400940D4B4FF480620D49E2
:1055A000284600F0B1F906462B7C23F004032B7447
:1055B000284604F0B9F92046FFF7BCFF304606B094
:1055C00070BD00BFE80C0020D010002014B400080B
:1055D000ED540008C02B002008B50020FFF724FF81
:1055E000194B83F30888194C636943F400736361B2
:1055F000F02384F822300023E37723766376A376C2
:1056000084F82030636A43F4E0236362FEF78CF889
:10561000FEF784F94FF0FF33A362E362FEF7D2FA9C
:10562000FEF70EFAFCF79AFF094800F0CFF9FCF7F5
:10563000C5FD0120FFF7F8FE0220FFF7F5FEFFF79A
:105640009BFFFFF76DFF00BF402A002000ED00E048
:10565000A00D00202DE9F04182B00446EFF3118740
:10566000102181F31288BFF36F8FC16899B90029A7
:1056700050D1364B9B6893F90E3023610131E160C4
:10568000324B9B68A36087F31188BFF36F8F0020B4
:1056900002B0BDE8F08116461D4682682B4B9B6820
:1056A0009A42E4D055EA060136D092F90E8041467E
:1056B00093F90E0004F053F8804534DC4FF00008F5
:1056C0000096019522463946214800F031FB00281A
:1056D000DED0EFF31185102383F31288BFF36F8FB1
:1056E000A36843B323689C4223D013B3216993F981
:1056F0000E0004F034F80146204604F03BF8E8B907
:10570000B8F1000F1AD185F31188BFF36F8F6FF0D6
:105710000A00BDE72369B0E787F31188BFF36F8FF5
:105720006FF00F00B4E70146204604F023F88046EE
:10573000C6E72169E0E7B8F1000FE4D02946044844
:1057400004F08CF96FF00A00A2E700BFD01000202F
:10575000F41000208368002B47D070B50446264A19
:105760009268934244D1C368012B03D9013BC360C3
:10577000002070BDEFF31186102383F31288BFF36E
:105780006F8F016903F0F6FF2568AC421CD07DB134
:105790006A682B6813605A6000232B606B602A7C58
:1057A00022F002022A74AB6005F1180004F0C6F979
:1057B000A560281E18BF012045B90023E36086F3C9
:1057C0001188BFF36F8FD4E70025F1E795F90E300C
:1057D00023610024C5F8B040284604F0A5F83146FE
:1057E000064804F03BF92046C3E76FF01500704708
:1057F0004FF0FF30BDE700BFD0100020F4100020B4
:1058000070B5EFF31186102383F31288BFF36F8F07
:105810000468A0421AD0CCB16268236813605A6051
:10582000002525606560237C23F002032374A560B6
:1058300004F1180004F082F9C4F8B050204604F0D6
:1058400073F831460B4804F009F970BD8368C268EB
:1058500093420DD00122134483600221103004F0E2
:1058600019FA0028EDD186F31188BFF36F8FECE7AA
:105870000022F0E7F410002010B582B0EFF31181A0
:10588000102484F31288BFF36F8F846844B1013C05
:10589000846081F31188BFF36F8F002002B010BDC8
:1058A00053EA020406D0009201930246054800F034
:1058B0003FFAF3E781F31188BFF36F8F6FF00F00AA
:1058C000ECE700BFF410002008B553EA020102D152
:1058D00000F008FC08BD0249183000F0C3FDF9E7EC
:1058E000D399000810B5044640B11F2204F1780096
:1058F00001F0E0F9002084F8970010BD014B9C688E
:10590000F3E700BFD01000202DE9F04F85B004462A
:105910000F4615461E46DDF838A0DDF83C90DDF850
:105920004080DDF84CB000F158038365C365129BDD
:105930000422119903F06AFF2A463946204603F0F3
:1059400037FF0546CDF80880CDF80490CDF800A0CB
:105950003346024639462046FDF79EFF0023636525
:105960006666C4F868A0C4F86C90C4F87080EFF361
:105970001182102383F31288BFF36F8F124B196AC1
:1059800061671C6282F31188BFF36F8FBBF1000F58
:1059900013D01F22594604F1780001F08BF900233F
:1059A00084F89730084B9B685BB1D3F8A430C4F8F7
:1059B000A430284605B0BDE8F08F002384F8783085
:1059C000F0E7C4F8A430F4E7D010002001230374FA
:1059D00083810023C0F89830C0F89C30C0F8A43010
:1059E000014B9860704700BFD01000200A4A9368AE
:1059F000C3F8AC006FF00A01C3F8B01007494B6858
:105A000043F080534B60002383F31188BFF36F8F03
:105A10009368D3F8B0007047D010002000ED00E08C
:105A2000084681B908B5EFF305833BB9084B5A69BD
:105A30009B689A4202D0FFF7D9FF03E080F31188F8
:105A4000BFF36F8F08BD81F31188BFF36F8F70476D
:105A5000D0100020037C90F91020002A4EDB13F0B8
:105A60001F0F4BD110B563F07F030374244A52F823
:105A7000183F93423AD07BB190F90E1093F90E2063
:105A8000914202D0521A002A27DC19461C4AD269D8
:105A9000934201D01B6833BB194BDA6903F118013B
:105AA000016042601060D861154B53F8184F9C425A
:105AB0001ED0ECB1124B9B681A7C12F01F0F04D160
:105AC000DA897F2A01D9A269AAB1A34202D020466D
:105AD00000F02EFC0A4B5C6110BD5A684260036006
:105AE00010605860E0E70029C5D1D5E70023C2E780
